{
  "_format": "hh-sol-artifact-1",
  "contractName": "ERC20CrossChain",
  "sourceName": "examples/evm/cross-chain-token/ERC20CrossChain.sol",
  "abi": [
    {
      "inputs": [
        {
          "internalType": "address",
          "name": "gateway_",
          "type": "address"
        },
        {
          "internalType": "address",
          "name": "gasReceiver_",
          "type": "address"
        },
        {
          "internalType": "uint8",
          "name": "decimals_",
          "type": "uint8"
        }
      ],
      "stateMutability": "nonpayable",
      "type": "constructor"
    },
    {
      "inputs": [],
      "name": "AlreadyInitialized",
      "type": "error"
    },
    {
      "inputs": [],
      "name": "InvalidAccount",
      "type": "error"
    },
    {
      "inputs": [],
      "name": "InvalidAddress",
      "type": "error"
    },
    {
      "inputs": [],
      "name": "InvalidAddressString",
      "type": "error"
    },
    {
      "inputs": [],
      "name": "InvalidCodeHash",
      "type": "error"
    },
    {
      "inputs": [],
      "name": "InvalidImplementation",
      "type": "error"
    },
    {
      "inputs": [],
      "name": "InvalidOwner",
      "type": "error"
    },
    {
      "inputs": [],
      "name": "InvalidOwnerAddress",
      "type": "error"
    },
    {
      "inputs": [],
      "name": "NotApprovedByGateway",
      "type": "error"
    },
    {
      "inputs": [],
      "name": "NotOwner",
      "type": "error"
    },
    {
      "inputs": [],
      "name": "NotProxy",
      "type": "error"
    },
    {
      "inputs": [],
      "name": "SetupFailed",
      "type": "error"
    },
    {
      "anonymous": false,
      "inputs": [
        {
          "indexed": true,
          "internalType": "address",
          "name": "owner",
          "type": "address"
        },
        {
          "indexed": true,
          "internalType": "address",
          "name": "spender",
          "type": "address"
        },
        {
          "indexed": false,
          "internalType": "uint256",
          "name": "value",
          "type": "uint256"
        }
      ],
      "name": "Approval",
      "type": "event"
    },
    {
      "anonymous": false,
      "inputs": [
        {
          "indexed": false,
          "internalType": "string",
          "name": "sourceChain",
          "type": "string"
        },
        {
          "indexed": false,
          "internalType": "string",
          "name": "sourceAddress",
          "type": "string"
        }
      ],
      "name": "FalseSender",
      "type": "event"
    },
    {
      "anonymous": false,
      "inputs": [
        {
          "indexed": true,
          "internalType": "address",
          "name": "newOwner",
          "type": "address"
        }
      ],
      "name": "OwnershipTransferStarted",
      "type": "event"
    },
    {
      "anonymous": false,
      "inputs": [
        {
          "indexed": true,
          "internalType": "address",
          "name": "newOwner",
          "type": "address"
        }
      ],
      "name": "OwnershipTransferred",
      "type": "event"
    },
    {
      "anonymous": false,
      "inputs": [
        {
          "indexed": true,
          "internalType": "address",
          "name": "from",
          "type": "address"
        },
        {
          "indexed": true,
          "internalType": "address",
          "name": "to",
          "type": "address"
        },
        {
          "indexed": false,
          "internalType": "uint256",
          "name": "value",
          "type": "uint256"
        }
      ],
      "name": "Transfer",
      "type": "event"
    },
    {
      "anonymous": false,
      "inputs": [
        {
          "indexed": true,
          "internalType": "address",
          "name": "newImplementation",
          "type": "address"
        }
      ],
      "name": "Upgraded",
      "type": "event"
    },
    {
      "inputs": [],
      "name": "acceptOwnership",
      "outputs": [],
      "stateMutability": "nonpayable",
      "type": "function"
    },
    {
      "inputs": [
        {
          "internalType": "address",
          "name": "",
          "type": "address"
        },
        {
          "internalType": "address",
          "name": "",
          "type": "address"
        }
      ],
      "name": "allowance",
      "outputs": [
        {
          "internalType": "uint256",
          "name": "",
          "type": "uint256"
        }
      ],
      "stateMutability": "view",
      "type": "function"
    },
    {
      "inputs": [
        {
          "internalType": "address",
          "name": "spender",
          "type": "address"
        },
        {
          "internalType": "uint256",
          "name": "amount",
          "type": "uint256"
        }
      ],
      "name": "approve",
      "outputs": [
        {
          "internalType": "bool",
          "name": "",
          "type": "bool"
        }
      ],
      "stateMutability": "nonpayable",
      "type": "function"
    },
    {
      "inputs": [
        {
          "internalType": "address",
          "name": "",
          "type": "address"
        }
      ],
      "name": "balanceOf",
      "outputs": [
        {
          "internalType": "uint256",
          "name": "",
          "type": "uint256"
        }
      ],
      "stateMutability": "view",
      "type": "function"
    },
    {
      "inputs": [],
      "name": "contractId",
      "outputs": [
        {
          "internalType": "bytes32",
          "name": "",
          "type": "bytes32"
        }
      ],
      "stateMutability": "pure",
      "type": "function"
    },
    {
      "inputs": [],
      "name": "decimals",
      "outputs": [
        {
          "internalType": "uint8",
          "name": "",
          "type": "uint8"
        }
      ],
      "stateMutability": "view",
      "type": "function"
    },
    {
      "inputs": [
        {
          "internalType": "address",
          "name": "spender",
          "type": "address"
        },
        {
          "internalType": "uint256",
          "name": "subtractedValue",
          "type": "uint256"
        }
      ],
      "name": "decreaseAllowance",
      "outputs": [
        {
          "internalType": "bool",
          "name": "",
          "type": "bool"
        }
      ],
      "stateMutability": "nonpayable",
      "type": "function"
    },
    {
      "inputs": [
        {
          "internalType": "bytes32",
          "name": "commandId",
          "type": "bytes32"
        },
        {
          "internalType": "string",
          "name": "sourceChain",
          "type": "string"
        },
        {
          "internalType": "string",
          "name": "sourceAddress",
          "type": "string"
        },
        {
          "internalType": "bytes",
          "name": "payload",
          "type": "bytes"
        }
      ],
      "name": "execute",
      "outputs": [],
      "stateMutability": "nonpayable",
      "type": "function"
    },
    {
      "inputs": [
        {
          "internalType": "bytes32",
          "name": "commandId",
          "type": "bytes32"
        },
        {
          "internalType": "string",
          "name": "sourceChain",
          "type": "string"
        },
        {
          "internalType": "string",
          "name": "sourceAddress",
          "type": "string"
        },
        {
          "internalType": "bytes",
          "name": "payload",
          "type": "bytes"
        },
        {
          "internalType": "string",
          "name": "tokenSymbol",
          "type": "string"
        },
        {
          "internalType": "uint256",
          "name": "amount",
          "type": "uint256"
        }
      ],
      "name": "executeWithToken",
      "outputs": [],
      "stateMutability": "nonpayable",
      "type": "function"
    },
    {
      "inputs": [],
      "name": "gasService",
      "outputs": [
        {
          "internalType": "contract IAxelarGasService",
          "name": "",
          "type": "address"
        }
      ],
      "stateMutability": "view",
      "type": "function"
    },
    {
      "inputs": [],
      "name": "gateway",
      "outputs": [
        {
          "internalType": "contract IAxelarGateway",
          "name": "",
          "type": "address"
        }
      ],
      "stateMutability": "view",
      "type": "function"
    },
    {
      "inputs": [
        {
          "internalType": "uint256",
          "name": "amount",
          "type": "uint256"
        }
      ],
      "name": "giveMe",
      "outputs": [],
      "stateMutability": "nonpayable",
      "type": "function"
    },
    {
      "inputs": [],
      "name": "implementation",
      "outputs": [
        {
          "internalType": "address",
          "name": "implementation_",
          "type": "address"
        }
      ],
      "stateMutability": "view",
      "type": "function"
    },
    {
      "inputs": [
        {
          "internalType": "address",
          "name": "spender",
          "type": "address"
        },
        {
          "internalType": "uint256",
          "name": "addedValue",
          "type": "uint256"
        }
      ],
      "name": "increaseAllowance",
      "outputs": [
        {
          "internalType": "bool",
          "name": "",
          "type": "bool"
        }
      ],
      "stateMutability": "nonpayable",
      "type": "function"
    },
    {
      "inputs": [],
      "name": "name",
      "outputs": [
        {
          "internalType": "string",
          "name": "",
          "type": "string"
        }
      ],
      "stateMutability": "view",
      "type": "function"
    },
    {
      "inputs": [],
      "name": "owner",
      "outputs": [
        {
          "internalType": "address",
          "name": "owner_",
          "type": "address"
        }
      ],
      "stateMutability": "view",
      "type": "function"
    },
    {
      "inputs": [],
      "name": "pendingOwner",
      "outputs": [
        {
          "internalType": "address",
          "name": "owner_",
          "type": "address"
        }
      ],
      "stateMutability": "view",
      "type": "function"
    },
    {
      "inputs": [
        {
          "internalType": "address",
          "name": "newOwner",
          "type": "address"
        }
      ],
      "name": "proposeOwnership",
      "outputs": [],
      "stateMutability": "nonpayable",
      "type": "function"
    },
    {
      "inputs": [
        {
          "internalType": "bytes",
          "name": "data",
          "type": "bytes"
        }
      ],
      "name": "setup",
      "outputs": [],
      "stateMutability": "nonpayable",
      "type": "function"
    },
    {
      "inputs": [],
      "name": "symbol",
      "outputs": [
        {
          "internalType": "string",
          "name": "",
          "type": "string"
        }
      ],
      "stateMutability": "view",
      "type": "function"
    },
    {
      "inputs": [],
      "name": "totalSupply",
      "outputs": [
        {
          "internalType": "uint256",
          "name": "",
          "type": "uint256"
        }
      ],
      "stateMutability": "view",
      "type": "function"
    },
    {
      "inputs": [
        {
          "internalType": "address",
          "name": "recipient",
          "type": "address"
        },
        {
          "internalType": "uint256",
          "name": "amount",
          "type": "uint256"
        }
      ],
      "name": "transfer",
      "outputs": [
        {
          "internalType": "bool",
          "name": "",
          "type": "bool"
        }
      ],
      "stateMutability": "nonpayable",
      "type": "function"
    },
    {
      "inputs": [
        {
          "internalType": "address",
          "name": "sender",
          "type": "address"
        },
        {
          "internalType": "address",
          "name": "recipient",
          "type": "address"
        },
        {
          "internalType": "uint256",
          "name": "amount",
          "type": "uint256"
        }
      ],
      "name": "transferFrom",
      "outputs": [
        {
          "internalType": "bool",
          "name": "",
          "type": "bool"
        }
      ],
      "stateMutability": "nonpayable",
      "type": "function"
    },
    {
      "inputs": [
        {
          "internalType": "address",
          "name": "newOwner",
          "type": "address"
        }
      ],
      "name": "transferOwnership",
      "outputs": [],
      "stateMutability": "nonpayable",
      "type": "function"
    },
    {
      "inputs": [
        {
          "internalType": "string",
          "name": "destinationChain",
          "type": "string"
        },
        {
          "internalType": "address",
          "name": "destinationAddress",
          "type": "address"
        },
        {
          "internalType": "uint256",
          "name": "amount",
          "type": "uint256"
        }
      ],
      "name": "transferRemote",
      "outputs": [],
      "stateMutability": "payable",
      "type": "function"
    },
    {
      "inputs": [
        {
          "internalType": "address",
          "name": "newImplementation",
          "type": "address"
        },
        {
          "internalType": "bytes32",
          "name": "newImplementationCodeHash",
          "type": "bytes32"
        },
        {
          "internalType": "bytes",
          "name": "params",
          "type": "bytes"
        }
      ],
      "name": "upgrade",
      "outputs": [],
      "stateMutability": "nonpayable",
      "type": "function"
    }
  ],
  "bytecode": "0x6101006040523480156200001257600080fd5b50604051620024ee380380620024ee833981016040819052620000359162000249565b60408051602080820183526000808352835191820190935291825260019183866001600160a01b0381166200007d5760405163e6c4247b60e01b815260040160405180910390fd5b6001600160a01b031660805282516200009e90600390602086019062000186565b508151620000b490600490602085019062000186565b5060ff1660a05250620000c9905081620000e2565b50503060c0526001600160a01b031660e05250620002d9565b6001600160a01b0381166200010a57604051633649397d60e21b815260040160405180910390fd5b6040516001600160a01b038216907f04dba622d284ed0014ee4b9a6a68386be1a4c08a4913ae272de89199cc68616390600090a27f02016836a56b71f0d02689e69e326f4f4c1b9057164ef592671cf0d37c8040c05560007f9855384122b55936fbfb8ca5120e63c6537a1ac40caf6ae33502b3c5da8c87d155565b82805462000194906200029c565b90600052602060002090601f016020900481019282620001b8576000855562000203565b82601f10620001d357805160ff191683800117855562000203565b8280016001018555821562000203579182015b8281111562000203578251825591602001919060010190620001e6565b506200021192915062000215565b5090565b5b8082111562000211576000815560010162000216565b80516001600160a01b03811681146200024457600080fd5b919050565b6000806000606084860312156200025f57600080fd5b6200026a846200022c565b92506200027a602085016200022c565b9150604084015160ff811681146200029157600080fd5b809150509250925092565b600181811c90821680620002b157607f821691505b60208210811415620002d357634e487b7160e01b600052602260045260246000fd5b50919050565b60805160a05160c05160e0516121bf6200032f600039600081816103b201526109c901526000610c53015260006102c5015260008181610213015281816106ac015281816108520152610a7d01526121bf6000f3fe6080604052600436106101a15760003560e01c806370a08231116100e15780639ded06df1161008a578063a9059cbb11610064578063a9059cbb14610512578063dd62ed3e14610532578063e30c39781461056a578063f2fde38b1461059e57600080fd5b80639ded06df146104b2578063a3499c73146104d2578063a457c2d7146104f257600080fd5b80638291286c116100bb5780638291286c146104365780638da5cb5b1461046957806395d89b411461049d57600080fd5b806370a08231146103d4578063710bf3221461040157806379ba50971461042157600080fd5b8063313ce5671161014e5780634916065811610128578063491606581461033957806355d55dc1146103595780635c60da1b1461036c5780636a22d8cc146103a057600080fd5b8063313ce567146102b357806339509351146102f957806344dee17f1461031957600080fd5b806318160ddd1161017f57806318160ddd1461024d5780631a98b2e01461027157806323b872dd1461029357600080fd5b806306fdde03146101a6578063095ea7b3146101d1578063116191b614610201575b600080fd5b3480156101b257600080fd5b506101bb6105be565b6040516101c891906119a9565b60405180910390f35b3480156101dd57600080fd5b506101f16101ec3660046119d8565b61064c565b60405190151581526020016101c8565b34801561020d57600080fd5b506102357f000000000000000000000000000000000000000000000000000000000000000081565b6040516001600160a01b0390911681526020016101c8565b34801561025957600080fd5b5061026360025481565b6040519081526020016101c8565b34801561027d57600080fd5b5061029161028c366004611a4d565b610662565b005b34801561029f57600080fd5b506101f16102ae366004611b27565b61076d565b3480156102bf57600080fd5b506102e77f000000000000000000000000000000000000000000000000000000000000000081565b60405160ff90911681526020016101c8565b34801561030557600080fd5b506101f16103143660046119d8565b6107c4565b34801561032557600080fd5b50610291610334366004611b68565b6107fb565b34801561034557600080fd5b50610291610354366004611b81565b610808565b610291610367366004611c25565b610918565b34801561037857600080fd5b507f360894a13ba1a3210667c828492db98dca3e2076cc3735a920a3ca505d382bbc54610235565b3480156103ac57600080fd5b506102357f000000000000000000000000000000000000000000000000000000000000000081565b3480156103e057600080fd5b506102636103ef366004611c82565b60006020819052908152604090205481565b34801561040d57600080fd5b5061029161041c366004611c82565b610af5565b34801561042d57600080fd5b50610291610bc4565b34801561044257600080fd5b507f6fd43e7cffc31bb581d7421c8698e29aa2bd8e7186a394b85299908b4eb9b175610263565b34801561047557600080fd5b507f02016836a56b71f0d02689e69e326f4f4c1b9057164ef592671cf0d37c8040c054610235565b3480156104a957600080fd5b506101bb610c3b565b3480156104be57600080fd5b506102916104cd366004611c9f565b610c48565b3480156104de57600080fd5b506102916104ed366004611ce1565b610cb9565b3480156104fe57600080fd5b506101f161050d3660046119d8565b610fd5565b34801561051e57600080fd5b506101f161052d3660046119d8565b61100c565b34801561053e57600080fd5b5061026361054d366004611d3d565b600160209081526000928352604080842090915290825290205481565b34801561057657600080fd5b507f9855384122b55936fbfb8ca5120e63c6537a1ac40caf6ae33502b3c5da8c87d154610235565b3480156105aa57600080fd5b506102916105b9366004611c82565b611019565b600380546105cb90611d76565b80601f01602080910402602001604051908101604052809291908181526020018280546105f790611d76565b80156106445780601f1061061957610100808354040283529160200191610644565b820191906000526020600020905b81548152906001019060200180831161062757829003601f168201915b505050505081565b6000610659338484611069565b50600192915050565b60008585604051610674929190611db1565b6040519081900381207f1876eed900000000000000000000000000000000000000000000000000000000825291506001600160a01b037f00000000000000000000000000000000000000000000000000000000000000001690631876eed9906106f1908e908e908e908e908e9089908d908d908d90600401611dea565b602060405180830381600087803b15801561070b57600080fd5b505af115801561071f573d6000803e3d6000fd5b505050506040513d601f19601f820116820180604052508101906107439190611e49565b61076057604051631403112d60e21b815260040160405180910390fd5b5050505050505050505050565b6001600160a01b038316600090815260016020908152604080832033845290915281205460001981146107ae576107ae85336107a98685611e81565b611069565b6107b9858585611106565b506001949350505050565b3360008181526001602090815260408083206001600160a01b038716845290915281205490916106599185906107a9908690611e98565b61080533826111e2565b50565b6000828260405161081a929190611db1565b6040519081900381207f5f6970c300000000000000000000000000000000000000000000000000000000825291506001600160a01b037f00000000000000000000000000000000000000000000000000000000000000001690635f6970c390610891908b908b908b908b908b908990600401611eb0565b602060405180830381600087803b1580156108ab57600080fd5b505af11580156108bf573d6000803e3d6000fd5b505050506040513d601f19601f820116820180604052508101906108e39190611e49565b61090057604051631403112d60e21b815260040160405180910390fd5b61090e878787878787611293565b5050505050505050565b60003411610986576040517f08c379a000000000000000000000000000000000000000000000000000000000815260206004820152601760248201527f476173207061796d656e74206973207265717569726564000000000000000000604482015260640160405180910390fd5b6109903382611351565b604080516001600160a01b0384166020820152808201839052815180820383018152606090910190915260006109c5306113fc565b90507f00000000000000000000000000000000000000000000000000000000000000006001600160a01b0316630c93e3bb343089898688336040518863ffffffff1660e01b8152600401610a1e96959493929190611ef1565b6000604051808303818588803b158015610a3757600080fd5b505af1158015610a4b573d6000803e3d6000fd5b50506040517f1c92115f0000000000000000000000000000000000000000000000000000000081526001600160a01b037f0000000000000000000000000000000000000000000000000000000000000000169350631c92115f9250610abb91508990899086908890600401611f52565b600060405180830381600087803b158015610ad557600080fd5b505af1158015610ae9573d6000803e3d6000fd5b50505050505050505050565b33610b1e7f02016836a56b71f0d02689e69e326f4f4c1b9057164ef592671cf0d37c8040c05490565b6001600160a01b031614610b45576040516330cd747160e01b815260040160405180910390fd5b6001600160a01b038116610b6c57604051633649397d60e21b815260040160405180910390fd5b6040516001600160a01b038216907fd9be0e8e07417e00f2521db636cb53e316fd288f5051f16d2aa2bf0c3938a87690600090a27f9855384122b55936fbfb8ca5120e63c6537a1ac40caf6ae33502b3c5da8c87d155565b6000610bee7f9855384122b55936fbfb8ca5120e63c6537a1ac40caf6ae33502b3c5da8c87d15490565b90506001600160a01b0381163314610c32576040517f49e27cff00000000000000000000000000000000000000000000000000000000815260040160405180910390fd5b6108058161160b565b600480546105cb90611d76565b306001600160a01b037f0000000000000000000000000000000000000000000000000000000000000000161415610cab576040517fbf10dd3a00000000000000000000000000000000000000000000000000000000815260040160405180910390fd5b610cb582826116ae565b5050565b33610ce27f02016836a56b71f0d02689e69e326f4f4c1b9057164ef592671cf0d37c8040c05490565b6001600160a01b031614610d09576040516330cd747160e01b815260040160405180910390fd5b306001600160a01b0316638291286c6040518163ffffffff1660e01b815260040160206040518083038186803b158015610d4257600080fd5b505afa158015610d56573d6000803e3d6000fd5b505050506040513d601f19601f82011682018060405250810190610d7a9190611f97565b846001600160a01b0316638291286c6040518163ffffffff1660e01b815260040160206040518083038186803b158015610db357600080fd5b505afa158015610dc7573d6000803e3d6000fd5b505050506040513d601f19601f82011682018060405250810190610deb9190611f97565b14610e22576040517f68155f9a00000000000000000000000000000000000000000000000000000000815260040160405180910390fd5b836001600160a01b03163f8314610e65576040517f8f84fb2400000000000000000000000000000000000000000000000000000000815260040160405180910390fd5b6040516001600160a01b038516907fbc7cd75a20ee27fd9adebab32041f755214dbc6bffa90cc0225b39da2e5c2d3b90600090a28015610fae576000846001600160a01b0316639ded06df60e01b8484604051602401610ec6929190611fb0565b60408051601f198184030181529181526020820180517bffffffffffffffffffffffffffffffffffffffffffffffffffffffff167fffffffff00000000000000000000000000000000000000000000000000000000909416939093179092529051610f319190611fcc565b600060405180830381855af49150503d8060008114610f6c576040519150601f19603f3d011682016040523d82523d6000602084013e610f71565b606091505b5050905080610fac576040517f97905dfb00000000000000000000000000000000000000000000000000000000815260040160405180910390fd5b505b5050507f360894a13ba1a3210667c828492db98dca3e2076cc3735a920a3ca505d382bbc55565b3360008181526001602090815260408083206001600160a01b038716845290915281205490916106599185906107a9908690611e81565b6000610659338484611106565b336110427f02016836a56b71f0d02689e69e326f4f4c1b9057164ef592671cf0d37c8040c05490565b6001600160a01b031614610c32576040516330cd747160e01b815260040160405180910390fd5b6001600160a01b038316158061108657506001600160a01b038216155b156110a457604051630da30f6560e31b815260040160405180910390fd5b6001600160a01b0383811660008181526001602090815260408083209487168084529482529182902085905590518481527f8c5be1e5ebec7d5bd14f71427d1e84f3dd0314c0f7b2291e5b200ac8c7c3b92591015b60405180910390a3505050565b6001600160a01b038316158061112357506001600160a01b038216155b1561114157604051630da30f6560e31b815260040160405180910390fd5b6001600160a01b03831660009081526020819052604081208054839290611169908490611e81565b90915550506001600160a01b03821660009081526020819052604081208054839290611196908490611e98565b92505081905550816001600160a01b0316836001600160a01b03167fddf252ad1be2c89b69c2b068fc378daa952ba7f163c4a11628f55a4df523b3ef836040516110f991815260200190565b6001600160a01b03821661120957604051630da30f6560e31b815260040160405180910390fd5b806002600082825461121b9190611e98565b90915550506001600160a01b03821660009081526020819052604081208054839290611248908490611e98565b90915550506040518181526001600160a01b038316906000907fddf252ad1be2c89b69c2b068fc378daa952ba7f163c4a11628f55a4df523b3ef906020015b60405180910390a35050565b306001600160a01b03166112dc85858080601f01602080910402602001604051908101604052809392919081815260200183838082843760009201919091525061173592505050565b6001600160a01b03161461132c577f03daa0914739c74a32f06993c062b0ec6a2c0b8a39b5a0b8bff2a12ef55b9dc58484868660405161131f9493929190611fe8565b60405180910390a1611349565b60008061133b838501856119d8565b9150915061090e82826111e2565b505050505050565b6001600160a01b03821661137857604051630da30f6560e31b815260040160405180910390fd5b6001600160a01b038216600090815260208190526040812080548392906113a0908490611e81565b9250508190555080600260008282546113b99190611e81565b90915550506040518181526000906001600160a01b038416907fddf252ad1be2c89b69c2b068fc378daa952ba7f163c4a11628f55a4df523b3ef90602001611287565b604051606082811b6bffffffffffffffffffffffff191660208301529060009060340160408051808303601f190181528282018252601083527f303132333435363738396162636465660000000000000000000000000000000060208401528151602a80825260608201909352909350600091602082018180368337019050509050600360fc1b8160008151811061149657611496612025565b60200101906001600160f81b031916908160001a905350600f60fb1b816001815181106114c5576114c5612025565b60200101906001600160f81b031916908160001a90535060005b6014811015611602578260048583815181106114fd576114fd612025565b016020015182516001600160f81b031990911690911c60f81c90811061152557611525612025565b01602001516001600160f81b0319168261154083600261203b565b61154b906002611e98565b8151811061155b5761155b612025565b60200101906001600160f81b031916908160001a9053508284828151811061158557611585612025565b602091010151815160f89190911c600f169081106115a5576115a5612025565b01602001516001600160f81b031916826115c083600261203b565b6115cb906003611e98565b815181106115db576115db612025565b60200101906001600160f81b031916908160001a9053506115fb8161205a565b90506114df565b50949350505050565b6001600160a01b03811661163257604051633649397d60e21b815260040160405180910390fd5b6040516001600160a01b038216907f04dba622d284ed0014ee4b9a6a68386be1a4c08a4913ae272de89199cc68616390600090a27f02016836a56b71f0d02689e69e326f4f4c1b9057164ef592671cf0d37c8040c05560007f9855384122b55936fbfb8ca5120e63c6537a1ac40caf6ae33502b3c5da8c87d155565b6000806116bd83850185612102565b91509150600380546116ce90611d76565b159050611707576040517f0dc149f000000000000000000000000000000000000000000000000000000000815260040160405180910390fd5b815161171a9060039060208501906118b4565b50805161172e9060049060208401906118b4565b5050505050565b6000808290506000808251602a14158061177557508260008151811061175d5761175d612025565b6020910101516001600160f81b031916600360fc1b14155b806117a657508260018151811061178e5761178e612025565b6020910101516001600160f81b031916600f60fb1b14155b156117c457604051636fa478cf60e11b815260040160405180910390fd5b60025b602a8110156118aa578381815181106117e2576117e2612025565b016020015160f81c915060618210801590611801575060668260ff1611155b1561181857611811605783612166565b9150611881565b60418260ff1610158015611830575060468260ff1611155b1561184057611811603783612166565b60308260ff1610158015611858575060398260ff1611155b1561186857611811603083612166565b604051636fa478cf60e11b815260040160405180910390fd5b600261188e826029611e81565b60ff8416911b1b92909217916118a38161205a565b90506117c7565b5090949350505050565b8280546118c090611d76565b90600052602060002090601f0160209004810192826118e25760008555611928565b82601f106118fb57805160ff1916838001178555611928565b82800160010185558215611928579182015b8281111561192857825182559160200191906001019061190d565b50611934929150611938565b5090565b5b808211156119345760008155600101611939565b60005b83811015611968578181015183820152602001611950565b83811115611977576000848401525b50505050565b6000815180845261199581602086016020860161194d565b601f01601f19169290920160200192915050565b6020815260006119bc602083018461197d565b9392505050565b6001600160a01b038116811461080557600080fd5b600080604083850312156119eb57600080fd5b82356119f6816119c3565b946020939093013593505050565b60008083601f840112611a1657600080fd5b50813567ffffffffffffffff811115611a2e57600080fd5b602083019150836020828501011115611a4657600080fd5b9250929050565b60008060008060008060008060008060c08b8d031215611a6c57600080fd5b8a35995060208b013567ffffffffffffffff80821115611a8b57600080fd5b611a978e838f01611a04565b909b50995060408d0135915080821115611ab057600080fd5b611abc8e838f01611a04565b909950975060608d0135915080821115611ad557600080fd5b611ae18e838f01611a04565b909750955060808d0135915080821115611afa57600080fd5b50611b078d828e01611a04565b9150809450508092505060a08b013590509295989b9194979a5092959850565b600080600060608486031215611b3c57600080fd5b8335611b47816119c3565b92506020840135611b57816119c3565b929592945050506040919091013590565b600060208284031215611b7a57600080fd5b5035919050565b60008060008060008060006080888a031215611b9c57600080fd5b87359650602088013567ffffffffffffffff80821115611bbb57600080fd5b611bc78b838c01611a04565b909850965060408a0135915080821115611be057600080fd5b611bec8b838c01611a04565b909650945060608a0135915080821115611c0557600080fd5b50611c128a828b01611a04565b989b979a50959850939692959293505050565b60008060008060608587031215611c3b57600080fd5b843567ffffffffffffffff811115611c5257600080fd5b611c5e87828801611a04565b9095509350506020850135611c72816119c3565b9396929550929360400135925050565b600060208284031215611c9457600080fd5b81356119bc816119c3565b60008060208385031215611cb257600080fd5b823567ffffffffffffffff811115611cc957600080fd5b611cd585828601611a04565b90969095509350505050565b60008060008060608587031215611cf757600080fd5b8435611d02816119c3565b935060208501359250604085013567ffffffffffffffff811115611d2557600080fd5b611d3187828801611a04565b95989497509550505050565b60008060408385031215611d5057600080fd5b8235611d5b816119c3565b91506020830135611d6b816119c3565b809150509250929050565b600181811c90821680611d8a57607f821691505b60208210811415611dab57634e487b7160e01b600052602260045260246000fd5b50919050565b8183823760009101908152919050565b81835281816020850137506000828201602090810191909152601f909101601f19169091010190565b89815260c060208201526000611e0460c083018a8c611dc1565b8281036040840152611e1781898b611dc1565b90508660608401528281036080840152611e32818688611dc1565b9150508260a08301529a9950505050505050505050565b600060208284031215611e5b57600080fd5b815180151581146119bc57600080fd5b634e487b7160e01b600052601160045260246000fd5b600082821015611e9357611e93611e6b565b500390565b60008219821115611eab57611eab611e6b565b500190565b868152608060208201526000611eca608083018789611dc1565b8281036040840152611edd818688611dc1565b915050826060830152979650505050505050565b60006001600160a01b03808916835260a06020840152611f1560a08401888a611dc1565b8381036040850152611f27818861197d565b90508381036060850152611f3b818761197d565b925050808416608084015250979650505050505050565b606081526000611f66606083018688611dc1565b8281036020840152611f78818661197d565b90508281036040840152611f8c818561197d565b979650505050505050565b600060208284031215611fa957600080fd5b5051919050565b602081526000611fc4602083018486611dc1565b949350505050565b60008251611fde81846020870161194d565b9190910192915050565b604081526000611ffc604083018688611dc1565b8281036020840152611f8c818587611dc1565b634e487b7160e01b600052604160045260246000fd5b634e487b7160e01b600052603260045260246000fd5b600081600019048311821515161561205557612055611e6b565b500290565b600060001982141561206e5761206e611e6b565b5060010190565b600082601f83011261208657600080fd5b813567ffffffffffffffff808211156120a1576120a161200f565b604051601f8301601f19908116603f011681019082821181831017156120c9576120c961200f565b816040528381528660208588010111156120e257600080fd5b836020870160208301376000602085830101528094505050505092915050565b6000806040838503121561211557600080fd5b823567ffffffffffffffff8082111561212d57600080fd5b61213986838701612075565b9350602085013591508082111561214f57600080fd5b5061215c85828601612075565b9150509250929050565b600060ff821660ff84168082101561218057612180611e6b565b9003939250505056fea26469706673582212205f030f5309ad7ef738063cf79ca34db616caa69f1b84aa316e5d542a237c02c264736f6c63430008090033",
  "linkReferences": {},
  "deployedLinkReferences": {}
}