{
  "_format": "hh-sol-artifact-1",
  "contractName": "AptosTokenLinker",
  "sourceName": "examples/aptos/token-linker/contracts/AptosTokenLinker.sol",
  "abi": [
    {
      "inputs": [
        {
          "internalType": "address",
          "name": "gatewayAddress_",
          "type": "address"
        },
        {
          "internalType": "address",
          "name": "gasServiceAddress_",
          "type": "address"
        },
        {
          "internalType": "address",
          "name": "tokenAddress_",
          "type": "address"
        },
        {
          "internalType": "string",
          "name": "aptosAddress_",
          "type": "string"
        },
        {
          "internalType": "uint256",
          "name": "ignoreDigits_",
          "type": "uint256"
        }
      ],
      "stateMutability": "nonpayable",
      "type": "constructor"
    },
    {
      "inputs": [],
      "name": "InvalidAddress",
      "type": "error"
    },
    {
      "inputs": [],
      "name": "InvalidSourceAddress",
      "type": "error"
    },
    {
      "inputs": [],
      "name": "InvalidSourceChain",
      "type": "error"
    },
    {
      "inputs": [],
      "name": "NotApprovedByGateway",
      "type": "error"
    },
    {
      "inputs": [],
      "name": "TokenLinkerZeroAddress",
      "type": "error"
    },
    {
      "inputs": [],
      "name": "TransferFailed",
      "type": "error"
    },
    {
      "inputs": [],
      "name": "TransferFromFailed",
      "type": "error"
    },
    {
      "anonymous": false,
      "inputs": [
        {
          "indexed": true,
          "internalType": "address",
          "name": "destinationAddress",
          "type": "address"
        },
        {
          "indexed": true,
          "internalType": "uint256",
          "name": "amount",
          "type": "uint256"
        }
      ],
      "name": "Receiving",
      "type": "event"
    },
    {
      "anonymous": false,
      "inputs": [
        {
          "indexed": true,
          "internalType": "bytes32",
          "name": "destinationAddress",
          "type": "bytes32"
        },
        {
          "indexed": true,
          "internalType": "uint256",
          "name": "amount",
          "type": "uint256"
        }
      ],
      "name": "Sending",
      "type": "event"
    },
    {
      "inputs": [],
      "name": "aptosAddress",
      "outputs": [
        {
          "internalType": "string",
          "name": "",
          "type": "string"
        }
      ],
      "stateMutability": "view",
      "type": "function"
    },
    {
      "inputs": [],
      "name": "aptosAddressHash",
      "outputs": [
        {
          "internalType": "bytes32",
          "name": "",
          "type": "bytes32"
        }
      ],
      "stateMutability": "view",
      "type": "function"
    },
    {
      "inputs": [],
      "name": "aptosChainNameHash",
      "outputs": [
        {
          "internalType": "bytes32",
          "name": "",
          "type": "bytes32"
        }
      ],
      "stateMutability": "view",
      "type": "function"
    },
    {
      "inputs": [
        {
          "internalType": "bytes32",
          "name": "commandId",
          "type": "bytes32"
        },
        {
          "internalType": "string",
          "name": "sourceChain",
          "type": "string"
        },
        {
          "internalType": "string",
          "name": "sourceAddress",
          "type": "string"
        },
        {
          "internalType": "bytes",
          "name": "payload",
          "type": "bytes"
        }
      ],
      "name": "execute",
      "outputs": [],
      "stateMutability": "nonpayable",
      "type": "function"
    },
    {
      "inputs": [
        {
          "internalType": "bytes32",
          "name": "commandId",
          "type": "bytes32"
        },
        {
          "internalType": "string",
          "name": "sourceChain",
          "type": "string"
        },
        {
          "internalType": "string",
          "name": "sourceAddress",
          "type": "string"
        },
        {
          "internalType": "bytes",
          "name": "payload",
          "type": "bytes"
        },
        {
          "internalType": "string",
          "name": "tokenSymbol",
          "type": "string"
        },
        {
          "internalType": "uint256",
          "name": "amount",
          "type": "uint256"
        }
      ],
      "name": "executeWithToken",
      "outputs": [],
      "stateMutability": "nonpayable",
      "type": "function"
    },
    {
      "inputs": [],
      "name": "gasService",
      "outputs": [
        {
          "internalType": "contract IAxelarGasService",
          "name": "",
          "type": "address"
        }
      ],
      "stateMutability": "view",
      "type": "function"
    },
    {
      "inputs": [],
      "name": "gateway",
      "outputs": [
        {
          "internalType": "contract IAxelarGateway",
          "name": "",
          "type": "address"
        }
      ],
      "stateMutability": "view",
      "type": "function"
    },
    {
      "inputs": [],
      "name": "ignoreDigits",
      "outputs": [
        {
          "internalType": "uint256",
          "name": "",
          "type": "uint256"
        }
      ],
      "stateMutability": "view",
      "type": "function"
    },
    {
      "inputs": [
        {
          "internalType": "bytes32",
          "name": "to",
          "type": "bytes32"
        },
        {
          "internalType": "uint256",
          "name": "amount",
          "type": "uint256"
        }
      ],
      "name": "sendToken",
      "outputs": [],
      "stateMutability": "payable",
      "type": "function"
    },
    {
      "inputs": [],
      "name": "tokenAddress",
      "outputs": [
        {
          "internalType": "address",
          "name": "",
          "type": "address"
        }
      ],
      "stateMutability": "view",
      "type": "function"
    }
  ],
  "bytecode": "0x6101406040527fca0cf00e96f2f0633dd2a80a53043ae4f518eff2ecc500a8d2a8b06808e98efe610100523480156200003757600080fd5b5060405162001720380380620017208339810160408190526200005a916200037e565b846001600160a01b038116620000835760405163e6c4247b60e01b815260040160405180910390fd5b6001600160a01b0390811660805285161580620000a757506001600160a01b038416155b80620000ba57506001600160a01b038316155b15620000d95760405163ba675fc760e01b815260040160405180910390fd5b6001600160a01b0380851660a052831660c05260408051808201909152600e8082526d1d1d3a37b5b2b72fb634b735b2b960911b6020830152835190600090620001249083620004b5565b6001600160401b038111156200013e576200013e62000368565b6040519080825280601f01601f19166020018201604052801562000169576020820181803683370190505b50905060005b82811015620001d9578581815181106200018d576200018d620004d0565b602001015160f81c60f81b828281518110620001ad57620001ad620004d0565b60200101906001600160f81b031916908160001a90535080620001d081620004e6565b9150506200016f565b5060005b83518110156200026f57838181518110620001fc57620001fc620004d0565b01602001517fff000000000000000000000000000000000000000000000000000000000000001682620002308584620004b5565b81518110620002435762000243620004d0565b60200101906001600160f81b031916908160001a905350806200026681620004e6565b915050620001dd565b50805162000285906000906020840190620002a5565b5050835160209094019390932060e0525061012052506200054192505050565b828054620002b39062000504565b90600052602060002090601f016020900481019282620002d7576000855562000322565b82601f10620002f257805160ff191683800117855562000322565b8280016001018555821562000322579182015b828111156200032257825182559160200191906001019062000305565b506200033092915062000334565b5090565b5b8082111562000330576000815560010162000335565b80516001600160a01b03811681146200036357600080fd5b919050565b634e487b7160e01b600052604160045260246000fd5b600080600080600060a086880312156200039757600080fd5b620003a2866200034b565b94506020620003b38188016200034b565b9450620003c3604088016200034b565b60608801519094506001600160401b0380821115620003e157600080fd5b818901915089601f830112620003f657600080fd5b8151818111156200040b576200040b62000368565b604051601f8201601f19908116603f0116810190838211818310171562000436576200043662000368565b816040528281528c868487010111156200044f57600080fd5b600093505b8284101562000473578484018601518185018701529285019262000454565b82841115620004855760008684830101525b809750505050505050608086015190509295509295909350565b634e487b7160e01b600052601160045260246000fd5b60008219821115620004cb57620004cb6200049f565b500190565b634e487b7160e01b600052603260045260246000fd5b6000600019821415620004fd57620004fd6200049f565b5060010190565b600181811c908216806200051957607f821691505b602082108114156200053b57634e487b7160e01b600052602260045260246000fd5b50919050565b60805160a05160c05160e051610100516101205161113c620005e46000396000818161026e015281816103a001526103cb01526000818161023a015261093a01526000818161014e01526108ca015260008181610206015281816107b80152818161086701528181610a830152610b320152600081816101d2015261045901526000818160c8015281816102da015281816104fa015261066e015261113c6000f3fe6080604052600436106100b15760003560e01c806349160658116100695780639d76ea581161004e5780639d76ea58146101f4578063b489c7de14610228578063c4fc76571461025c57600080fd5b806349160658146101a05780636a22d8cc146101c057600080fd5b806332933fed1161009a57806332933fed14610129578063415deb651461013c578063478ab2681461017e57600080fd5b8063116191b6146100b65780631a98b2e014610107575b600080fd5b3480156100c257600080fd5b506100ea7f000000000000000000000000000000000000000000000000000000000000000081565b6040516001600160a01b0390911681526020015b60405180910390f35b34801561011357600080fd5b50610127610122366004610bd5565b610290565b005b610127610137366004610caf565b61039b565b34801561014857600080fd5b506101707f000000000000000000000000000000000000000000000000000000000000000081565b6040519081526020016100fe565b34801561018a57600080fd5b50610193610596565b6040516100fe9190610d2d565b3480156101ac57600080fd5b506101276101bb366004610d47565b610624565b3480156101cc57600080fd5b506100ea7f000000000000000000000000000000000000000000000000000000000000000081565b34801561020057600080fd5b506100ea7f000000000000000000000000000000000000000000000000000000000000000081565b34801561023457600080fd5b506101707f000000000000000000000000000000000000000000000000000000000000000081565b34801561026857600080fd5b506101707f000000000000000000000000000000000000000000000000000000000000000081565b600085856040516102a2929190610deb565b6040519081900381207f1876eed900000000000000000000000000000000000000000000000000000000825291506001600160a01b037f00000000000000000000000000000000000000000000000000000000000000001690631876eed99061031f908e908e908e908e908e9089908d908d908d90600401610e24565b602060405180830381600087803b15801561033957600080fd5b505af115801561034d573d6000803e3d6000fd5b505050506040513d601f19601f820116820180604052508101906103719190610e83565b61038e57604051631403112d60e21b815260040160405180910390fd5b5050505050505050505050565b6103c67f00000000000000000000000000000000000000000000000000000000000000006008610ea5565b6103f17f00000000000000000000000000000000000000000000000000000000000000006008610ea5565b9190911c901b6104013382610734565b6040805160208101849052808201839052815180820383018152606090910190915234156104ca576040517f0c93e3bb0000000000000000000000000000000000000000000000000000000081526001600160a01b037f00000000000000000000000000000000000000000000000000000000000000001690630c93e3bb90349061049790309060009087903390600401610fad565b6000604051808303818588803b1580156104b057600080fd5b505af11580156104c4573d6000803e3d6000fd5b50505050505b6040517f1c92115f0000000000000000000000000000000000000000000000000000000081526001600160a01b037f00000000000000000000000000000000000000000000000000000000000000001690631c92115f9061053290600090859060040161101d565b600060405180830381600087803b15801561054c57600080fd5b505af1158015610560573d6000803e3d6000fd5b50506040518492508591507f9d1e25b4a6aa2d4b7213c0717db2aa6ca407d0f44c4ce1f99bbd2e07c069167690600090a3505050565b600080546105a390610ed2565b80601f01602080910402602001604051908101604052809291908181526020018280546105cf90610ed2565b801561061c5780601f106105f15761010080835404028352916020019161061c565b820191906000526020600020905b8154815290600101906020018083116105ff57829003601f168201915b505050505081565b60008282604051610636929190610deb565b6040519081900381207f5f6970c300000000000000000000000000000000000000000000000000000000825291506001600160a01b037f00000000000000000000000000000000000000000000000000000000000000001690635f6970c3906106ad908b908b908b908b908b908990600401611071565b602060405180830381600087803b1580156106c757600080fd5b505af11580156106db573d6000803e3d6000fd5b505050506040513d601f19601f820116820180604052508101906106ff9190610e83565b61071c57604051631403112d60e21b815260040160405180910390fd5b61072a8787878787876108c8565b5050505050505050565b604080516001600160a01b038481166024830152306044830152606480830185905283518084039091018152608490920183526020820180517bffffffffffffffffffffffffffffffffffffffffffffffffffffffff167f23b872dd00000000000000000000000000000000000000000000000000000000179052915160009283927f0000000000000000000000000000000000000000000000000000000000000000909116916107e591906110b2565b6000604051808303816000865af19150503d8060008114610822576040519150601f19603f3d011682016040523d82523d6000602084013e610827565b606091505b509150915060008280156108535750815115806108535750818060200190518101906108539190610e83565b905080158061088a57506001600160a01b037f0000000000000000000000000000000000000000000000000000000000000000163b155b156108c1576040517f7939f42400000000000000000000000000000000000000000000000000000000815260040160405180910390fd5b5050505050565b7f000000000000000000000000000000000000000000000000000000000000000084846040516108f9929190610deb565b604051809103902014610938576040517f31e7466800000000000000000000000000000000000000000000000000000000815260040160405180910390fd5b7f00000000000000000000000000000000000000000000000000000000000000008686604051610969929190610deb565b6040518091039020146109a8576040517f9284b19700000000000000000000000000000000000000000000000000000000815260040160405180910390fd5b6000806109b7838501856110ce565b915091506109c58282610a05565b60405181906001600160a01b038416907f7c689434bedaf72871fd778e5259daba90e26b33d73ac430b39b72eb4102aab490600090a35050505050505050565b604080516001600160a01b038481166024830152604480830185905283518084039091018152606490920183526020820180517bffffffffffffffffffffffffffffffffffffffffffffffffffffffff167fa9059cbb00000000000000000000000000000000000000000000000000000000179052915160009283927f000000000000000000000000000000000000000000000000000000000000000090911691610ab091906110b2565b6000604051808303816000865af19150503d8060008114610aed576040519150601f19603f3d011682016040523d82523d6000602084013e610af2565b606091505b50915091506000828015610b1e575081511580610b1e575081806020019051810190610b1e9190610e83565b9050801580610b5557506001600160a01b037f0000000000000000000000000000000000000000000000000000000000000000163b155b156108c1576040517f90b8ec1800000000000000000000000000000000000000000000000000000000815260040160405180910390fd5b60008083601f840112610b9e57600080fd5b50813567ffffffffffffffff811115610bb657600080fd5b602083019150836020828501011115610bce57600080fd5b9250929050565b60008060008060008060008060008060c08b8d031215610bf457600080fd5b8a35995060208b013567ffffffffffffffff80821115610c1357600080fd5b610c1f8e838f01610b8c565b909b50995060408d0135915080821115610c3857600080fd5b610c448e838f01610b8c565b909950975060608d0135915080821115610c5d57600080fd5b610c698e838f01610b8c565b909750955060808d0135915080821115610c8257600080fd5b50610c8f8d828e01610b8c565b9150809450508092505060a08b013590509295989b9194979a5092959850565b60008060408385031215610cc257600080fd5b50508035926020909101359150565b60005b83811015610cec578181015183820152602001610cd4565b83811115610cfb576000848401525b50505050565b60008151808452610d19816020860160208601610cd1565b601f01601f19169290920160200192915050565b602081526000610d406020830184610d01565b9392505050565b60008060008060008060006080888a031215610d6257600080fd5b87359650602088013567ffffffffffffffff80821115610d8157600080fd5b610d8d8b838c01610b8c565b909850965060408a0135915080821115610da657600080fd5b610db28b838c01610b8c565b909650945060608a0135915080821115610dcb57600080fd5b50610dd88a828b01610b8c565b989b979a50959850939692959293505050565b8183823760009101908152919050565b81835281816020850137506000828201602090810191909152601f909101601f19169091010190565b89815260c060208201526000610e3e60c083018a8c610dfb565b8281036040840152610e5181898b610dfb565b90508660608401528281036080840152610e6c818688610dfb565b9150508260a08301529a9950505050505050505050565b600060208284031215610e9557600080fd5b81518015158114610d4057600080fd5b6000816000190483118215151615610ecd57634e487b7160e01b600052601160045260246000fd5b500290565b600181811c90821680610ee657607f821691505b60208210811415610f0757634e487b7160e01b600052602260045260246000fd5b50919050565b8054600090600181811c9080831680610f2757607f831692505b6020808410821415610f4957634e487b7160e01b600052602260045260246000fd5b83885260208801828015610f645760018114610f7557610fa0565b60ff19871682528282019750610fa0565b60008981526020902060005b87811015610f9a57815484820152908601908401610f81565b83019850505b5050505050505092915050565b60006001600160a01b03808716835260a06020840152610fe260a0840160058152646170746f7360d81b602082015260400190565b8381036040850152610ff48188610f0d565b905083810360608501526110088187610d01565b92505080841660808401525095945050505050565b6060815260006110426060830160058152646170746f7360d81b602082015260400190565b82810360208401526110548186610f0d565b905082810360408401526110688185610d01565b95945050505050565b86815260806020820152600061108b608083018789610dfb565b828103604084015261109e818688610dfb565b915050826060830152979650505050505050565b600082516110c4818460208701610cd1565b9190910192915050565b600080604083850312156110e157600080fd5b82356001600160a01b03811681146110f857600080fd5b94602093909301359350505056fea2646970667358221220e5f404145c5a83d2c233899582199454cbd5697485653ceaff90900c82ec8dae64736f6c63430008090033",
  "linkReferences": {},
  "deployedLinkReferences": {}
}