{
  "_format": "hh-sol-artifact-1",
  "contractName": "SendAckReceiverImplementation",
  "sourceName": "examples/evm/send-ack/SendAckReceiverImplementation.sol",
  "abi": [
    {
      "inputs": [
        {
          "internalType": "address",
          "name": "gateway_",
          "type": "address"
        }
      ],
      "stateMutability": "nonpayable",
      "type": "constructor"
    },
    {
      "inputs": [],
      "name": "InvalidAddress",
      "type": "error"
    },
    {
      "inputs": [],
      "name": "NotApprovedByGateway",
      "type": "error"
    },
    {
      "inputs": [
        {
          "internalType": "bytes32",
          "name": "commandId",
          "type": "bytes32"
        },
        {
          "internalType": "string",
          "name": "sourceChain",
          "type": "string"
        },
        {
          "internalType": "string",
          "name": "sourceAddress",
          "type": "string"
        },
        {
          "internalType": "bytes",
          "name": "payload",
          "type": "bytes"
        }
      ],
      "name": "execute",
      "outputs": [],
      "stateMutability": "nonpayable",
      "type": "function"
    },
    {
      "inputs": [
        {
          "internalType": "bytes32",
          "name": "commandId",
          "type": "bytes32"
        },
        {
          "internalType": "string",
          "name": "sourceChain",
          "type": "string"
        },
        {
          "internalType": "string",
          "name": "sourceAddress",
          "type": "string"
        },
        {
          "internalType": "bytes",
          "name": "payload",
          "type": "bytes"
        },
        {
          "internalType": "string",
          "name": "tokenSymbol",
          "type": "string"
        },
        {
          "internalType": "uint256",
          "name": "amount",
          "type": "uint256"
        }
      ],
      "name": "executeWithToken",
      "outputs": [],
      "stateMutability": "nonpayable",
      "type": "function"
    },
    {
      "inputs": [],
      "name": "gateway",
      "outputs": [
        {
          "internalType": "contract IAxelarGateway",
          "name": "",
          "type": "address"
        }
      ],
      "stateMutability": "view",
      "type": "function"
    },
    {
      "inputs": [
        {
          "internalType": "uint256",
          "name": "",
          "type": "uint256"
        }
      ],
      "name": "messages",
      "outputs": [
        {
          "internalType": "string",
          "name": "",
          "type": "string"
        }
      ],
      "stateMutability": "view",
      "type": "function"
    },
    {
      "inputs": [],
      "name": "messagesLength",
      "outputs": [
        {
          "internalType": "uint256",
          "name": "",
          "type": "uint256"
        }
      ],
      "stateMutability": "view",
      "type": "function"
    }
  ],
  "bytecode": "0x60a060405234801561001057600080fd5b50604051610c76380380610c7683398101604081905261002f9161006c565b80806001600160a01b0381166100585760405163e6c4247b60e01b815260040160405180910390fd5b6001600160a01b03166080525061009c9050565b60006020828403121561007e57600080fd5b81516001600160a01b038116811461009557600080fd5b9392505050565b608051610bab6100cb60003960008181609a0152818161021d0152818161033501526104100152610bab6000f3fe608060405234801561001057600080fd5b50600436106100675760003560e01c80631a98b2e0116100505780631a98b2e0146100e157806349160658146100f6578063e11dba541461010957600080fd5b80630d80fefd1461006c578063116191b614610095575b600080fd5b61007f61007a366004610632565b61011a565b60405161008c91906106a7565b60405180910390f35b6100bc7f000000000000000000000000000000000000000000000000000000000000000081565b60405173ffffffffffffffffffffffffffffffffffffffff909116815260200161008c565b6100f46100ef36600461070a565b6101c6565b005b6100f46101043660046107e4565b6102de565b60005460405190815260200161008c565b6000818154811061012a57600080fd5b90600052602060002001600091509050805461014590610888565b80601f016020809104026020016040519081016040528092919081815260200182805461017190610888565b80156101be5780601f10610193576101008083540402835291602001916101be565b820191906000526020600020905b8154815290600101906020018083116101a157829003601f168201915b505050505081565b600085856040516101d89291906108c3565b6040519081900381207f1876eed9000000000000000000000000000000000000000000000000000000008252915073ffffffffffffffffffffffffffffffffffffffff7f00000000000000000000000000000000000000000000000000000000000000001690631876eed990610262908e908e908e908e908e9089908d908d908d906004016108fc565b602060405180830381600087803b15801561027c57600080fd5b505af1158015610290573d6000803e3d6000fd5b505050506040513d601f19601f820116820180604052508101906102b4919061095b565b6102d157604051631403112d60e21b815260040160405180910390fd5b5050505050505050505050565b600082826040516102f09291906108c3565b6040519081900381207f5f6970c3000000000000000000000000000000000000000000000000000000008252915073ffffffffffffffffffffffffffffffffffffffff7f00000000000000000000000000000000000000000000000000000000000000001690635f6970c390610374908b908b908b908b908b90899060040161097d565b602060405180830381600087803b15801561038e57600080fd5b505af11580156103a2573d6000803e3d6000fd5b505050506040513d601f19601f820116820180604052508101906103c6919061095b565b6103e357604051631403112d60e21b815260040160405180910390fd5b6103f18787878787876103fb565b5050505050505050565b60008061040a83850185610a2d565b915091507f000000000000000000000000000000000000000000000000000000000000000073ffffffffffffffffffffffffffffffffffffffff16631c92115f898989898760405160200161046191815260200190565b6040516020818303038152906040526040518663ffffffff1660e01b8152600401610490959493929190610ab7565b600060405180830381600087803b1580156104aa57600080fd5b505af11580156104be573d6000803e3d6000fd5b505050506103f188888080601f01602080910402602001604051908101604052809392919081815260200183838082843760009201919091525050604080516020601f8c018190048102820181019092528a815292508a9150899081908401838280828437600092019190915250869250610537915050565b60008180602001905181019061054d9190610afe565b600080546001810182559080528151919250610592917f290decd9548b62a8d60345a988386fc84ba6bc95484008f6362f93160ef3e563909101906020840190610599565b5050505050565b8280546105a590610888565b90600052602060002090601f0160209004810192826105c7576000855561060d565b82601f106105e057805160ff191683800117855561060d565b8280016001018555821561060d579182015b8281111561060d5782518255916020019190600101906105f2565b5061061992915061061d565b5090565b5b80821115610619576000815560010161061e565b60006020828403121561064457600080fd5b5035919050565b60005b8381101561066657818101518382015260200161064e565b83811115610675576000848401525b50505050565b6000815180845261069381602086016020860161064b565b601f01601f19169290920160200192915050565b6020815260006106ba602083018461067b565b9392505050565b60008083601f8401126106d357600080fd5b50813567ffffffffffffffff8111156106eb57600080fd5b60208301915083602082850101111561070357600080fd5b9250929050565b60008060008060008060008060008060c08b8d03121561072957600080fd5b8a35995060208b013567ffffffffffffffff8082111561074857600080fd5b6107548e838f016106c1565b909b50995060408d013591508082111561076d57600080fd5b6107798e838f016106c1565b909950975060608d013591508082111561079257600080fd5b61079e8e838f016106c1565b909750955060808d01359150808211156107b757600080fd5b506107c48d828e016106c1565b9150809450508092505060a08b013590509295989b9194979a5092959850565b60008060008060008060006080888a0312156107ff57600080fd5b87359650602088013567ffffffffffffffff8082111561081e57600080fd5b61082a8b838c016106c1565b909850965060408a013591508082111561084357600080fd5b61084f8b838c016106c1565b909650945060608a013591508082111561086857600080fd5b506108758a828b016106c1565b989b979a50959850939692959293505050565b600181811c9082168061089c57607f821691505b602082108114156108bd57634e487b7160e01b600052602260045260246000fd5b50919050565b8183823760009101908152919050565b81835281816020850137506000828201602090810191909152601f909101601f19169091010190565b89815260c06020820152600061091660c083018a8c6108d3565b828103604084015261092981898b6108d3565b905086606084015282810360808401526109448186886108d3565b9150508260a08301529a9950505050505050505050565b60006020828403121561096d57600080fd5b815180151581146106ba57600080fd5b8681526080602082015260006109976080830187896108d3565b82810360408401526109aa8186886108d3565b915050826060830152979650505050505050565b634e487b7160e01b600052604160045260246000fd5b604051601f8201601f1916810167ffffffffffffffff811182821017156109fd576109fd6109be565b604052919050565b600067ffffffffffffffff821115610a1f57610a1f6109be565b50601f01601f191660200190565b60008060408385031215610a4057600080fd5b82359150602083013567ffffffffffffffff811115610a5e57600080fd5b8301601f81018513610a6f57600080fd5b8035610a82610a7d82610a05565b6109d4565b818152866020838501011115610a9757600080fd5b816020840160208301376000602083830101528093505050509250929050565b606081526000610acb6060830187896108d3565b8281036020840152610ade8186886108d3565b90508281036040840152610af2818561067b565b98975050505050505050565b600060208284031215610b1057600080fd5b815167ffffffffffffffff811115610b2757600080fd5b8201601f81018413610b3857600080fd5b8051610b46610a7d82610a05565b818152856020838501011115610b5b57600080fd5b610b6c82602083016020860161064b565b9594505050505056fea2646970667358221220e9cbcd528f7d21548ee9a821d87bec7d67c5dfefc41a213aec0985c828774d5564736f6c63430008090033",
  "linkReferences": {},
  "deployedLinkReferences": {}
}