{
  "_format": "hh-sol-artifact-1",
  "contractName": "NftLinker",
  "sourceName": "examples/evm/nft-linker/NftLinker.sol",
  "abi": [
    {
      "inputs": [
        {
          "internalType": "address",
          "name": "gateway_",
          "type": "address"
        },
        {
          "internalType": "address",
          "name": "gasReceiver_",
          "type": "address"
        }
      ],
      "stateMutability": "nonpayable",
      "type": "constructor"
    },
    {
      "inputs": [],
      "name": "AlreadyInitialized",
      "type": "error"
    },
    {
      "inputs": [],
      "name": "InvalidAddress",
      "type": "error"
    },
    {
      "inputs": [],
      "name": "InvalidAddressString",
      "type": "error"
    },
    {
      "inputs": [],
      "name": "InvalidCodeHash",
      "type": "error"
    },
    {
      "inputs": [],
      "name": "InvalidImplementation",
      "type": "error"
    },
    {
      "inputs": [],
      "name": "InvalidOwner",
      "type": "error"
    },
    {
      "inputs": [],
      "name": "InvalidOwnerAddress",
      "type": "error"
    },
    {
      "inputs": [],
      "name": "NotApprovedByGateway",
      "type": "error"
    },
    {
      "inputs": [],
      "name": "NotOwner",
      "type": "error"
    },
    {
      "inputs": [],
      "name": "NotProxy",
      "type": "error"
    },
    {
      "inputs": [],
      "name": "SetupFailed",
      "type": "error"
    },
    {
      "anonymous": false,
      "inputs": [
        {
          "indexed": true,
          "internalType": "address",
          "name": "owner",
          "type": "address"
        },
        {
          "indexed": true,
          "internalType": "address",
          "name": "approved",
          "type": "address"
        },
        {
          "indexed": true,
          "internalType": "uint256",
          "name": "tokenId",
          "type": "uint256"
        }
      ],
      "name": "Approval",
      "type": "event"
    },
    {
      "anonymous": false,
      "inputs": [
        {
          "indexed": true,
          "internalType": "address",
          "name": "owner",
          "type": "address"
        },
        {
          "indexed": true,
          "internalType": "address",
          "name": "operator",
          "type": "address"
        },
        {
          "indexed": false,
          "internalType": "bool",
          "name": "approved",
          "type": "bool"
        }
      ],
      "name": "ApprovalForAll",
      "type": "event"
    },
    {
      "anonymous": false,
      "inputs": [
        {
          "indexed": true,
          "internalType": "address",
          "name": "newOwner",
          "type": "address"
        }
      ],
      "name": "OwnershipTransferStarted",
      "type": "event"
    },
    {
      "anonymous": false,
      "inputs": [
        {
          "indexed": true,
          "internalType": "address",
          "name": "newOwner",
          "type": "address"
        }
      ],
      "name": "OwnershipTransferred",
      "type": "event"
    },
    {
      "anonymous": false,
      "inputs": [
        {
          "indexed": true,
          "internalType": "address",
          "name": "from",
          "type": "address"
        },
        {
          "indexed": true,
          "internalType": "address",
          "name": "to",
          "type": "address"
        },
        {
          "indexed": true,
          "internalType": "uint256",
          "name": "tokenId",
          "type": "uint256"
        }
      ],
      "name": "Transfer",
      "type": "event"
    },
    {
      "anonymous": false,
      "inputs": [
        {
          "indexed": true,
          "internalType": "address",
          "name": "newImplementation",
          "type": "address"
        }
      ],
      "name": "Upgraded",
      "type": "event"
    },
    {
      "inputs": [],
      "name": "acceptOwnership",
      "outputs": [],
      "stateMutability": "nonpayable",
      "type": "function"
    },
    {
      "inputs": [
        {
          "internalType": "address",
          "name": "to",
          "type": "address"
        },
        {
          "internalType": "uint256",
          "name": "tokenId",
          "type": "uint256"
        }
      ],
      "name": "approve",
      "outputs": [],
      "stateMutability": "nonpayable",
      "type": "function"
    },
    {
      "inputs": [
        {
          "internalType": "address",
          "name": "owner",
          "type": "address"
        }
      ],
      "name": "balanceOf",
      "outputs": [
        {
          "internalType": "uint256",
          "name": "",
          "type": "uint256"
        }
      ],
      "stateMutability": "view",
      "type": "function"
    },
    {
      "inputs": [],
      "name": "chainName",
      "outputs": [
        {
          "internalType": "string",
          "name": "",
          "type": "string"
        }
      ],
      "stateMutability": "view",
      "type": "function"
    },
    {
      "inputs": [],
      "name": "contractId",
      "outputs": [
        {
          "internalType": "bytes32",
          "name": "",
          "type": "bytes32"
        }
      ],
      "stateMutability": "pure",
      "type": "function"
    },
    {
      "inputs": [
        {
          "internalType": "bytes32",
          "name": "commandId",
          "type": "bytes32"
        },
        {
          "internalType": "string",
          "name": "sourceChain",
          "type": "string"
        },
        {
          "internalType": "string",
          "name": "sourceAddress",
          "type": "string"
        },
        {
          "internalType": "bytes",
          "name": "payload",
          "type": "bytes"
        }
      ],
      "name": "execute",
      "outputs": [],
      "stateMutability": "nonpayable",
      "type": "function"
    },
    {
      "inputs": [
        {
          "internalType": "bytes32",
          "name": "commandId",
          "type": "bytes32"
        },
        {
          "internalType": "string",
          "name": "sourceChain",
          "type": "string"
        },
        {
          "internalType": "string",
          "name": "sourceAddress",
          "type": "string"
        },
        {
          "internalType": "bytes",
          "name": "payload",
          "type": "bytes"
        },
        {
          "internalType": "string",
          "name": "tokenSymbol",
          "type": "string"
        },
        {
          "internalType": "uint256",
          "name": "amount",
          "type": "uint256"
        }
      ],
      "name": "executeWithToken",
      "outputs": [],
      "stateMutability": "nonpayable",
      "type": "function"
    },
    {
      "inputs": [],
      "name": "gasService",
      "outputs": [
        {
          "internalType": "contract IAxelarGasService",
          "name": "",
          "type": "address"
        }
      ],
      "stateMutability": "view",
      "type": "function"
    },
    {
      "inputs": [],
      "name": "gateway",
      "outputs": [
        {
          "internalType": "contract IAxelarGateway",
          "name": "",
          "type": "address"
        }
      ],
      "stateMutability": "view",
      "type": "function"
    },
    {
      "inputs": [
        {
          "internalType": "uint256",
          "name": "tokenId",
          "type": "uint256"
        }
      ],
      "name": "getApproved",
      "outputs": [
        {
          "internalType": "address",
          "name": "",
          "type": "address"
        }
      ],
      "stateMutability": "view",
      "type": "function"
    },
    {
      "inputs": [],
      "name": "implementation",
      "outputs": [
        {
          "internalType": "address",
          "name": "implementation_",
          "type": "address"
        }
      ],
      "stateMutability": "view",
      "type": "function"
    },
    {
      "inputs": [
        {
          "internalType": "address",
          "name": "owner",
          "type": "address"
        },
        {
          "internalType": "address",
          "name": "operator",
          "type": "address"
        }
      ],
      "name": "isApprovedForAll",
      "outputs": [
        {
          "internalType": "bool",
          "name": "",
          "type": "bool"
        }
      ],
      "stateMutability": "view",
      "type": "function"
    },
    {
      "inputs": [],
      "name": "name",
      "outputs": [
        {
          "internalType": "string",
          "name": "",
          "type": "string"
        }
      ],
      "stateMutability": "view",
      "type": "function"
    },
    {
      "inputs": [
        {
          "internalType": "uint256",
          "name": "",
          "type": "uint256"
        }
      ],
      "name": "original",
      "outputs": [
        {
          "internalType": "bytes",
          "name": "",
          "type": "bytes"
        }
      ],
      "stateMutability": "view",
      "type": "function"
    },
    {
      "inputs": [],
      "name": "owner",
      "outputs": [
        {
          "internalType": "address",
          "name": "owner_",
          "type": "address"
        }
      ],
      "stateMutability": "view",
      "type": "function"
    },
    {
      "inputs": [
        {
          "internalType": "uint256",
          "name": "tokenId",
          "type": "uint256"
        }
      ],
      "name": "ownerOf",
      "outputs": [
        {
          "internalType": "address",
          "name": "",
          "type": "address"
        }
      ],
      "stateMutability": "view",
      "type": "function"
    },
    {
      "inputs": [],
      "name": "pendingOwner",
      "outputs": [
        {
          "internalType": "address",
          "name": "owner_",
          "type": "address"
        }
      ],
      "stateMutability": "view",
      "type": "function"
    },
    {
      "inputs": [
        {
          "internalType": "address",
          "name": "newOwner",
          "type": "address"
        }
      ],
      "name": "proposeOwnership",
      "outputs": [],
      "stateMutability": "nonpayable",
      "type": "function"
    },
    {
      "inputs": [
        {
          "internalType": "address",
          "name": "from",
          "type": "address"
        },
        {
          "internalType": "address",
          "name": "to",
          "type": "address"
        },
        {
          "internalType": "uint256",
          "name": "tokenId",
          "type": "uint256"
        }
      ],
      "name": "safeTransferFrom",
      "outputs": [],
      "stateMutability": "nonpayable",
      "type": "function"
    },
    {
      "inputs": [
        {
          "internalType": "address",
          "name": "from",
          "type": "address"
        },
        {
          "internalType": "address",
          "name": "to",
          "type": "address"
        },
        {
          "internalType": "uint256",
          "name": "tokenId",
          "type": "uint256"
        },
        {
          "internalType": "bytes",
          "name": "data",
          "type": "bytes"
        }
      ],
      "name": "safeTransferFrom",
      "outputs": [],
      "stateMutability": "nonpayable",
      "type": "function"
    },
    {
      "inputs": [
        {
          "internalType": "address",
          "name": "operator",
          "type": "address"
        },
        {
          "internalType": "uint256",
          "name": "tokenId",
          "type": "uint256"
        },
        {
          "internalType": "string",
          "name": "destinationChain",
          "type": "string"
        },
        {
          "internalType": "address",
          "name": "destinationAddress",
          "type": "address"
        }
      ],
      "name": "sendNFT",
      "outputs": [],
      "stateMutability": "payable",
      "type": "function"
    },
    {
      "inputs": [
        {
          "internalType": "address",
          "name": "operator",
          "type": "address"
        },
        {
          "internalType": "bool",
          "name": "approved",
          "type": "bool"
        }
      ],
      "name": "setApprovalForAll",
      "outputs": [],
      "stateMutability": "nonpayable",
      "type": "function"
    },
    {
      "inputs": [
        {
          "internalType": "bytes",
          "name": "data",
          "type": "bytes"
        }
      ],
      "name": "setup",
      "outputs": [],
      "stateMutability": "nonpayable",
      "type": "function"
    },
    {
      "inputs": [
        {
          "internalType": "bytes4",
          "name": "interfaceId",
          "type": "bytes4"
        }
      ],
      "name": "supportsInterface",
      "outputs": [
        {
          "internalType": "bool",
          "name": "",
          "type": "bool"
        }
      ],
      "stateMutability": "view",
      "type": "function"
    },
    {
      "inputs": [],
      "name": "symbol",
      "outputs": [
        {
          "internalType": "string",
          "name": "",
          "type": "string"
        }
      ],
      "stateMutability": "view",
      "type": "function"
    },
    {
      "inputs": [
        {
          "internalType": "uint256",
          "name": "tokenId",
          "type": "uint256"
        }
      ],
      "name": "tokenURI",
      "outputs": [
        {
          "internalType": "string",
          "name": "",
          "type": "string"
        }
      ],
      "stateMutability": "view",
      "type": "function"
    },
    {
      "inputs": [
        {
          "internalType": "address",
          "name": "from",
          "type": "address"
        },
        {
          "internalType": "address",
          "name": "to",
          "type": "address"
        },
        {
          "internalType": "uint256",
          "name": "tokenId",
          "type": "uint256"
        }
      ],
      "name": "transferFrom",
      "outputs": [],
      "stateMutability": "nonpayable",
      "type": "function"
    },
    {
      "inputs": [
        {
          "internalType": "address",
          "name": "newOwner",
          "type": "address"
        }
      ],
      "name": "transferOwnership",
      "outputs": [],
      "stateMutability": "nonpayable",
      "type": "function"
    },
    {
      "inputs": [
        {
          "internalType": "address",
          "name": "newImplementation",
          "type": "address"
        },
        {
          "internalType": "bytes32",
          "name": "newImplementationCodeHash",
          "type": "bytes32"
        },
        {
          "internalType": "bytes",
          "name": "params",
          "type": "bytes"
        }
      ],
      "name": "upgrade",
      "outputs": [],
      "stateMutability": "nonpayable",
      "type": "function"
    }
  ],
  "bytecode": "0x60e06040523480156200001157600080fd5b506040516200381438038062003814833981016040819052620000349162000264565b604080518082018252601181527020bc32b630b91027232a102634b735b2b960791b60208083019182528351808501909452600384526210539360ea1b90840152815160019386939290916200008d91600091620001a1565b508051620000a3906001906020840190620001a1565b5050506001600160a01b038116620000ce5760405163e6c4247b60e01b815260040160405180910390fd5b6001600160a01b0316608052620000e581620000fd565b503060a0526001600160a01b031660c05250620002d9565b6001600160a01b0381166200012557604051633649397d60e21b815260040160405180910390fd5b6040516001600160a01b038216907f04dba622d284ed0014ee4b9a6a68386be1a4c08a4913ae272de89199cc68616390600090a27f02016836a56b71f0d02689e69e326f4f4c1b9057164ef592671cf0d37c8040c05560007f9855384122b55936fbfb8ca5120e63c6537a1ac40caf6ae33502b3c5da8c87d155565b828054620001af906200029c565b90600052602060002090601f016020900481019282620001d357600085556200021e565b82601f10620001ee57805160ff19168380011785556200021e565b828001600101855582156200021e579182015b828111156200021e57825182559160200191906001019062000201565b506200022c92915062000230565b5090565b5b808211156200022c576000815560010162000231565b80516001600160a01b03811681146200025f57600080fd5b919050565b600080604083850312156200027857600080fd5b620002838362000247565b9150620002936020840162000247565b90509250929050565b600181811c90821680620002b157607f821691505b60208210811415620002d357634e487b7160e01b600052602260045260246000fd5b50919050565b60805160a05160c0516134e162000333600039600081816103a701528181611ae00152611c1e01526000610f6401526000818161028a015281816108ef01528181610b1a01528181611b790152611cb701526134e16000f3fe6080604052600436106101c25760003560e01c8063710bf322116100f75780639ded06df11610095578063c87b56dd11610064578063c87b56dd1461055b578063e30c39781461057b578063e985e9c5146105af578063f2fde38b146105f857600080fd5b80639ded06df146104db578063a22cb465146104fb578063a3499c731461051b578063b88d4fde1461053b57600080fd5b80638291286c116100d15780638291286c1461044c5780638da5cb5b1461047f57806393349876146104b357806395d89b41146104c657600080fd5b8063710bf322146103f7578063717eb03f1461041757806379ba50971461043757600080fd5b806323b872dd116101645780635c60da1b1161013e5780635c60da1b146103415780636352211e146103755780636a22d8cc1461039557806370a08231146103c957600080fd5b806323b872dd146102e157806342842e0e14610301578063491606581461032157600080fd5b8063095ea7b3116101a0578063095ea7b314610256578063116191b6146102785780631a98b2e0146102ac5780631c93b03a146102cc57600080fd5b806301ffc9a7146101c757806306fdde03146101fc578063081812fc1461021e575b600080fd5b3480156101d357600080fd5b506101e76101e23660046128ca565b610618565b60405190151581526020015b60405180910390f35b34801561020857600080fd5b506102116106b5565b6040516101f3919061293f565b34801561022a57600080fd5b5061023e610239366004612952565b610747565b6040516001600160a01b0390911681526020016101f3565b34801561026257600080fd5b50610276610271366004612980565b61076e565b005b34801561028457600080fd5b5061023e7f000000000000000000000000000000000000000000000000000000000000000081565b3480156102b857600080fd5b506102766102c73660046129f5565b6108a5565b3480156102d857600080fd5b506102116109b0565b3480156102ed57600080fd5b506102766102fc366004612acf565b610a3e565b34801561030d57600080fd5b5061027661031c366004612acf565b610ab5565b34801561032d57600080fd5b5061027661033c366004612b10565b610ad0565b34801561034d57600080fd5b507f360894a13ba1a3210667c828492db98dca3e2076cc3735a920a3ca505d382bbc5461023e565b34801561038157600080fd5b5061023e610390366004612952565b610be0565b3480156103a157600080fd5b5061023e7f000000000000000000000000000000000000000000000000000000000000000081565b3480156103d557600080fd5b506103e96103e4366004612bb4565b610c45565b6040519081526020016101f3565b34801561040357600080fd5b50610276610412366004612bb4565b610cdf565b34801561042357600080fd5b50610211610432366004612952565b610dae565b34801561044357600080fd5b50610276610dc7565b34801561045857600080fd5b507f6fd43e7cffc31bb581d7421c8698e29aa2bd8e7186a394b85299908b4eb9b1756103e9565b34801561048b57600080fd5b507f02016836a56b71f0d02689e69e326f4f4c1b9057164ef592671cf0d37c8040c05461023e565b6102766104c1366004612c9e565b610e41565b3480156104d257600080fd5b50610211610f4a565b3480156104e757600080fd5b506102766104f6366004612d0a565b610f59565b34801561050757600080fd5b50610276610516366004612d5a565b610fca565b34801561052757600080fd5b50610276610536366004612d93565b610fd5565b34801561054757600080fd5b50610276610556366004612def565b6112d9565b34801561056757600080fd5b50610211610576366004612952565b611351565b34801561058757600080fd5b507f9855384122b55936fbfb8ca5120e63c6537a1ac40caf6ae33502b3c5da8c87d15461023e565b3480156105bb57600080fd5b506101e76105ca366004612e6f565b6001600160a01b03918216600090815260056020908152604080832093909416825291909152205460ff1690565b34801561060457600080fd5b50610276610613366004612bb4565b6113c5565b60006001600160e01b031982167f80ac58cd00000000000000000000000000000000000000000000000000000000148061067b57506001600160e01b031982167f5b5e139f00000000000000000000000000000000000000000000000000000000145b806106af57507f01ffc9a7000000000000000000000000000000000000000000000000000000006001600160e01b03198316145b92915050565b6060600080546106c490612e9d565b80601f01602080910402602001604051908101604052809291908181526020018280546106f090612e9d565b801561073d5780601f106107125761010080835404028352916020019161073d565b820191906000526020600020905b81548152906001019060200180831161072057829003601f168201915b5050505050905090565b600061075282611415565b506000908152600460205260409020546001600160a01b031690565b600061077982610be0565b9050806001600160a01b0316836001600160a01b031614156108085760405162461bcd60e51b815260206004820152602160248201527f4552433732313a20617070726f76616c20746f2063757272656e74206f776e6560448201527f720000000000000000000000000000000000000000000000000000000000000060648201526084015b60405180910390fd5b336001600160a01b0382161480610824575061082481336105ca565b6108965760405162461bcd60e51b815260206004820152603d60248201527f4552433732313a20617070726f76652063616c6c6572206973206e6f7420746f60448201527f6b656e206f776e6572206f7220617070726f76656420666f7220616c6c00000060648201526084016107ff565b6108a08383611479565b505050565b600085856040516108b7929190612ed8565b6040519081900381207f1876eed900000000000000000000000000000000000000000000000000000000825291506001600160a01b037f00000000000000000000000000000000000000000000000000000000000000001690631876eed990610934908e908e908e908e908e9089908d908d908d90600401612f11565b602060405180830381600087803b15801561094e57600080fd5b505af1158015610962573d6000803e3d6000fd5b505050506040513d601f19601f820116820180604052508101906109869190612f70565b6109a357604051631403112d60e21b815260040160405180910390fd5b5050505050505050505050565b600780546109bd90612e9d565b80601f01602080910402602001604051908101604052809291908181526020018280546109e990612e9d565b8015610a365780601f10610a0b57610100808354040283529160200191610a36565b820191906000526020600020905b815481529060010190602001808311610a1957829003601f168201915b505050505081565b610a4833826114f4565b610aaa5760405162461bcd60e51b815260206004820152602d60248201527f4552433732313a2063616c6c6572206973206e6f7420746f6b656e206f776e6560448201526c1c881bdc88185c1c1c9bdd9959609a1b60648201526084016107ff565b6108a0838383611573565b6108a0838383604051806020016040528060008152506112d9565b60008282604051610ae2929190612ed8565b6040519081900381207f5f6970c300000000000000000000000000000000000000000000000000000000825291506001600160a01b037f00000000000000000000000000000000000000000000000000000000000000001690635f6970c390610b59908b908b908b908b908b908990600401612f8d565b602060405180830381600087803b158015610b7357600080fd5b505af1158015610b87573d6000803e3d6000fd5b505050506040513d601f19601f82011682018060405250810190610bab9190612f70565b610bc857604051631403112d60e21b815260040160405180910390fd5b610bd6878787878787611779565b5050505050505050565b6000818152600260205260408120546001600160a01b0316806106af5760405162461bcd60e51b815260206004820152601860248201527f4552433732313a20696e76616c696420746f6b656e204944000000000000000060448201526064016107ff565b60006001600160a01b038216610cc35760405162461bcd60e51b815260206004820152602960248201527f4552433732313a2061646472657373207a65726f206973206e6f74206120766160448201527f6c6964206f776e6572000000000000000000000000000000000000000000000060648201526084016107ff565b506001600160a01b031660009081526003602052604090205490565b33610d087f02016836a56b71f0d02689e69e326f4f4c1b9057164ef592671cf0d37c8040c05490565b6001600160a01b031614610d2f576040516330cd747160e01b815260040160405180910390fd5b6001600160a01b038116610d5657604051633649397d60e21b815260040160405180910390fd5b6040516001600160a01b038216907fd9be0e8e07417e00f2521db636cb53e316fd288f5051f16d2aa2bf0c3938a87690600090a27f9855384122b55936fbfb8ca5120e63c6537a1ac40caf6ae33502b3c5da8c87d155565b600660205260009081526040902080546109bd90612e9d565b6000610df17f9855384122b55936fbfb8ca5120e63c6537a1ac40caf6ae33502b3c5da8c87d15490565b90506001600160a01b0381163314610e35576040517f49e27cff00000000000000000000000000000000000000000000000000000000815260040160405180910390fd5b610e3e81611946565b50565b6001600160a01b038416301415610ec25733610e5c84610be0565b6001600160a01b031614610eb25760405162461bcd60e51b815260206004820152600e60248201527f4e4f545f594f55525f544f4b454e00000000000000000000000000000000000060448201526064016107ff565b610ebd8383836119e9565b610f44565b6001600160a01b0384166323b872dd336040516001600160e01b031960e084901b1681526001600160a01b03909116600482015230602482015260448101869052606401600060405180830381600087803b158015610f2057600080fd5b505af1158015610f34573d6000803e3d6000fd5b50505050610f4484848484611be3565b50505050565b6060600180546106c490612e9d565b306001600160a01b037f0000000000000000000000000000000000000000000000000000000000000000161415610fbc576040517fbf10dd3a00000000000000000000000000000000000000000000000000000000815260040160405180910390fd5b610fc68282611d21565b5050565b610fc6338383611d8a565b33610ffe7f02016836a56b71f0d02689e69e326f4f4c1b9057164ef592671cf0d37c8040c05490565b6001600160a01b031614611025576040516330cd747160e01b815260040160405180910390fd5b306001600160a01b0316638291286c6040518163ffffffff1660e01b815260040160206040518083038186803b15801561105e57600080fd5b505afa158015611072573d6000803e3d6000fd5b505050506040513d601f19601f820116820180604052508101906110969190612fce565b846001600160a01b0316638291286c6040518163ffffffff1660e01b815260040160206040518083038186803b1580156110cf57600080fd5b505afa1580156110e3573d6000803e3d6000fd5b505050506040513d601f19601f820116820180604052508101906111079190612fce565b1461113e576040517f68155f9a00000000000000000000000000000000000000000000000000000000815260040160405180910390fd5b836001600160a01b03163f8314611181576040517f8f84fb2400000000000000000000000000000000000000000000000000000000815260040160405180910390fd5b6040516001600160a01b038516907fbc7cd75a20ee27fd9adebab32041f755214dbc6bffa90cc0225b39da2e5c2d3b90600090a280156112b2576000846001600160a01b0316639ded06df60e01b84846040516024016111e2929190612fe7565b60408051601f198184030181529181526020820180517bffffffffffffffffffffffffffffffffffffffffffffffffffffffff166001600160e01b03199094169390931790925290516112359190612ffb565b600060405180830381855af49150503d8060008114611270576040519150601f19603f3d011682016040523d82523d6000602084013e611275565b606091505b50509050806112b0576040517f97905dfb00000000000000000000000000000000000000000000000000000000815260040160405180910390fd5b505b5050507f360894a13ba1a3210667c828492db98dca3e2076cc3735a920a3ca505d382bbc55565b6112e333836114f4565b6113455760405162461bcd60e51b815260206004820152602d60248201527f4552433732313a2063616c6c6572206973206e6f7420746f6b656e206f776e6560448201526c1c881bdc88185c1c1c9bdd9959609a1b60648201526084016107ff565b610f4484848484611e59565b606061135c82611415565b600061137360408051602081019091526000815290565b9050600081511161139357604051806020016040528060008152506113be565b8061139d84611ed7565b6040516020016113ae929190613017565b6040516020818303038152906040525b9392505050565b336113ee7f02016836a56b71f0d02689e69e326f4f4c1b9057164ef592671cf0d37c8040c05490565b6001600160a01b031614610e35576040516330cd747160e01b815260040160405180910390fd5b6000818152600260205260409020546001600160a01b0316610e3e5760405162461bcd60e51b815260206004820152601860248201527f4552433732313a20696e76616c696420746f6b656e204944000000000000000060448201526064016107ff565b6000818152600460205260409020805473ffffffffffffffffffffffffffffffffffffffff19166001600160a01b03841690811790915581906114bb82610be0565b6001600160a01b03167f8c5be1e5ebec7d5bd14f71427d1e84f3dd0314c0f7b2291e5b200ac8c7c3b92560405160405180910390a45050565b60008061150083610be0565b9050806001600160a01b0316846001600160a01b0316148061154757506001600160a01b0380821660009081526005602090815260408083209388168352929052205460ff165b8061156b5750836001600160a01b031661156084610747565b6001600160a01b0316145b949350505050565b826001600160a01b031661158682610be0565b6001600160a01b0316146115ea5760405162461bcd60e51b815260206004820152602560248201527f4552433732313a207472616e736665722066726f6d20696e636f72726563742060448201526437bbb732b960d91b60648201526084016107ff565b6001600160a01b0382166116655760405162461bcd60e51b8152602060048201526024808201527f4552433732313a207472616e7366657220746f20746865207a65726f2061646460448201527f726573730000000000000000000000000000000000000000000000000000000060648201526084016107ff565b826001600160a01b031661167882610be0565b6001600160a01b0316146116dc5760405162461bcd60e51b815260206004820152602560248201527f4552433732313a207472616e736665722066726f6d20696e636f72726563742060448201526437bbb732b960d91b60648201526084016107ff565b6000818152600460209081526040808320805473ffffffffffffffffffffffffffffffffffffffff199081169091556001600160a01b0387811680865260038552838620805460001901905590871680865283862080546001019055868652600290945282852080549092168417909155905184937fddf252ad1be2c89b69c2b068fc378daa952ba7f163c4a11628f55a4df523b3ef91a4505050565b306001600160a01b03166117c285858080601f016020809104026020016040519081016040528093929190818152602001838380828437600092019190915250611f8192505050565b6001600160a01b0316146118185760405162461bcd60e51b815260206004820152600c60248201527f4e4f545f415f4c494e4b4552000000000000000000000000000000000000000060448201526064016107ff565b600080808061182985870187613046565b9350935093509350600760405161184091906130a7565b6040518091039020848051906020012014156118dc576040517f23b872dd0000000000000000000000000000000000000000000000000000000081523060048201526001600160a01b038281166024830152604482018490528416906323b872dd90606401600060405180830381600087803b1580156118bf57600080fd5b505af11580156118d3573d6000803e3d6000fd5b5050505061193a565b60008484846040516020016118f393929190613119565b60408051601f1981840301815291815281516020808401918220600081815260069092529290208351939450919261192c92919061281b565b506119378382612100565b50505b50505050505050505050565b6001600160a01b03811661196d57604051633649397d60e21b815260040160405180910390fd5b6040516001600160a01b038216907f04dba622d284ed0014ee4b9a6a68386be1a4c08a4913ae272de89199cc68616390600090a27f02016836a56b71f0d02689e69e326f4f4c1b9057164ef592671cf0d37c8040c05560007f9855384122b55936fbfb8ca5120e63c6537a1ac40caf6ae33502b3c5da8c87d155565b6119f28361211a565b6000838152600660205260408120805482918291611a0f90612e9d565b80601f0160208091040260200160405190810160405280929190818152602001828054611a3b90612e9d565b8015611a885780601f10611a5d57610100808354040283529160200191611a88565b820191906000526020600020905b815481529060010190602001808311611a6b57829003601f168201915b5050505050806020019051810190611aa09190613147565b925092509250600083838387604051602001611abf94939291906131de565b60408051601f1981840301815291905290506000611adc306121bc565b90507f00000000000000000000000000000000000000000000000000000000000000006001600160a01b0316630c93e3bb34308a8587336040518763ffffffff1660e01b8152600401611b3395949392919061321a565b6000604051808303818588803b158015611b4c57600080fd5b505af1158015611b60573d6000803e3d6000fd5b5050604051631c92115f60e01b81526001600160a01b037f0000000000000000000000000000000000000000000000000000000000000000169350631c92115f9250611bb591508a9085908790600401613279565b600060405180830381600087803b158015611bcf57600080fd5b505af1158015611937573d6000803e3d6000fd5b60006007858584604051602001611bfd94939291906132bc565b60408051601f1981840301815291905290506000611c1a306121bc565b90507f00000000000000000000000000000000000000000000000000000000000000006001600160a01b0316630c93e3bb3430878587336040518763ffffffff1660e01b8152600401611c7195949392919061321a565b6000604051808303818588803b158015611c8a57600080fd5b505af1158015611c9e573d6000803e3d6000fd5b5050604051631c92115f60e01b81526001600160a01b037f0000000000000000000000000000000000000000000000000000000000000000169350631c92115f9250611cf39150879085908790600401613279565b600060405180830381600087803b158015611d0d57600080fd5b505af115801561193a573d6000803e3d6000fd5b6000611d2f8284018461336f565b905060078054611d3e90612e9d565b159050611d77576040517f0dc149f000000000000000000000000000000000000000000000000000000000815260040160405180910390fd5b8051610f4490600790602084019061281b565b816001600160a01b0316836001600160a01b03161415611dec5760405162461bcd60e51b815260206004820152601960248201527f4552433732313a20617070726f766520746f2063616c6c65720000000000000060448201526064016107ff565b6001600160a01b03838116600081815260056020908152604080832094871680845294825291829020805460ff191686151590811790915591519182527f17307eab39ab6107e8899845ad3d59bd9653f200f220920489ca2b5937696c31910160405180910390a3505050565b611e64848484611573565b611e70848484846123cb565b610f445760405162461bcd60e51b815260206004820152603260248201527f4552433732313a207472616e7366657220746f206e6f6e20455243373231526560448201527131b2b4bb32b91034b6b83632b6b2b73a32b960711b60648201526084016107ff565b60606000611ee483612523565b600101905060008167ffffffffffffffff811115611f0457611f04612bd1565b6040519080825280601f01601f191660200182016040528015611f2e576020820181803683370190505b5090508181016020015b600019017f3031323334353637383961626364656600000000000000000000000000000000600a86061a8153600a8504945084611f7457611f79565b611f38565b509392505050565b6000808290506000808251602a141580611fc1575082600081518110611fa957611fa96133a4565b6020910101516001600160f81b031916600360fc1b14155b80611ff2575082600181518110611fda57611fda6133a4565b6020910101516001600160f81b031916600f60fb1b14155b1561201057604051636fa478cf60e11b815260040160405180910390fd5b60025b602a8110156120f65783818151811061202e5761202e6133a4565b016020015160f81c91506061821080159061204d575060668260ff1611155b156120645761205d6057836133d0565b91506120cd565b60418260ff161015801561207c575060468260ff1611155b1561208c5761205d6037836133d0565b60308260ff16101580156120a4575060398260ff1611155b156120b45761205d6030836133d0565b604051636fa478cf60e11b815260040160405180910390fd5b60026120da8260296133f3565b60ff8416911b1b92909217916120ef8161340a565b9050612013565b5090949350505050565b610fc6828260405180602001604052806000815250612605565b600061212582610be0565b905061213082610be0565b6000838152600460209081526040808320805473ffffffffffffffffffffffffffffffffffffffff199081169091556001600160a01b0385168085526003845282852080546000190190558785526002909352818420805490911690555192935084927fddf252ad1be2c89b69c2b068fc378daa952ba7f163c4a11628f55a4df523b3ef908390a45050565b604051606082811b6bffffffffffffffffffffffff191660208301529060009060340160408051808303601f190181528282018252601083527f303132333435363738396162636465660000000000000000000000000000000060208401528151602a80825260608201909352909350600091602082018180368337019050509050600360fc1b81600081518110612256576122566133a4565b60200101906001600160f81b031916908160001a905350600f60fb1b81600181518110612285576122856133a4565b60200101906001600160f81b031916908160001a90535060005b60148110156123c2578260048583815181106122bd576122bd6133a4565b016020015182516001600160f81b031990911690911c60f81c9081106122e5576122e56133a4565b01602001516001600160f81b03191682612300836002613425565b61230b906002613444565b8151811061231b5761231b6133a4565b60200101906001600160f81b031916908160001a90535082848281518110612345576123456133a4565b602091010151815160f89190911c600f16908110612365576123656133a4565b01602001516001600160f81b03191682612380836002613425565b61238b906003613444565b8151811061239b5761239b6133a4565b60200101906001600160f81b031916908160001a9053506123bb8161340a565b905061229f565b50949350505050565b60006001600160a01b0384163b1561251857604051630a85bd0160e11b81526001600160a01b0385169063150b7a029061240f90339089908890889060040161345c565b602060405180830381600087803b15801561242957600080fd5b505af1925050508015612459575060408051601f3d908101601f191682019092526124569181019061348e565b60015b6124fe573d808015612487576040519150601f19603f3d011682016040523d82523d6000602084013e61248c565b606091505b5080516124f65760405162461bcd60e51b815260206004820152603260248201527f4552433732313a207472616e7366657220746f206e6f6e20455243373231526560448201527131b2b4bb32b91034b6b83632b6b2b73a32b960711b60648201526084016107ff565b805181602001fd5b6001600160e01b031916630a85bd0160e11b14905061156b565b506001949350505050565b6000807a184f03e93ff9f4daa797ed6e38ed64bf6a1f010000000000000000831061256c577a184f03e93ff9f4daa797ed6e38ed64bf6a1f010000000000000000830492506040015b6d04ee2d6d415b85acef81000000008310612598576d04ee2d6d415b85acef8100000000830492506020015b662386f26fc1000083106125b657662386f26fc10000830492506010015b6305f5e10083106125ce576305f5e100830492506008015b61271083106125e257612710830492506004015b606483106125f4576064830492506002015b600a83106106af5760010192915050565b61260f8383612683565b61261c60008484846123cb565b6108a05760405162461bcd60e51b815260206004820152603260248201527f4552433732313a207472616e7366657220746f206e6f6e20455243373231526560448201527131b2b4bb32b91034b6b83632b6b2b73a32b960711b60648201526084016107ff565b6001600160a01b0382166126d95760405162461bcd60e51b815260206004820181905260248201527f4552433732313a206d696e7420746f20746865207a65726f206164647265737360448201526064016107ff565b6000818152600260205260409020546001600160a01b03161561273e5760405162461bcd60e51b815260206004820152601c60248201527f4552433732313a20746f6b656e20616c7265616479206d696e7465640000000060448201526064016107ff565b6000818152600260205260409020546001600160a01b0316156127a35760405162461bcd60e51b815260206004820152601c60248201527f4552433732313a20746f6b656e20616c7265616479206d696e7465640000000060448201526064016107ff565b6001600160a01b0382166000818152600360209081526040808320805460010190558483526002909152808220805473ffffffffffffffffffffffffffffffffffffffff19168417905551839291907fddf252ad1be2c89b69c2b068fc378daa952ba7f163c4a11628f55a4df523b3ef908290a45050565b82805461282790612e9d565b90600052602060002090601f016020900481019282612849576000855561288f565b82601f1061286257805160ff191683800117855561288f565b8280016001018555821561288f579182015b8281111561288f578251825591602001919060010190612874565b5061289b92915061289f565b5090565b5b8082111561289b57600081556001016128a0565b6001600160e01b031981168114610e3e57600080fd5b6000602082840312156128dc57600080fd5b81356113be816128b4565b60005b838110156129025781810151838201526020016128ea565b83811115610f445750506000910152565b6000815180845261292b8160208601602086016128e7565b601f01601f19169290920160200192915050565b6020815260006113be6020830184612913565b60006020828403121561296457600080fd5b5035919050565b6001600160a01b0381168114610e3e57600080fd5b6000806040838503121561299357600080fd5b823561299e8161296b565b946020939093013593505050565b60008083601f8401126129be57600080fd5b50813567ffffffffffffffff8111156129d657600080fd5b6020830191508360208285010111156129ee57600080fd5b9250929050565b60008060008060008060008060008060c08b8d031215612a1457600080fd5b8a35995060208b013567ffffffffffffffff80821115612a3357600080fd5b612a3f8e838f016129ac565b909b50995060408d0135915080821115612a5857600080fd5b612a648e838f016129ac565b909950975060608d0135915080821115612a7d57600080fd5b612a898e838f016129ac565b909750955060808d0135915080821115612aa257600080fd5b50612aaf8d828e016129ac565b9150809450508092505060a08b013590509295989b9194979a5092959850565b600080600060608486031215612ae457600080fd5b8335612aef8161296b565b92506020840135612aff8161296b565b929592945050506040919091013590565b60008060008060008060006080888a031215612b2b57600080fd5b87359650602088013567ffffffffffffffff80821115612b4a57600080fd5b612b568b838c016129ac565b909850965060408a0135915080821115612b6f57600080fd5b612b7b8b838c016129ac565b909650945060608a0135915080821115612b9457600080fd5b50612ba18a828b016129ac565b989b979a50959850939692959293505050565b600060208284031215612bc657600080fd5b81356113be8161296b565b634e487b7160e01b600052604160045260246000fd5b604051601f8201601f1916810167ffffffffffffffff81118282101715612c1057612c10612bd1565b604052919050565b600067ffffffffffffffff821115612c3257612c32612bd1565b50601f01601f191660200190565b6000612c53612c4e84612c18565b612be7565b9050828152838383011115612c6757600080fd5b828260208301376000602084830101529392505050565b600082601f830112612c8f57600080fd5b6113be83833560208501612c40565b60008060008060808587031215612cb457600080fd5b8435612cbf8161296b565b935060208501359250604085013567ffffffffffffffff811115612ce257600080fd5b612cee87828801612c7e565b9250506060850135612cff8161296b565b939692955090935050565b60008060208385031215612d1d57600080fd5b823567ffffffffffffffff811115612d3457600080fd5b612d40858286016129ac565b90969095509350505050565b8015158114610e3e57600080fd5b60008060408385031215612d6d57600080fd5b8235612d788161296b565b91506020830135612d8881612d4c565b809150509250929050565b60008060008060608587031215612da957600080fd5b8435612db48161296b565b935060208501359250604085013567ffffffffffffffff811115612dd757600080fd5b612de3878288016129ac565b95989497509550505050565b60008060008060808587031215612e0557600080fd5b8435612e108161296b565b93506020850135612e208161296b565b925060408501359150606085013567ffffffffffffffff811115612e4357600080fd5b8501601f81018713612e5457600080fd5b612e6387823560208401612c40565b91505092959194509250565b60008060408385031215612e8257600080fd5b8235612e8d8161296b565b91506020830135612d888161296b565b600181811c90821680612eb157607f821691505b60208210811415612ed257634e487b7160e01b600052602260045260246000fd5b50919050565b8183823760009101908152919050565b81835281816020850137506000828201602090810191909152601f909101601f19169091010190565b89815260c060208201526000612f2b60c083018a8c612ee8565b8281036040840152612f3e81898b612ee8565b90508660608401528281036080840152612f59818688612ee8565b9150508260a08301529a9950505050505050505050565b600060208284031215612f8257600080fd5b81516113be81612d4c565b868152608060208201526000612fa7608083018789612ee8565b8281036040840152612fba818688612ee8565b915050826060830152979650505050505050565b600060208284031215612fe057600080fd5b5051919050565b60208152600061156b602083018486612ee8565b6000825161300d8184602087016128e7565b9190910192915050565b600083516130298184602088016128e7565b83519083019061303d8183602088016128e7565b01949350505050565b6000806000806080858703121561305c57600080fd5b843567ffffffffffffffff81111561307357600080fd5b61307f87828801612c7e565b94505060208501356130908161296b565b9250604085013591506060850135612cff8161296b565b60008083546130b581612e9d565b600182811680156130cd57600181146130de5761310d565b60ff1984168752828701945061310d565b8760005260208060002060005b858110156131045781548a8201529084019082016130eb565b50505082870194505b50929695505050505050565b60608152600061312c6060830186612913565b6001600160a01b039490941660208301525060400152919050565b60008060006060848603121561315c57600080fd5b835167ffffffffffffffff81111561317357600080fd5b8401601f8101861361318457600080fd5b8051613192612c4e82612c18565b8181528760208385010111156131a757600080fd5b6131b88260208301602086016128e7565b80955050505060208401516131cc8161296b565b80925050604084015190509250925092565b6080815260006131f16080830187612913565b6001600160a01b0395861660208401526040830194909452509216606090920191909152919050565b60006001600160a01b03808816835260a0602084015261323d60a0840188612913565b838103604085015261324f8188612913565b905083810360608501526132638187612913565b9250508084166080840152509695505050505050565b60608152600061328c6060830186612913565b828103602084015261329e8186612913565b905082810360408401526132b28185612913565b9695505050505050565b6080815260008086546132ce81612e9d565b80608086015260a06001808416600081146132f0576001811461330457613335565b60ff1985168884015260c088019550613335565b8b60005260208060002060005b8681101561332c5781548b8201870152908401908201613311565b8a018501975050505b505050506001600160a01b038716602085015250905083604083015261336660608301846001600160a01b03169052565b95945050505050565b60006020828403121561338157600080fd5b813567ffffffffffffffff81111561339857600080fd5b61156b84828501612c7e565b634e487b7160e01b600052603260045260246000fd5b634e487b7160e01b600052601160045260246000fd5b600060ff821660ff8416808210156133ea576133ea6133ba565b90039392505050565b600082821015613405576134056133ba565b500390565b600060001982141561341e5761341e6133ba565b5060010190565b600081600019048311821515161561343f5761343f6133ba565b500290565b60008219821115613457576134576133ba565b500190565b60006001600160a01b038087168352808616602084015250836040830152608060608301526132b26080830184612913565b6000602082840312156134a057600080fd5b81516113be816128b456fea26469706673582212200a0831e7c160139909bc16b8c0bec1c0529d4b2f6ff70d1af21d14fcb950152764736f6c63430008090033",
  "linkReferences": {},
  "deployedLinkReferences": {}
}