{
  "_format": "hh-sol-artifact-1",
  "contractName": "ExecutableImplementation",
  "sourceName": "examples/evm/nonced-execution/ExecutableImplementation.sol",
  "abi": [
    {
      "inputs": [
        {
          "internalType": "address",
          "name": "gateway_",
          "type": "address"
        },
        {
          "internalType": "address",
          "name": "gasService_",
          "type": "address"
        }
      ],
      "stateMutability": "nonpayable",
      "type": "constructor"
    },
    {
      "inputs": [],
      "name": "AlreadyInitialized",
      "type": "error"
    },
    {
      "inputs": [],
      "name": "IncorrectNonce",
      "type": "error"
    },
    {
      "inputs": [],
      "name": "InvalidAddress",
      "type": "error"
    },
    {
      "inputs": [],
      "name": "NotApprovedByGateway",
      "type": "error"
    },
    {
      "inputs": [
        {
          "internalType": "string",
          "name": "sourceAddress",
          "type": "string"
        }
      ],
      "name": "WrongSourceAddress",
      "type": "error"
    },
    {
      "inputs": [
        {
          "internalType": "bytes32",
          "name": "commandId",
          "type": "bytes32"
        },
        {
          "internalType": "string",
          "name": "sourceChain",
          "type": "string"
        },
        {
          "internalType": "string",
          "name": "sourceAddress",
          "type": "string"
        },
        {
          "internalType": "bytes",
          "name": "payload",
          "type": "bytes"
        }
      ],
      "name": "execute",
      "outputs": [],
      "stateMutability": "nonpayable",
      "type": "function"
    },
    {
      "inputs": [
        {
          "internalType": "bytes32",
          "name": "commandId",
          "type": "bytes32"
        },
        {
          "internalType": "string",
          "name": "sourceChain",
          "type": "string"
        },
        {
          "internalType": "string",
          "name": "sourceAddress",
          "type": "string"
        },
        {
          "internalType": "bytes",
          "name": "payload",
          "type": "bytes"
        },
        {
          "internalType": "string",
          "name": "tokenSymbol",
          "type": "string"
        },
        {
          "internalType": "uint256",
          "name": "amount",
          "type": "uint256"
        }
      ],
      "name": "executeWithToken",
      "outputs": [],
      "stateMutability": "nonpayable",
      "type": "function"
    },
    {
      "inputs": [],
      "name": "gasReceiver",
      "outputs": [
        {
          "internalType": "contract IAxelarGasService",
          "name": "",
          "type": "address"
        }
      ],
      "stateMutability": "view",
      "type": "function"
    },
    {
      "inputs": [],
      "name": "gateway",
      "outputs": [
        {
          "internalType": "contract IAxelarGateway",
          "name": "",
          "type": "address"
        }
      ],
      "stateMutability": "view",
      "type": "function"
    },
    {
      "inputs": [
        {
          "internalType": "string",
          "name": "",
          "type": "string"
        },
        {
          "internalType": "address",
          "name": "",
          "type": "address"
        }
      ],
      "name": "incomingNonces",
      "outputs": [
        {
          "internalType": "uint256",
          "name": "",
          "type": "uint256"
        }
      ],
      "stateMutability": "view",
      "type": "function"
    },
    {
      "inputs": [
        {
          "internalType": "string",
          "name": "",
          "type": "string"
        },
        {
          "internalType": "address",
          "name": "",
          "type": "address"
        },
        {
          "internalType": "uint256",
          "name": "",
          "type": "uint256"
        }
      ],
      "name": "messages",
      "outputs": [
        {
          "internalType": "string",
          "name": "",
          "type": "string"
        }
      ],
      "stateMutability": "view",
      "type": "function"
    },
    {
      "inputs": [
        {
          "internalType": "string",
          "name": "",
          "type": "string"
        },
        {
          "internalType": "address",
          "name": "",
          "type": "address"
        }
      ],
      "name": "outgoingNonces",
      "outputs": [
        {
          "internalType": "uint256",
          "name": "",
          "type": "uint256"
        }
      ],
      "stateMutability": "view",
      "type": "function"
    },
    {
      "inputs": [
        {
          "internalType": "string",
          "name": "destinationChain",
          "type": "string"
        },
        {
          "internalType": "string",
          "name": "destinationContract",
          "type": "string"
        },
        {
          "internalType": "bytes",
          "name": "payload",
          "type": "bytes"
        }
      ],
      "name": "sendContractCall",
      "outputs": [],
      "stateMutability": "payable",
      "type": "function"
    }
  ],
  "bytecode": "0x60a060405234801561001057600080fd5b506040516111b73803806111b783398101604081905261002f916100a4565b8181816001600160a01b0381166100595760405163e6c4247b60e01b815260040160405180910390fd5b6001600160a01b03908116608052600280546001600160a01b03191692909116919091179055506100d7915050565b80516001600160a01b038116811461009f57600080fd5b919050565b600080604083850312156100b757600080fd5b6100c083610088565b91506100ce60208401610088565b90509250929050565b6080516110b161010660003960008181609201528181610259015281816104d0015261058801526110b16000f3fe60806040526004361061007b5760003560e01c806379a286491161004e57806379a286491461012657806380d14b4a1461017a578063bdf3a1911461019a578063f08e6911146101c757600080fd5b8063116191b6146100805780631a98b2e0146100d157806325421c4c146100f35780634916065814610106575b600080fd5b34801561008c57600080fd5b506100b47f000000000000000000000000000000000000000000000000000000000000000081565b6040516001600160a01b0390911681526020015b60405180910390f35b3480156100dd57600080fd5b506100f16100ec36600461093c565b61020f565b005b6100f1610101366004610a16565b61031a565b34801561011257600080fd5b506100f1610121366004610ab0565b61053e565b34801561013257600080fd5b5061016c610141366004610c40565b8151602081840181018051600080835293830195830195909520949052929092528152604090205481565b6040519081526020016100c8565b34801561018657600080fd5b506002546100b4906001600160a01b031681565b3480156101a657600080fd5b506101ba6101b5366004610c92565b61064e565b6040516100c89190610d48565b3480156101d357600080fd5b5061016c6101e2366004610c40565b81516020818401810180516001825292820194820194909420919093529091526000908152604090205481565b60008585604051610221929190610d5b565b6040519081900381207f1876eed900000000000000000000000000000000000000000000000000000000825291506001600160a01b037f00000000000000000000000000000000000000000000000000000000000000001690631876eed99061029e908e908e908e908e908e9089908d908d908d90600401610d94565b602060405180830381600087803b1580156102b857600080fd5b505af11580156102cc573d6000803e3d6000fd5b505050506040513d601f19601f820116820180604052508101906102f09190610df3565b61030d57604051631403112d60e21b815260040160405180910390fd5b5050505050505050505050565b60003411610388576040517f08c379a000000000000000000000000000000000000000000000000000000000815260206004820152601760248201527f476173207061796d656e74206973207265717569726564000000000000000000604482015260640160405180910390fd5b60006001878760405161039c929190610d5b565b9081526040805160209281900383018120306000818152918552929020546103cb939092918791879101610e15565b6040516020818303038152906040529050600187876040516103ee929190610d5b565b90815260408051602092819003830190203060009081529252812080549161041583610e48565b90915550506002546040517f0c93e3bb0000000000000000000000000000000000000000000000000000000081526001600160a01b0390911690630c93e3bb9034906104719030908c908c908c908c908a903390600401610e71565b6000604051808303818588803b15801561048a57600080fd5b505af115801561049e573d6000803e3d6000fd5b50506040517f1c92115f0000000000000000000000000000000000000000000000000000000081526001600160a01b037f0000000000000000000000000000000000000000000000000000000000000000169350631c92115f925061051091508a908a908a908a908890600401610ed4565b600060405180830381600087803b15801561052a57600080fd5b505af115801561030d573d6000803e3d6000fd5b60008282604051610550929190610d5b565b6040519081900381207f5f6970c300000000000000000000000000000000000000000000000000000000825291506001600160a01b037f00000000000000000000000000000000000000000000000000000000000000001690635f6970c3906105c7908b908b908b908b908b908990600401610f1b565b602060405180830381600087803b1580156105e157600080fd5b505af11580156105f5573d6000803e3d6000fd5b505050506040513d601f19601f820116820180604052508101906106199190610df3565b61063657604051631403112d60e21b815260040160405180910390fd5b610644878787878787610714565b5050505050505050565b8251602081850181018051600382529282019582019590952091909452835260009182526040808320909352815220805461068890610f5c565b80601f01602080910402602001604051908101604052809291908181526020018280546106b490610f5c565b80156107015780601f106106d657610100808354040283529160200191610701565b820191906000526020600020905b8154815290600101906020018083116106e457829003601f168201915b505050505081565b505050505050505050565b6000808061072484860186610f97565b9250925092506000898960405161073c929190610d5b565b90815260408051602092819003830190206001600160a01b038516600090815292529020548314610799576040517f674d8d8800000000000000000000000000000000000000000000000000000000815260040160405180910390fd5b600089896040516107ab929190610d5b565b90815260408051602092819003830190206001600160a01b0385166000908152925281208054916107db83610e48565b919050555061070989898486856000818060200190518101906107fe9190611004565b90508060038787604051610813929190610d5b565b90815260408051602092819003830190206001600160a01b03881660009081529083528181208782528352208251610851939192919091019061085a565b50505050505050565b82805461086690610f5c565b90600052602060002090601f01602090048101928261088857600085556108ce565b82601f106108a157805160ff19168380011785556108ce565b828001600101855582156108ce579182015b828111156108ce5782518255916020019190600101906108b3565b506108da9291506108de565b5090565b5b808211156108da57600081556001016108df565b60008083601f84011261090557600080fd5b50813567ffffffffffffffff81111561091d57600080fd5b60208301915083602082850101111561093557600080fd5b9250929050565b60008060008060008060008060008060c08b8d03121561095b57600080fd5b8a35995060208b013567ffffffffffffffff8082111561097a57600080fd5b6109868e838f016108f3565b909b50995060408d013591508082111561099f57600080fd5b6109ab8e838f016108f3565b909950975060608d01359150808211156109c457600080fd5b6109d08e838f016108f3565b909750955060808d01359150808211156109e957600080fd5b506109f68d828e016108f3565b9150809450508092505060a08b013590509295989b9194979a5092959850565b60008060008060008060608789031215610a2f57600080fd5b863567ffffffffffffffff80821115610a4757600080fd5b610a538a838b016108f3565b90985096506020890135915080821115610a6c57600080fd5b610a788a838b016108f3565b90965094506040890135915080821115610a9157600080fd5b50610a9e89828a016108f3565b979a9699509497509295939492505050565b60008060008060008060006080888a031215610acb57600080fd5b87359650602088013567ffffffffffffffff80821115610aea57600080fd5b610af68b838c016108f3565b909850965060408a0135915080821115610b0f57600080fd5b610b1b8b838c016108f3565b909650945060608a0135915080821115610b3457600080fd5b50610b418a828b016108f3565b989b979a50959850939692959293505050565b634e487b7160e01b600052604160045260246000fd5b604051601f8201601f1916810167ffffffffffffffff81118282101715610b9357610b93610b54565b604052919050565b600067ffffffffffffffff821115610bb557610bb5610b54565b50601f01601f191660200190565b6000610bd6610bd184610b9b565b610b6a565b9050828152838383011115610bea57600080fd5b828260208301376000602084830101529392505050565b600082601f830112610c1257600080fd5b610c2183833560208501610bc3565b9392505050565b6001600160a01b0381168114610c3d57600080fd5b50565b60008060408385031215610c5357600080fd5b823567ffffffffffffffff811115610c6a57600080fd5b610c7685828601610c01565b9250506020830135610c8781610c28565b809150509250929050565b600080600060608486031215610ca757600080fd5b833567ffffffffffffffff811115610cbe57600080fd5b610cca86828701610c01565b9350506020840135610cdb81610c28565b929592945050506040919091013590565b60005b83811015610d07578181015183820152602001610cef565b83811115610d16576000848401525b50505050565b60008151808452610d34816020860160208601610cec565b601f01601f19169290920160200192915050565b602081526000610c216020830184610d1c565b8183823760009101908152919050565b81835281816020850137506000828201602090810191909152601f909101601f19169091010190565b89815260c060208201526000610dae60c083018a8c610d6b565b8281036040840152610dc181898b610d6b565b90508660608401528281036080840152610ddc818688610d6b565b9150508260a08301529a9950505050505050505050565b600060208284031215610e0557600080fd5b81518015158114610c2157600080fd5b8481526001600160a01b0384166020820152606060408201526000610e3e606083018486610d6b565b9695505050505050565b6000600019821415610e6a57634e487b7160e01b600052601160045260246000fd5b5060010190565b60006001600160a01b03808a16835260a06020840152610e9560a08401898b610d6b565b8381036040850152610ea881888a610d6b565b90508381036060850152610ebc8187610d1c565b92505080841660808401525098975050505050505050565b606081526000610ee8606083018789610d6b565b8281036020840152610efb818688610d6b565b90508281036040840152610f0f8185610d1c565b98975050505050505050565b868152608060208201526000610f35608083018789610d6b565b8281036040840152610f48818688610d6b565b915050826060830152979650505050505050565b600181811c90821680610f7057607f821691505b60208210811415610f9157634e487b7160e01b600052602260045260246000fd5b50919050565b600080600060608486031215610fac57600080fd5b833592506020840135610fbe81610c28565b9150604084013567ffffffffffffffff811115610fda57600080fd5b8401601f81018613610feb57600080fd5b610ffa86823560208401610bc3565b9150509250925092565b60006020828403121561101657600080fd5b815167ffffffffffffffff81111561102d57600080fd5b8201601f8101841361103e57600080fd5b805161104c610bd182610b9b565b81815285602083850101111561106157600080fd5b611072826020830160208601610cec565b9594505050505056fea26469706673582212209787b47b634890eb1d792bdefdf34997893c8b78f98cb1f406964b33fcdd271464736f6c63430008090033",
  "linkReferences": {},
  "deployedLinkReferences": {}
}