{
  "_format": "hh-sol-artifact-1",
  "contractName": "CompoundInterface",
  "sourceName": "examples/evm/cross-chain-lending/CompoundInterface.sol",
  "abi": [
    {
      "inputs": [
        {
          "internalType": "address",
          "name": "gateway_",
          "type": "address"
        },
        {
          "internalType": "contract Comptroller",
          "name": "comptroller_",
          "type": "address"
        },
        {
          "internalType": "string[]",
          "name": "supportedTokens",
          "type": "string[]"
        },
        {
          "internalType": "address[]",
          "name": "cTokens",
          "type": "address[]"
        }
      ],
      "stateMutability": "nonpayable",
      "type": "constructor"
    },
    {
      "inputs": [],
      "name": "InvalidAddress",
      "type": "error"
    },
    {
      "inputs": [],
      "name": "NotApprovedByGateway",
      "type": "error"
    },
    {
      "inputs": [
        {
          "internalType": "string",
          "name": "",
          "type": "string"
        },
        {
          "internalType": "string",
          "name": "",
          "type": "string"
        }
      ],
      "name": "cBalances",
      "outputs": [
        {
          "internalType": "uint256",
          "name": "",
          "type": "uint256"
        }
      ],
      "stateMutability": "view",
      "type": "function"
    },
    {
      "inputs": [],
      "name": "comptroller",
      "outputs": [
        {
          "internalType": "contract Comptroller",
          "name": "",
          "type": "address"
        }
      ],
      "stateMutability": "view",
      "type": "function"
    },
    {
      "inputs": [
        {
          "internalType": "bytes32",
          "name": "commandId",
          "type": "bytes32"
        },
        {
          "internalType": "string",
          "name": "sourceChain",
          "type": "string"
        },
        {
          "internalType": "string",
          "name": "sourceAddress",
          "type": "string"
        },
        {
          "internalType": "bytes",
          "name": "payload",
          "type": "bytes"
        }
      ],
      "name": "execute",
      "outputs": [],
      "stateMutability": "nonpayable",
      "type": "function"
    },
    {
      "inputs": [
        {
          "internalType": "bytes32",
          "name": "commandId",
          "type": "bytes32"
        },
        {
          "internalType": "string",
          "name": "sourceChain",
          "type": "string"
        },
        {
          "internalType": "string",
          "name": "sourceAddress",
          "type": "string"
        },
        {
          "internalType": "bytes",
          "name": "payload",
          "type": "bytes"
        },
        {
          "internalType": "string",
          "name": "tokenSymbol",
          "type": "string"
        },
        {
          "internalType": "uint256",
          "name": "amount",
          "type": "uint256"
        }
      ],
      "name": "executeWithToken",
      "outputs": [],
      "stateMutability": "nonpayable",
      "type": "function"
    },
    {
      "inputs": [],
      "name": "gateway",
      "outputs": [
        {
          "internalType": "contract IAxelarGateway",
          "name": "",
          "type": "address"
        }
      ],
      "stateMutability": "view",
      "type": "function"
    },
    {
      "inputs": [
        {
          "internalType": "string",
          "name": "sourceChain",
          "type": "string"
        },
        {
          "internalType": "string",
          "name": "",
          "type": "string"
        },
        {
          "internalType": "string",
          "name": "repayTokenSymbol",
          "type": "string"
        },
        {
          "internalType": "uint256",
          "name": "repayAmount",
          "type": "uint256"
        },
        {
          "internalType": "bytes",
          "name": "params",
          "type": "bytes"
        }
      ],
      "name": "repayAndRedeem",
      "outputs": [],
      "stateMutability": "nonpayable",
      "type": "function"
    },
    {
      "inputs": [
        {
          "internalType": "string",
          "name": "sourceChain",
          "type": "string"
        },
        {
          "internalType": "string",
          "name": "",
          "type": "string"
        },
        {
          "internalType": "string",
          "name": "supplyTokenSymbol",
          "type": "string"
        },
        {
          "internalType": "uint256",
          "name": "supplyAmount",
          "type": "uint256"
        },
        {
          "internalType": "bytes",
          "name": "params",
          "type": "bytes"
        }
      ],
      "name": "supplyAndBorrow",
      "outputs": [],
      "stateMutability": "nonpayable",
      "type": "function"
    }
  ],
  "bytecode": "0x60c06040523480156200001157600080fd5b50604051620021e8380380620021e883398101604081905262000034916200032b565b836001600160a01b0381166200005d5760405163e6c4247b60e01b815260040160405180910390fd5b6001600160a01b03166080528051825114620000b35760405162461bcd60e51b8152602060048201526011602482015270098cadccee8d0e640dad2e6e6dac2e8c6d607b1b604482015260640160405180910390fd5b6001600160a01b03831660a05260005b82518110156200015c57818181518110620000e257620000e262000494565b6020026020010151600184838151811062000101576200010162000494565b6020026020010151604051620001189190620004aa565b90815260405190819003602001902080546001600160a01b03929092166001600160a01b0319909216919091179055806200015381620004c8565b915050620000c3565b5060a0516001600160a01b031663c2998238826040518263ffffffff1660e01b81526004016200018d9190620004f2565b600060405180830381600087803b158015620001a857600080fd5b505af1158015620001bd573d6000803e3d6000fd5b505050506040513d6000823e601f3d908101601f19168201604052620001e7919081019062000541565b5050505050620005da565b6001600160a01b03811681146200020857600080fd5b50565b634e487b7160e01b600052604160045260246000fd5b604051601f8201601f191681016001600160401b03811182821017156200024c576200024c6200020b565b604052919050565b60006001600160401b038211156200027057620002706200020b565b5060051b60200190565b60005b83811015620002975781810151838201526020016200027d565b83811115620002a7576000848401525b50505050565b600082601f830112620002bf57600080fd5b81516020620002d8620002d28362000254565b62000221565b82815260059290921b84018101918181019086841115620002f857600080fd5b8286015b84811015620003205780516200031281620001f2565b8352918301918301620002fc565b509695505050505050565b600080600080608085870312156200034257600080fd5b84516200034f81620001f2565b809450506020808601516200036481620001f2565b60408701519094506001600160401b03808211156200038257600080fd5b818801915088601f8301126200039757600080fd5b8151620003a8620002d28262000254565b81815260059190911b8301840190848101908b831115620003c857600080fd5b8585015b838110156200045d57805185811115620003e65760008081fd5b8601603f81018e13620003f95760008081fd5b87810151868111156200041057620004106200020b565b62000424601f8201601f19168a0162000221565b8181528f60408385010111156200043b5760008081fd5b6200044d828b8301604086016200027a565b85525050918601918601620003cc565b5060608b015190975094505050808311156200047857600080fd5b50506200048887828801620002ad565b91505092959194509250565b634e487b7160e01b600052603260045260246000fd5b60008251620004be8184602087016200027a565b9190910192915050565b6000600019821415620004eb57634e487b7160e01b600052601160045260246000fd5b5060010190565b6020808252825182820181905260009190848201906040850190845b81811015620005355783516001600160a01b0316835292840192918401916001016200050e565b50909695505050505050565b600060208083850312156200055557600080fd5b82516001600160401b038111156200056c57600080fd5b8301601f810185136200057e57600080fd5b80516200058f620002d28262000254565b81815260059190911b82018301908381019087831115620005af57600080fd5b928401925b82841015620005cf57835182529284019290840190620005b4565b979650505050505050565b60805160a051611ba36200064560003960006101490152600081816087015281816101db015281816102f7015281816107b50152818161099601528181610cf801528181610d9f01528181610e4a015281816111df0152818161131401526113b70152611ba36000f3fe608060405234801561001057600080fd5b506004361061007d5760003560e01c80634b2e84c61161005b5780634b2e84c6146100ee5780635fe3b56714610144578063e521a35b1461016b578063f609617d1461017e57600080fd5b8063116191b6146100825780631a98b2e0146100c657806349160658146100db575b600080fd5b6100a97f000000000000000000000000000000000000000000000000000000000000000081565b6040516001600160a01b0390911681526020015b60405180910390f35b6100d96100d436600461146b565b610191565b005b6100d96100e9366004611545565b6102ad565b6101366100fc3660046116ae565b8151602081840181018051600082529282019482019490942091909352815180830184018051928152908401929093019190912091525481565b6040519081526020016100bd565b6100a97f000000000000000000000000000000000000000000000000000000000000000081565b6100d9610179366004611712565b6103af565b6100d961018c366004611712565b610460565b600085856040516101a39291906117d9565b6040519081900381207f1876eed900000000000000000000000000000000000000000000000000000000825291506001600160a01b037f00000000000000000000000000000000000000000000000000000000000000001690631876eed990610220908e908e908e908e908e9089908d908d908d90600401611812565b602060405180830381600087803b15801561023a57600080fd5b505af115801561024e573d6000803e3d6000fd5b505050506040513d601f19601f820116820180604052508101906102729190611871565b61028f57604051631403112d60e21b815260040160405180910390fd5b6102a08a8a8a8a8a8a8a8a8a61050d565b5050505050505050505050565b600082826040516102bf9291906117d9565b6040519081900381207f5f6970c300000000000000000000000000000000000000000000000000000000825291506001600160a01b037f00000000000000000000000000000000000000000000000000000000000000001690635f6970c390610336908b908b908b908b908b90899060040161189a565b602060405180830381600087803b15801561035057600080fd5b505af1158015610364573d6000803e3d6000fd5b505050506040513d601f19601f820116820180604052508101906103889190611871565b6103a557604051631403112d60e21b815260040160405180910390fd5b5050505050505050565b3330146104295760405162461bcd60e51b815260206004820152603160248201527f46756e6374696f6e206d7573742062652063616c6c656420627920746865207360448201527f616d6520636f6e7472616374206f6e6c7900000000000000000000000000000060648201526084015b60405180910390fd5b6000806000838060200190518101906104429190611958565b925092509250610453878787610775565b6102a08b8b838686610958565b3330146104d55760405162461bcd60e51b815260206004820152603160248201527f46756e6374696f6e206d7573742062652063616c6c656420627920746865207360448201527f616d6520636f6e7472616374206f6e6c790000000000000000000000000000006064820152608401610420565b6000806000838060200190518101906104ee9190611958565b92509250925061050087878784610e0a565b6102a08b8b8386866111a1565b60008061051c868801886116ae565b9150915060007f73d8cb69fd3e6fb626850133eeb817026df2481a2ad38804ed80ac10f56007238380519060200120141561057857507ff609617d00000000000000000000000000000000000000000000000000000000610615565b825160208401207ffb37ddd22b2e66bdd322100a2670dfcd6e55b2107fb5a8dda4eb256486b672ff14156105cd57507fe521a35b00000000000000000000000000000000000000000000000000000000610615565b60405162461bcd60e51b815260206004820152601560248201527f496e76616c69642066756e6374696f6e206e616d6500000000000000000000006044820152606401610420565b600080306001600160a01b0316838f8f8f8f8d8d8d8c6040516024016106429897969594939291906119f1565b60408051601f198184030181529181526020820180517bffffffffffffffffffffffffffffffffffffffffffffffffffffffff167fffffffff000000000000000000000000000000000000000000000000000000009094169390931790925290516106ad9190611a56565b6000604051808303816000865af19150503d80600081146106ea576040519150601f19603f3d011682016040523d82523d6000602084013e6106ef565b606091505b50915091508161075d578051610751578161074c5760405162461bcd60e51b815260206004820152601560248201527f4661696c65642077697468206e6f20726561736f6e00000000000000000000006044820152606401610420565b61075d565b60208101815182018082fd5b5050505050505050505050505050565b505050505050565b6000600184846040516107899291906117d9565b908152604051908190036020018120546349ad89fb60e11b82526001600160a01b0390811692506000917f00000000000000000000000000000000000000000000000000000000000000009091169063935b13f6906107ee9088908890600401611a72565b60206040518083038186803b15801561080657600080fd5b505afa15801561081a573d6000803e3d6000fd5b505050506040513d601f19601f8201168201806040525081019061083e9190611a86565b60405163095ea7b360e01b81526001600160a01b038481166004830152602482018690529192509082169063095ea7b390604401602060405180830381600087803b15801561088c57600080fd5b505af11580156108a0573d6000803e3d6000fd5b505050506040513d601f19601f820116820180604052508101906108c49190611871565b506040517f0e752702000000000000000000000000000000000000000000000000000000008152600481018490526001600160a01b03831690630e75270290602401602060405180830381600087803b15801561092057600080fd5b505af1158015610934573d6000803e3d6000fd5b505050506040513d601f19601f8201168201806040525081019061076d9190611aaf565b600060018360405161096a9190611a56565b908152604051908190036020018120546349ad89fb60e11b82526001600160a01b0390811692506000917f00000000000000000000000000000000000000000000000000000000000000009091169063935b13f6906109cd908790600401611ac8565b60206040518083038186803b1580156109e557600080fd5b505afa1580156109f9573d6000803e3d6000fd5b505050506040513d601f19601f82011682018060405250810190610a1d9190611a86565b905082600086604051610a309190611a56565b908152602001604051809103902085604051610a4c9190611a56565b9081526020016040518091039020541015610aa95760405162461bcd60e51b815260206004820152601260248201527f4e6f7420656e6f7567682062616c616e636500000000000000000000000000006044820152606401610420565b82600086604051610aba9190611a56565b908152602001604051809103902085604051610ad69190611a56565b90815260200160405180910390206000828254610af39190611af1565b90915550506040516370a0823160e01b81523060048201526000906001600160a01b038316906370a082319060240160206040518083038186803b158015610b3a57600080fd5b505afa158015610b4e573d6000803e3d6000fd5b505050506040513d601f19601f82011682018060405250810190610b729190611aaf565b6040517fdb006a75000000000000000000000000000000000000000000000000000000008152600481018690529091506000906001600160a01b0385169063db006a7590602401602060405180830381600087803b158015610bd357600080fd5b505af1158015610be7573d6000803e3d6000fd5b505050506040513d601f19601f82011682018060405250810190610c0b9190611aaf565b90508015610c5b5760405162461bcd60e51b815260206004820152601e60248201527f4572726f722072656465656d696e6720666f7220756e6465726c79696e6700006044820152606401610420565b6040516370a0823160e01b815230600482015260009083906001600160a01b038616906370a082319060240160206040518083038186803b158015610c9f57600080fd5b505afa158015610cb3573d6000803e3d6000fd5b505050506040513d601f19601f82011682018060405250810190610cd79190611aaf565b610ce19190611af1565b60405163095ea7b360e01b81526001600160a01b037f000000000000000000000000000000000000000000000000000000000000000081166004830152602482018390529192509085169063095ea7b390604401602060405180830381600087803b158015610d4f57600080fd5b505af1158015610d63573d6000803e3d6000fd5b505050506040513d601f19601f82011682018060405250810190610d879190611871565b506040516326ef699d60e01b81526001600160a01b037f000000000000000000000000000000000000000000000000000000000000000016906326ef699d90610ddc908d908d908d908d908890600401611b08565b600060405180830381600087803b158015610df657600080fd5b505af115801561075d573d6000803e3d6000fd5b600060018585604051610e1e9291906117d9565b908152604051908190036020018120546349ad89fb60e11b82526001600160a01b0390811692506000917f00000000000000000000000000000000000000000000000000000000000000009091169063935b13f690610e839089908990600401611a72565b60206040518083038186803b158015610e9b57600080fd5b505afa158015610eaf573d6000803e3d6000fd5b505050506040513d601f19601f82011682018060405250810190610ed39190611a86565b60405163095ea7b360e01b81526001600160a01b038481166004830152602482018790529192509082169063095ea7b390604401602060405180830381600087803b158015610f2157600080fd5b505af1158015610f35573d6000803e3d6000fd5b505050506040513d601f19601f82011682018060405250810190610f599190611871565b506040516370a0823160e01b81523060048201526000906001600160a01b038416906370a082319060240160206040518083038186803b158015610f9c57600080fd5b505afa158015610fb0573d6000803e3d6000fd5b505050506040513d601f19601f82011682018060405250810190610fd49190611aaf565b6040517fa0712d68000000000000000000000000000000000000000000000000000000008152600481018790529091506000906001600160a01b0385169063a0712d6890602401602060405180830381600087803b15801561103557600080fd5b505af1158015611049573d6000803e3d6000fd5b505050506040513d601f19601f8201168201806040525081019061106d9190611aaf565b905080156110bd5760405162461bcd60e51b815260206004820152601560248201527f4572726f72206d696e74696e672063546f6b656e7300000000000000000000006044820152606401610420565b6040516370a0823160e01b815230600482015260009083906001600160a01b038716906370a082319060240160206040518083038186803b15801561110157600080fd5b505afa158015611115573d6000803e3d6000fd5b505050506040513d601f19601f820116820180604052508101906111399190611aaf565b6111439190611af1565b9050806000876040516111569190611a56565b90815260200160405180910390208a8a6040516111749291906117d9565b908152602001604051809103902060008282546111919190611b55565b9091555050505050505050505050565b60006001836040516111b39190611a56565b908152604051908190036020018120546349ad89fb60e11b82526001600160a01b0390811692506000917f00000000000000000000000000000000000000000000000000000000000000009091169063935b13f690611216908790600401611ac8565b60206040518083038186803b15801561122e57600080fd5b505afa158015611242573d6000803e3d6000fd5b505050506040513d601f19601f820116820180604052508101906112669190611a86565b6040517fc5ebeaec000000000000000000000000000000000000000000000000000000008152600481018590529091506001600160a01b0383169063c5ebeaec90602401602060405180830381600087803b1580156112c457600080fd5b505af11580156112d8573d6000803e3d6000fd5b505050506040513d601f19601f820116820180604052508101906112fc9190611aaf565b5060405163095ea7b360e01b81526001600160a01b037f0000000000000000000000000000000000000000000000000000000000000000811660048301526024820185905282169063095ea7b390604401602060405180830381600087803b15801561136757600080fd5b505af115801561137b573d6000803e3d6000fd5b505050506040513d601f19601f8201168201806040525081019061139f9190611871565b506040516326ef699d60e01b81526001600160a01b037f000000000000000000000000000000000000000000000000000000000000000016906326ef699d906113f4908a908a908a908a908a90600401611b08565b600060405180830381600087803b15801561140e57600080fd5b505af11580156102a0573d6000803e3d6000fd5b60008083601f84011261143457600080fd5b50813567ffffffffffffffff81111561144c57600080fd5b60208301915083602082850101111561146457600080fd5b9250929050565b60008060008060008060008060008060c08b8d03121561148a57600080fd5b8a35995060208b013567ffffffffffffffff808211156114a957600080fd5b6114b58e838f01611422565b909b50995060408d01359150808211156114ce57600080fd5b6114da8e838f01611422565b909950975060608d01359150808211156114f357600080fd5b6114ff8e838f01611422565b909750955060808d013591508082111561151857600080fd5b506115258d828e01611422565b9150809450508092505060a08b013590509295989b9194979a5092959850565b60008060008060008060006080888a03121561156057600080fd5b87359650602088013567ffffffffffffffff8082111561157f57600080fd5b61158b8b838c01611422565b909850965060408a01359150808211156115a457600080fd5b6115b08b838c01611422565b909650945060608a01359150808211156115c957600080fd5b506115d68a828b01611422565b989b979a50959850939692959293505050565b634e487b7160e01b600052604160045260246000fd5b604051601f8201601f1916810167ffffffffffffffff81118282101715611628576116286115e9565b604052919050565b600067ffffffffffffffff82111561164a5761164a6115e9565b50601f01601f191660200190565b600082601f83011261166957600080fd5b813561167c61167782611630565b6115ff565b81815284602083860101111561169157600080fd5b816020850160208301376000918101602001919091529392505050565b600080604083850312156116c157600080fd5b823567ffffffffffffffff808211156116d957600080fd5b6116e586838701611658565b935060208501359150808211156116fb57600080fd5b5061170885828601611658565b9150509250929050565b60008060008060008060008060a0898b03121561172e57600080fd5b883567ffffffffffffffff8082111561174657600080fd5b6117528c838d01611422565b909a50985060208b013591508082111561176b57600080fd5b6117778c838d01611422565b909850965060408b013591508082111561179057600080fd5b61179c8c838d01611422565b909650945060608b0135935060808b01359150808211156117bc57600080fd5b506117c98b828c01611658565b9150509295985092959890939650565b8183823760009101908152919050565b81835281816020850137506000828201602090810191909152601f909101601f19169091010190565b89815260c06020820152600061182c60c083018a8c6117e9565b828103604084015261183f81898b6117e9565b9050866060840152828103608084015261185a8186886117e9565b9150508260a08301529a9950505050505050505050565b60006020828403121561188357600080fd5b8151801515811461189357600080fd5b9392505050565b8681526080602082015260006118b46080830187896117e9565b82810360408401526118c78186886117e9565b915050826060830152979650505050505050565b60005b838110156118f65781810151838201526020016118de565b83811115611905576000848401525b50505050565b600082601f83011261191c57600080fd5b815161192a61167782611630565b81815284602083860101111561193f57600080fd5b6119508260208301602087016118db565b949350505050565b60008060006060848603121561196d57600080fd5b835167ffffffffffffffff8082111561198557600080fd5b6119918783880161190b565b94506020860151935060408601519150808211156119ae57600080fd5b506119bb8682870161190b565b9150509250925092565b600081518084526119dd8160208601602086016118db565b601f01601f19169290920160200192915050565b60a081526000611a0560a083018a8c6117e9565b8281036020840152611a1881898b6117e9565b90508281036040840152611a2d8187896117e9565b90508460608401528281036080840152611a4781856119c5565b9b9a5050505050505050505050565b60008251611a688184602087016118db565b9190910192915050565b6020815260006119506020830184866117e9565b600060208284031215611a9857600080fd5b81516001600160a01b038116811461189357600080fd5b600060208284031215611ac157600080fd5b5051919050565b60208152600061189360208301846119c5565b634e487b7160e01b600052601160045260246000fd5b600082821015611b0357611b03611adb565b500390565b608081526000611b1c6080830187896117e9565b8281036020840152611b2e81876119c5565b90508281036040840152611b4281866119c5565b9150508260608301529695505050505050565b60008219821115611b6857611b68611adb565b50019056fea26469706673582212202317d52f4dbc53a4da5e9486bdc41aefdada42ebb2f6659c9329d82d5552977d64736f6c63430008090033",
  "linkReferences": {},
  "deployedLinkReferences": {}
}