{
  "_format": "hh-sol-artifact-1",
  "contractName": "ExecutableSample",
  "sourceName": "examples/evm/call-contract/ExecutableSample.sol",
  "abi": [
    {
      "inputs": [
        {
          "internalType": "address",
          "name": "gateway_",
          "type": "address"
        },
        {
          "internalType": "address",
          "name": "gasReceiver_",
          "type": "address"
        }
      ],
      "stateMutability": "nonpayable",
      "type": "constructor"
    },
    {
      "inputs": [],
      "name": "InvalidAddress",
      "type": "error"
    },
    {
      "inputs": [],
      "name": "NotApprovedByGateway",
      "type": "error"
    },
    {
      "inputs": [
        {
          "internalType": "bytes32",
          "name": "commandId",
          "type": "bytes32"
        },
        {
          "internalType": "string",
          "name": "sourceChain",
          "type": "string"
        },
        {
          "internalType": "string",
          "name": "sourceAddress",
          "type": "string"
        },
        {
          "internalType": "bytes",
          "name": "payload",
          "type": "bytes"
        }
      ],
      "name": "execute",
      "outputs": [],
      "stateMutability": "nonpayable",
      "type": "function"
    },
    {
      "inputs": [
        {
          "internalType": "bytes32",
          "name": "commandId",
          "type": "bytes32"
        },
        {
          "internalType": "string",
          "name": "sourceChain",
          "type": "string"
        },
        {
          "internalType": "string",
          "name": "sourceAddress",
          "type": "string"
        },
        {
          "internalType": "bytes",
          "name": "payload",
          "type": "bytes"
        },
        {
          "internalType": "string",
          "name": "tokenSymbol",
          "type": "string"
        },
        {
          "internalType": "uint256",
          "name": "amount",
          "type": "uint256"
        }
      ],
      "name": "executeWithToken",
      "outputs": [],
      "stateMutability": "nonpayable",
      "type": "function"
    },
    {
      "inputs": [],
      "name": "gasService",
      "outputs": [
        {
          "internalType": "contract IAxelarGasService",
          "name": "",
          "type": "address"
        }
      ],
      "stateMutability": "view",
      "type": "function"
    },
    {
      "inputs": [],
      "name": "gateway",
      "outputs": [
        {
          "internalType": "contract IAxelarGateway",
          "name": "",
          "type": "address"
        }
      ],
      "stateMutability": "view",
      "type": "function"
    },
    {
      "inputs": [
        {
          "internalType": "string",
          "name": "destinationChain",
          "type": "string"
        },
        {
          "internalType": "string",
          "name": "destinationAddress",
          "type": "string"
        },
        {
          "internalType": "string",
          "name": "value_",
          "type": "string"
        }
      ],
      "name": "setRemoteValue",
      "outputs": [],
      "stateMutability": "payable",
      "type": "function"
    },
    {
      "inputs": [],
      "name": "sourceAddress",
      "outputs": [
        {
          "internalType": "string",
          "name": "",
          "type": "string"
        }
      ],
      "stateMutability": "view",
      "type": "function"
    },
    {
      "inputs": [],
      "name": "sourceChain",
      "outputs": [
        {
          "internalType": "string",
          "name": "",
          "type": "string"
        }
      ],
      "stateMutability": "view",
      "type": "function"
    },
    {
      "inputs": [],
      "name": "value",
      "outputs": [
        {
          "internalType": "string",
          "name": "",
          "type": "string"
        }
      ],
      "stateMutability": "view",
      "type": "function"
    }
  ],
  "bytecode": "0x60c060405234801561001057600080fd5b50604051610e4b380380610e4b83398101604081905261002f9161008b565b816001600160a01b0381166100575760405163e6c4247b60e01b815260040160405180910390fd5b6001600160a01b039081166080521660a052506100be565b80516001600160a01b038116811461008657600080fd5b919050565b6000806040838503121561009e57600080fd5b6100a78361006f565b91506100b56020840161006f565b90509250929050565b60805160a051610d4d6100fe6000396000818161015c015261051f0152600081816092015281816101f00152818161039601526105c10152610d4d6000f3fe60806040526004361061007b5760003560e01c8063491606581161004e578063491606581461012a5780636a22d8cc1461014a57806380d326971461017e578063b0fa84441461019157600080fd5b8063116191b6146100805780631a98b2e0146100d15780631c6ffa46146100f35780633fa4f24514610115575b600080fd5b34801561008c57600080fd5b506100b47f000000000000000000000000000000000000000000000000000000000000000081565b6040516001600160a01b0390911681526020015b60405180910390f35b3480156100dd57600080fd5b506100f16100ec3660046107d5565b6101a6565b005b3480156100ff57600080fd5b506101086102b1565b6040516100c891906108fc565b34801561012157600080fd5b5061010861033f565b34801561013657600080fd5b506100f1610145366004610916565b61034c565b34801561015657600080fd5b506100b47f000000000000000000000000000000000000000000000000000000000000000081565b6100f161018c3660046109ba565b61045c565b34801561019d57600080fd5b5061010861062f565b600085856040516101b8929190610a54565b6040519081900381207f1876eed900000000000000000000000000000000000000000000000000000000825291506001600160a01b037f00000000000000000000000000000000000000000000000000000000000000001690631876eed990610235908e908e908e908e908e9089908d908d908d90600401610a8d565b602060405180830381600087803b15801561024f57600080fd5b505af1158015610263573d6000803e3d6000fd5b505050506040513d601f19601f820116820180604052508101906102879190610aec565b6102a457604051631403112d60e21b815260040160405180910390fd5b5050505050505050505050565b600180546102be90610b0e565b80601f01602080910402602001604051908101604052809291908181526020018280546102ea90610b0e565b80156103375780601f1061030c57610100808354040283529160200191610337565b820191906000526020600020905b81548152906001019060200180831161031a57829003601f168201915b505050505081565b600080546102be90610b0e565b6000828260405161035e929190610a54565b6040519081900381207f5f6970c300000000000000000000000000000000000000000000000000000000825291506001600160a01b037f00000000000000000000000000000000000000000000000000000000000000001690635f6970c3906103d5908b908b908b908b908b908990600401610b49565b602060405180830381600087803b1580156103ef57600080fd5b505af1158015610403573d6000803e3d6000fd5b505050506040513d601f19601f820116820180604052508101906104279190610aec565b61044457604051631403112d60e21b815260040160405180910390fd5b61045287878787878761063c565b5050505050505050565b600034116104ca576040517f08c379a000000000000000000000000000000000000000000000000000000000815260206004820152601760248201527f476173207061796d656e74206973207265717569726564000000000000000000604482015260640160405180910390fd5b600082826040516020016104df929190610b8a565b60408051601f19818403018152908290527f0c93e3bb00000000000000000000000000000000000000000000000000000000825291506001600160a01b037f00000000000000000000000000000000000000000000000000000000000000001690630c93e3bb9034906105629030908c908c908c908c908a903390600401610ba6565b6000604051808303818588803b15801561057b57600080fd5b505af115801561058f573d6000803e3d6000fd5b50506040517f1c92115f0000000000000000000000000000000000000000000000000000000081526001600160a01b037f0000000000000000000000000000000000000000000000000000000000000000169350631c92115f925061060191508a908a908a908a908890600401610c09565b600060405180830381600087803b15801561061b57600080fd5b505af11580156102a4573d6000803e3d6000fd5b600280546102be90610b0e565b61064881830183610c66565b805161065c9160009160209091019061067f565b5061066960018787610703565b5061067660028585610703565b50505050505050565b82805461068b90610b0e565b90600052602060002090601f0160209004810192826106ad57600085556106f3565b82601f106106c657805160ff19168380011785556106f3565b828001600101855582156106f3579182015b828111156106f35782518255916020019190600101906106d8565b506106ff929150610777565b5090565b82805461070f90610b0e565b90600052602060002090601f01602090048101928261073157600085556106f3565b82601f1061074a5782800160ff198235161785556106f3565b828001600101855582156106f3579182015b828111156106f357823582559160200191906001019061075c565b5b808211156106ff5760008155600101610778565b60008083601f84011261079e57600080fd5b50813567ffffffffffffffff8111156107b657600080fd5b6020830191508360208285010111156107ce57600080fd5b9250929050565b60008060008060008060008060008060c08b8d0312156107f457600080fd5b8a35995060208b013567ffffffffffffffff8082111561081357600080fd5b61081f8e838f0161078c565b909b50995060408d013591508082111561083857600080fd5b6108448e838f0161078c565b909950975060608d013591508082111561085d57600080fd5b6108698e838f0161078c565b909750955060808d013591508082111561088257600080fd5b5061088f8d828e0161078c565b9150809450508092505060a08b013590509295989b9194979a5092959850565b6000815180845260005b818110156108d5576020818501810151868301820152016108b9565b818111156108e7576000602083870101525b50601f01601f19169290920160200192915050565b60208152600061090f60208301846108af565b9392505050565b60008060008060008060006080888a03121561093157600080fd5b87359650602088013567ffffffffffffffff8082111561095057600080fd5b61095c8b838c0161078c565b909850965060408a013591508082111561097557600080fd5b6109818b838c0161078c565b909650945060608a013591508082111561099a57600080fd5b506109a78a828b0161078c565b989b979a50959850939692959293505050565b600080600080600080606087890312156109d357600080fd5b863567ffffffffffffffff808211156109eb57600080fd5b6109f78a838b0161078c565b90985096506020890135915080821115610a1057600080fd5b610a1c8a838b0161078c565b90965094506040890135915080821115610a3557600080fd5b50610a4289828a0161078c565b979a9699509497509295939492505050565b8183823760009101908152919050565b81835281816020850137506000828201602090810191909152601f909101601f19169091010190565b89815260c060208201526000610aa760c083018a8c610a64565b8281036040840152610aba81898b610a64565b90508660608401528281036080840152610ad5818688610a64565b9150508260a08301529a9950505050505050505050565b600060208284031215610afe57600080fd5b8151801515811461090f57600080fd5b600181811c90821680610b2257607f821691505b60208210811415610b4357634e487b7160e01b600052602260045260246000fd5b50919050565b868152608060208201526000610b63608083018789610a64565b8281036040840152610b76818688610a64565b915050826060830152979650505050505050565b602081526000610b9e602083018486610a64565b949350505050565b60006001600160a01b03808a16835260a06020840152610bca60a08401898b610a64565b8381036040850152610bdd81888a610a64565b90508381036060850152610bf181876108af565b92505080841660808401525098975050505050505050565b606081526000610c1d606083018789610a64565b8281036020840152610c30818688610a64565b90508281036040840152610c4481856108af565b98975050505050505050565b634e487b7160e01b600052604160045260246000fd5b600060208284031215610c7857600080fd5b813567ffffffffffffffff80821115610c9057600080fd5b818401915084601f830112610ca457600080fd5b813581811115610cb657610cb6610c50565b604051601f8201601f19908116603f01168101908382118183101715610cde57610cde610c50565b81604052828152876020848701011115610cf757600080fd5b82602086016020830137600092810160200192909252509594505050505056fea264697066735822122056cda4499d7b22d04fa89bc902606d6c3948d340d5ab319038c315b3f92fcfc664736f6c63430008090033",
  "linkReferences": {},
  "deployedLinkReferences": {}
}