{
  "_format": "hh-sol-artifact-1",
  "contractName": "HelloWorld",
  "sourceName": "examples/aptos/call-contract/contracts/HelloWorld.sol",
  "abi": [
    {
      "inputs": [
        {
          "internalType": "address",
          "name": "_gateway",
          "type": "address"
        },
        {
          "internalType": "address",
          "name": "_gasReceiver",
          "type": "address"
        }
      ],
      "stateMutability": "nonpayable",
      "type": "constructor"
    },
    {
      "inputs": [],
      "name": "InvalidAddress",
      "type": "error"
    },
    {
      "inputs": [],
      "name": "NotApprovedByGateway",
      "type": "error"
    },
    {
      "anonymous": false,
      "inputs": [],
      "name": "Executed",
      "type": "event"
    },
    {
      "inputs": [
        {
          "internalType": "bytes32",
          "name": "commandId",
          "type": "bytes32"
        },
        {
          "internalType": "string",
          "name": "sourceChain",
          "type": "string"
        },
        {
          "internalType": "string",
          "name": "sourceAddress",
          "type": "string"
        },
        {
          "internalType": "bytes",
          "name": "payload",
          "type": "bytes"
        }
      ],
      "name": "execute",
      "outputs": [],
      "stateMutability": "nonpayable",
      "type": "function"
    },
    {
      "inputs": [
        {
          "internalType": "bytes32",
          "name": "commandId",
          "type": "bytes32"
        },
        {
          "internalType": "string",
          "name": "sourceChain",
          "type": "string"
        },
        {
          "internalType": "string",
          "name": "sourceAddress",
          "type": "string"
        },
        {
          "internalType": "bytes",
          "name": "payload",
          "type": "bytes"
        },
        {
          "internalType": "string",
          "name": "tokenSymbol",
          "type": "string"
        },
        {
          "internalType": "uint256",
          "name": "amount",
          "type": "uint256"
        }
      ],
      "name": "executeWithToken",
      "outputs": [],
      "stateMutability": "nonpayable",
      "type": "function"
    },
    {
      "inputs": [],
      "name": "gateway",
      "outputs": [
        {
          "internalType": "contract IAxelarGateway",
          "name": "",
          "type": "address"
        }
      ],
      "stateMutability": "view",
      "type": "function"
    },
    {
      "inputs": [
        {
          "internalType": "string",
          "name": "destinationChain",
          "type": "string"
        },
        {
          "internalType": "string",
          "name": "destinationAddress",
          "type": "string"
        },
        {
          "internalType": "string",
          "name": "message",
          "type": "string"
        }
      ],
      "name": "setRemoteValue",
      "outputs": [],
      "stateMutability": "payable",
      "type": "function"
    },
    {
      "inputs": [],
      "name": "sourceAddress",
      "outputs": [
        {
          "internalType": "string",
          "name": "",
          "type": "string"
        }
      ],
      "stateMutability": "view",
      "type": "function"
    },
    {
      "inputs": [],
      "name": "sourceChain",
      "outputs": [
        {
          "internalType": "string",
          "name": "",
          "type": "string"
        }
      ],
      "stateMutability": "view",
      "type": "function"
    },
    {
      "inputs": [],
      "name": "value",
      "outputs": [
        {
          "internalType": "string",
          "name": "",
          "type": "string"
        }
      ],
      "stateMutability": "view",
      "type": "function"
    }
  ],
  "bytecode": "0x60a060405234801561001057600080fd5b50604051610e04380380610e0483398101604081905261002f9161009f565b816001600160a01b0381166100575760405163e6c4247b60e01b815260040160405180910390fd5b6001600160a01b03908116608052600380546001600160a01b03191692909116919091179055506100d2565b80516001600160a01b038116811461009a57600080fd5b919050565b600080604083850312156100b257600080fd5b6100bb83610083565b91506100c960208401610083565b90509250929050565b608051610d03610101600039600081816087015281816101b10152818161035701526105610152610d036000f3fe6080604052600436106100705760003560e01c80633fa4f2451161004e5780633fa4f2451461010a578063491606581461011f57806380d326971461013f578063b0fa84441461015257600080fd5b8063116191b6146100755780631a98b2e0146100c65780631c6ffa46146100e8575b600080fd5b34801561008157600080fd5b506100a97f000000000000000000000000000000000000000000000000000000000000000081565b6040516001600160a01b0390911681526020015b60405180910390f35b3480156100d257600080fd5b506100e66100e13660046107a5565b610167565b005b3480156100f457600080fd5b506100fd610272565b6040516100bd91906108cc565b34801561011657600080fd5b506100fd610300565b34801561012b57600080fd5b506100e661013a3660046108e6565b61030d565b6100e661014d366004610a2d565b61041d565b34801561015e57600080fd5b506100fd6105d6565b60008585604051610179929190610ab8565b6040519081900381207f1876eed900000000000000000000000000000000000000000000000000000000825291506001600160a01b037f00000000000000000000000000000000000000000000000000000000000000001690631876eed9906101f6908e908e908e908e908e9089908d908d908d90600401610af1565b602060405180830381600087803b15801561021057600080fd5b505af1158015610224573d6000803e3d6000fd5b505050506040513d601f19601f820116820180604052508101906102489190610b50565b61026557604051631403112d60e21b815260040160405180910390fd5b5050505050505050505050565b6001805461027f90610b72565b80601f01602080910402602001604051908101604052809291908181526020018280546102ab90610b72565b80156102f85780601f106102cd576101008083540402835291602001916102f8565b820191906000526020600020905b8154815290600101906020018083116102db57829003601f168201915b505050505081565b6000805461027f90610b72565b6000828260405161031f929190610ab8565b6040519081900381207f5f6970c300000000000000000000000000000000000000000000000000000000825291506001600160a01b037f00000000000000000000000000000000000000000000000000000000000000001690635f6970c390610396908b908b908b908b908b908990600401610bad565b602060405180830381600087803b1580156103b057600080fd5b505af11580156103c4573d6000803e3d6000fd5b505050506040513d601f19601f820116820180604052508101906103e89190610b50565b61040557604051631403112d60e21b815260040160405180910390fd5b6104138787878787876105e3565b5050505050505050565b6000341161048b576040517f08c379a000000000000000000000000000000000000000000000000000000000815260206004820152601760248201527f476173207061796d656e74206973207265717569726564000000000000000000604482015260640160405180910390fd5b600082826040516020016104a0929190610ab8565b60408051601f19818403018152908290526003547f0c93e3bb0000000000000000000000000000000000000000000000000000000083529092506001600160a01b031690630c93e3bb9034906105029030908a908a9088903390600401610bee565b6000604051808303818588803b15801561051b57600080fd5b505af115801561052f573d6000803e3d6000fd5b50506040517f1c92115f0000000000000000000000000000000000000000000000000000000081526001600160a01b037f0000000000000000000000000000000000000000000000000000000000000000169350631c92115f925061059d9150889088908690600401610c4d565b600060405180830381600087803b1580156105b757600080fd5b505af11580156105cb573d6000803e3d6000fd5b505050505050505050565b6002805461027f90610b72565b6105ef81830183610c90565b80516106039160009160209091019061064f565b50610610600187876106d3565b5061061d600285856106d3565b506040517f68f46c45a243a0e9065a97649faf9a5afe1692f2679e650c2f853b9cd734cc0e90600090a1505050505050565b82805461065b90610b72565b90600052602060002090601f01602090048101928261067d57600085556106c3565b82601f1061069657805160ff19168380011785556106c3565b828001600101855582156106c3579182015b828111156106c35782518255916020019190600101906106a8565b506106cf929150610747565b5090565b8280546106df90610b72565b90600052602060002090601f01602090048101928261070157600085556106c3565b82601f1061071a5782800160ff198235161785556106c3565b828001600101855582156106c3579182015b828111156106c357823582559160200191906001019061072c565b5b808211156106cf5760008155600101610748565b60008083601f84011261076e57600080fd5b50813567ffffffffffffffff81111561078657600080fd5b60208301915083602082850101111561079e57600080fd5b9250929050565b60008060008060008060008060008060c08b8d0312156107c457600080fd5b8a35995060208b013567ffffffffffffffff808211156107e357600080fd5b6107ef8e838f0161075c565b909b50995060408d013591508082111561080857600080fd5b6108148e838f0161075c565b909950975060608d013591508082111561082d57600080fd5b6108398e838f0161075c565b909750955060808d013591508082111561085257600080fd5b5061085f8d828e0161075c565b9150809450508092505060a08b013590509295989b9194979a5092959850565b6000815180845260005b818110156108a557602081850181015186830182015201610889565b818111156108b7576000602083870101525b50601f01601f19169290920160200192915050565b6020815260006108df602083018461087f565b9392505050565b60008060008060008060006080888a03121561090157600080fd5b87359650602088013567ffffffffffffffff8082111561092057600080fd5b61092c8b838c0161075c565b909850965060408a013591508082111561094557600080fd5b6109518b838c0161075c565b909650945060608a013591508082111561096a57600080fd5b506109778a828b0161075c565b989b979a50959850939692959293505050565b634e487b7160e01b600052604160045260246000fd5b600082601f8301126109b157600080fd5b813567ffffffffffffffff808211156109cc576109cc61098a565b604051601f8301601f19908116603f011681019082821181831017156109f4576109f461098a565b81604052838152866020858801011115610a0d57600080fd5b836020870160208301376000602085830101528094505050505092915050565b60008060008060608587031215610a4357600080fd5b843567ffffffffffffffff80821115610a5b57600080fd5b610a67888389016109a0565b95506020870135915080821115610a7d57600080fd5b610a89888389016109a0565b94506040870135915080821115610a9f57600080fd5b50610aac8782880161075c565b95989497509550505050565b8183823760009101908152919050565b81835281816020850137506000828201602090810191909152601f909101601f19169091010190565b89815260c060208201526000610b0b60c083018a8c610ac8565b8281036040840152610b1e81898b610ac8565b90508660608401528281036080840152610b39818688610ac8565b9150508260a08301529a9950505050505050505050565b600060208284031215610b6257600080fd5b815180151581146108df57600080fd5b600181811c90821680610b8657607f821691505b60208210811415610ba757634e487b7160e01b600052602260045260246000fd5b50919050565b868152608060208201526000610bc7608083018789610ac8565b8281036040840152610bda818688610ac8565b915050826060830152979650505050505050565b60006001600160a01b03808816835260a06020840152610c1160a084018861087f565b8381036040850152610c23818861087f565b90508381036060850152610c37818761087f565b9250508084166080840152509695505050505050565b606081526000610c60606083018661087f565b8281036020840152610c72818661087f565b90508281036040840152610c86818561087f565b9695505050505050565b600060208284031215610ca257600080fd5b813567ffffffffffffffff811115610cb957600080fd5b610cc5848285016109a0565b94935050505056fea26469706673582212203674e17caa712a9ec1ccab65e04de5f7a7f5586efa26a2818d25de3504d8929f64736f6c63430008090033",
  "linkReferences": {},
  "deployedLinkReferences": {}
}