{
  "_format": "hh-sol-artifact-1",
  "contractName": "NftAuctionhouse",
  "sourceName": "examples/evm/nft-auctionhouse/NftAuctionhouse.sol",
  "abi": [
    {
      "inputs": [
        {
          "internalType": "address",
          "name": "usdc_",
          "type": "address"
        }
      ],
      "stateMutability": "nonpayable",
      "type": "constructor"
    },
    {
      "inputs": [],
      "name": "DEMONINATOR",
      "outputs": [
        {
          "internalType": "uint256",
          "name": "",
          "type": "uint256"
        }
      ],
      "stateMutability": "view",
      "type": "function"
    },
    {
      "inputs": [],
      "name": "NO_MIN",
      "outputs": [
        {
          "internalType": "uint256",
          "name": "",
          "type": "uint256"
        }
      ],
      "stateMutability": "view",
      "type": "function"
    },
    {
      "inputs": [],
      "name": "NUMERATOR",
      "outputs": [
        {
          "internalType": "uint256",
          "name": "",
          "type": "uint256"
        }
      ],
      "stateMutability": "view",
      "type": "function"
    },
    {
      "inputs": [
        {
          "internalType": "address",
          "name": "bidder",
          "type": "address"
        },
        {
          "internalType": "address",
          "name": "operator",
          "type": "address"
        },
        {
          "internalType": "uint256",
          "name": "tokenId",
          "type": "uint256"
        },
        {
          "internalType": "uint256",
          "name": "amount",
          "type": "uint256"
        }
      ],
      "name": "_bid",
      "outputs": [],
      "stateMutability": "nonpayable",
      "type": "function"
    },
    {
      "inputs": [
        {
          "internalType": "address",
          "name": "operator",
          "type": "address"
        },
        {
          "internalType": "uint256",
          "name": "tokenId",
          "type": "uint256"
        },
        {
          "internalType": "uint256",
          "name": "minAmount",
          "type": "uint256"
        },
        {
          "internalType": "uint256",
          "name": "deadline",
          "type": "uint256"
        }
      ],
      "name": "auction",
      "outputs": [],
      "stateMutability": "nonpayable",
      "type": "function"
    },
    {
      "inputs": [
        {
          "internalType": "address",
          "name": "",
          "type": "address"
        },
        {
          "internalType": "uint256",
          "name": "",
          "type": "uint256"
        }
      ],
      "name": "auctioneers",
      "outputs": [
        {
          "internalType": "address",
          "name": "",
          "type": "address"
        }
      ],
      "stateMutability": "view",
      "type": "function"
    },
    {
      "inputs": [
        {
          "internalType": "address",
          "name": "operator",
          "type": "address"
        },
        {
          "internalType": "uint256",
          "name": "tokenId",
          "type": "uint256"
        },
        {
          "internalType": "uint256",
          "name": "amount",
          "type": "uint256"
        }
      ],
      "name": "bid",
      "outputs": [],
      "stateMutability": "nonpayable",
      "type": "function"
    },
    {
      "inputs": [
        {
          "internalType": "address",
          "name": "",
          "type": "address"
        },
        {
          "internalType": "uint256",
          "name": "",
          "type": "uint256"
        }
      ],
      "name": "bidders",
      "outputs": [
        {
          "internalType": "address",
          "name": "",
          "type": "address"
        }
      ],
      "stateMutability": "view",
      "type": "function"
    },
    {
      "inputs": [
        {
          "internalType": "address",
          "name": "",
          "type": "address"
        },
        {
          "internalType": "uint256",
          "name": "",
          "type": "uint256"
        }
      ],
      "name": "bids",
      "outputs": [
        {
          "internalType": "uint256",
          "name": "",
          "type": "uint256"
        }
      ],
      "stateMutability": "view",
      "type": "function"
    },
    {
      "inputs": [
        {
          "internalType": "address",
          "name": "",
          "type": "address"
        },
        {
          "internalType": "uint256",
          "name": "",
          "type": "uint256"
        }
      ],
      "name": "deadlines",
      "outputs": [
        {
          "internalType": "uint256",
          "name": "",
          "type": "uint256"
        }
      ],
      "stateMutability": "view",
      "type": "function"
    },
    {
      "inputs": [
        {
          "internalType": "address",
          "name": "operator",
          "type": "address"
        },
        {
          "internalType": "uint256",
          "name": "tokenId",
          "type": "uint256"
        }
      ],
      "name": "isAuctionRunning",
      "outputs": [
        {
          "internalType": "bool",
          "name": "",
          "type": "bool"
        }
      ],
      "stateMutability": "view",
      "type": "function"
    },
    {
      "inputs": [
        {
          "internalType": "address",
          "name": "",
          "type": "address"
        },
        {
          "internalType": "uint256",
          "name": "",
          "type": "uint256"
        }
      ],
      "name": "minAmounts",
      "outputs": [
        {
          "internalType": "uint256",
          "name": "",
          "type": "uint256"
        }
      ],
      "stateMutability": "view",
      "type": "function"
    },
    {
      "inputs": [
        {
          "internalType": "address",
          "name": "operator",
          "type": "address"
        },
        {
          "internalType": "uint256",
          "name": "tokenId",
          "type": "uint256"
        }
      ],
      "name": "resolveAuction",
      "outputs": [],
      "stateMutability": "nonpayable",
      "type": "function"
    },
    {
      "inputs": [],
      "name": "usdc",
      "outputs": [
        {
          "internalType": "contract IERC20",
          "name": "",
          "type": "address"
        }
      ],
      "stateMutability": "view",
      "type": "function"
    }
  ],
  "bytecode": "0x60a060405234801561001057600080fd5b50604051610e16380380610e1683398101604081905261002f91610040565b6001600160a01b0316608052610070565b60006020828403121561005257600080fd5b81516001600160a01b038116811461006957600080fd5b9392505050565b608051610d766100a060003960008181610144015281816102f8015281816109f70152610aa00152610d766000f3fe608060405234801561001057600080fd5b50600436106100ea5760003560e01c806380f8a4cb1161008c578063c038ea9d11610066578063c038ea9d14610253578063d8830c7d14610287578063dd671ba61461028f578063e9e05fe2146102a257600080fd5b806380f8a4cb146101cd5780638a535bf7146101f8578063baa283d31461024057600080fd5b80635e8d528d116100c85780635e8d528d1461017e578063634a6a59146101875780636720f11c146101b25780637a0eef30146101c557600080fd5b806301495c1c146100ef5780630f41ba4b1461012a5780633e413bee1461013f575b600080fd5b6101176100fd366004610bf9565b600060208181529281526040808220909352908152205481565b6040519081526020015b60405180910390f35b61013d610138366004610c23565b6102d6565b005b6101667f000000000000000000000000000000000000000000000000000000000000000081565b6040516001600160a01b039091168152602001610121565b61011760001981565b610117610195366004610bf9565b600160209081526000928352604080842090915290825290205481565b61013d6101c0366004610c56565b610408565b610117600381565b6101176101db366004610bf9565b600460209081526000928352604080842090915290825290205481565b610230610206366004610bf9565b6001600160a01b039190911660009081526001602090815260408083209383529290522054421090565b6040519015158152602001610121565b61013d61024e366004610c98565b61067d565b610166610261366004610bf9565b60026020908152600092835260408084209091529082529020546001600160a01b031681565b610117600481565b61013d61029d366004610bf9565b6107c2565b6101666102b0366004610bf9565b60036020908152600092835260408084209091529082529020546001600160a01b031681565b6040516323b872dd60e01b8152336004820152306024820152604481018290527f00000000000000000000000000000000000000000000000000000000000000006001600160a01b0316906323b872dd90606401602060405180830381600087803b15801561034457600080fd5b505af1158015610358573d6000803e3d6000fd5b505050506040513d601f19601f8201168201806040525081019061037c9190610cd1565b506040517f6720f11c0000000000000000000000000000000000000000000000000000000081523360048201526001600160a01b038416602482015260448101839052606481018290523090636720f11c90608401600060405180830381600087803b1580156103eb57600080fd5b505af11580156103ff573d6000803e3d6000fd5b50505050505050565b33301461045c5760405162461bcd60e51b815260206004820152600860248201527f4e4f545f53454c4600000000000000000000000000000000000000000000000060448201526064015b60405180910390fd5b6001600160a01b0383166000908152600460209081526040808320858452909152902054806104cd5760405162461bcd60e51b815260206004820152600e60248201527f4e4f545f41554354494f4e494e470000000000000000000000000000000000006044820152606401610453565b6001600160a01b03841660009081526001602090815260408083208684529091529020544211156105405760405162461bcd60e51b815260206004820152600f60248201527f41554354494f4e5f4558504952454400000000000000000000000000000000006044820152606401610453565b6001600160a01b038085166000818152600260209081526040808320888452825280832054938352828252808320888452909152902054911690610585600385610cfa565b610590600483610cfa565b111580156105a957506000198314806105a95750828410155b80156105b55750600084115b6106015760405162461bcd60e51b815260206004820152600b60248201527f4249445f544f4f5f4c4f570000000000000000000000000000000000000000006044820152606401610453565b6001600160a01b0382161561061c5761061c828288886109d1565b5050506001600160a01b039283166000818152600260209081526040808320868452825280832080549790981673ffffffffffffffffffffffffffffffffffffffff1990971696909617909655908152808552838120928152919093522055565b6040516323b872dd60e01b8152336004820152306024820152604481018490526001600160a01b038516906323b872dd90606401600060405180830381600087803b1580156106cb57600080fd5b505af11580156106df573d6000803e3d6000fd5b505050504281116107325760405162461bcd60e51b815260206004820152600f60248201527f41554354494f4e5f4558504952454400000000000000000000000000000000006044820152606401610453565b6001600160a01b0384166000908152600160209081526040808320868452909152902081905581156107645781610768565b6000195b6001600160a01b03909416600081815260046020908152604080832087845282528083209790975591815260038252858120948152939052505020805473ffffffffffffffffffffffffffffffffffffffff191633179055565b6001600160a01b03808316600090815260036020908152604080832085845290915290205416806108355760405162461bcd60e51b815260206004820152600e60248201527f4e4f545f41554354494f4e494e470000000000000000000000000000000000006044820152606401610453565b6001600160a01b038316600090815260016020908152604080832085845290915290205442116108a75760405162461bcd60e51b815260206004820152600f60248201527f41554354494f4e5f52554e4e494e4700000000000000000000000000000000006044820152606401610453565b6001600160a01b03808416600081815260026020908152604080832087845282528083205493835282825280832087845290915290205491169081156108f9576108f48383878785610a7a565b610962565b6040516323b872dd60e01b81523060048201526001600160a01b038481166024830152604482018690528616906323b872dd90606401600060405180830381600087803b15801561094957600080fd5b505af115801561095d573d6000803e3d6000fd5b505050505b5050506001600160a01b039091166000818152600160209081526040808320858452825280832083905583835260048252808320858452825280832083905592825260038152828220938252929092529020805473ffffffffffffffffffffffffffffffffffffffff19169055565b60405163a9059cbb60e01b81526001600160a01b038581166004830152602482018590527f0000000000000000000000000000000000000000000000000000000000000000169063a9059cbb90604401602060405180830381600087803b158015610a3b57600080fd5b505af1158015610a4f573d6000803e3d6000fd5b505050506040513d601f19601f82011682018060405250810190610a739190610cd1565b5050505050565b60405163a9059cbb60e01b81526001600160a01b038681166004830152602482018390527f0000000000000000000000000000000000000000000000000000000000000000169063a9059cbb90604401602060405180830381600087803b158015610ae457600080fd5b505af1158015610af8573d6000803e3d6000fd5b505050506040513d601f19601f82011682018060405250810190610b1c9190610cd1565b506040516323b872dd60e01b81523060048201526001600160a01b038581166024830152604482018490528416906323b872dd90606401600060405180830381600087803b158015610b6d57600080fd5b505af1158015610b81573d6000803e3d6000fd5b505050506001600160a01b039290921660008181526002602090815260408083208584528252808320805473ffffffffffffffffffffffffffffffffffffffff1916905592825281815282822093825292909252812055505050565b80356001600160a01b0381168114610bf457600080fd5b919050565b60008060408385031215610c0c57600080fd5b610c1583610bdd565b946020939093013593505050565b600080600060608486031215610c3857600080fd5b610c4184610bdd565b95602085013595506040909401359392505050565b60008060008060808587031215610c6c57600080fd5b610c7585610bdd565b9350610c8360208601610bdd565b93969395505050506040820135916060013590565b60008060008060808587031215610cae57600080fd5b610cb785610bdd565b966020860135965060408601359560600135945092505050565b600060208284031215610ce357600080fd5b81518015158114610cf357600080fd5b9392505050565b6000816000190483118215151615610d3b577f4e487b7100000000000000000000000000000000000000000000000000000000600052601160045260246000fd5b50029056fea2646970667358221220176dcd4690c18ab8f5047d39f93020bd6ef7bfb929115dd2434feab10439675164736f6c63430008090033",
  "linkReferences": {},
  "deployedLinkReferences": {}
}