{
  "_format": "hh-sol-artifact-1",
  "contractName": "SendAckSender",
  "sourceName": "examples/evm/send-ack/SendAckSender.sol",
  "abi": [
    {
      "inputs": [
        {
          "internalType": "address",
          "name": "gateway_",
          "type": "address"
        },
        {
          "internalType": "address",
          "name": "gasReceiver_",
          "type": "address"
        },
        {
          "internalType": "string",
          "name": "thisChain_",
          "type": "string"
        }
      ],
      "stateMutability": "nonpayable",
      "type": "constructor"
    },
    {
      "inputs": [],
      "name": "InvalidAddress",
      "type": "error"
    },
    {
      "inputs": [],
      "name": "NotApprovedByGateway",
      "type": "error"
    },
    {
      "inputs": [],
      "name": "NotEnoughValueForGas",
      "type": "error"
    },
    {
      "anonymous": false,
      "inputs": [
        {
          "indexed": false,
          "internalType": "string",
          "name": "destinationChain",
          "type": "string"
        },
        {
          "indexed": false,
          "internalType": "string",
          "name": "contractAddress",
          "type": "string"
        },
        {
          "indexed": false,
          "internalType": "bytes",
          "name": "payload",
          "type": "bytes"
        },
        {
          "indexed": false,
          "internalType": "uint256",
          "name": "nonce",
          "type": "uint256"
        }
      ],
      "name": "ContractCallSent",
      "type": "event"
    },
    {
      "anonymous": false,
      "inputs": [
        {
          "indexed": false,
          "internalType": "string",
          "name": "destinationChain",
          "type": "string"
        },
        {
          "indexed": false,
          "internalType": "string",
          "name": "contractAddress",
          "type": "string"
        },
        {
          "indexed": false,
          "internalType": "uint256",
          "name": "nonce",
          "type": "uint256"
        }
      ],
      "name": "FalseAcknowledgment",
      "type": "event"
    },
    {
      "inputs": [
        {
          "internalType": "uint256",
          "name": "",
          "type": "uint256"
        }
      ],
      "name": "destination",
      "outputs": [
        {
          "internalType": "bytes32",
          "name": "",
          "type": "bytes32"
        }
      ],
      "stateMutability": "view",
      "type": "function"
    },
    {
      "inputs": [
        {
          "internalType": "bytes32",
          "name": "commandId",
          "type": "bytes32"
        },
        {
          "internalType": "string",
          "name": "sourceChain",
          "type": "string"
        },
        {
          "internalType": "string",
          "name": "sourceAddress",
          "type": "string"
        },
        {
          "internalType": "bytes",
          "name": "payload",
          "type": "bytes"
        }
      ],
      "name": "execute",
      "outputs": [],
      "stateMutability": "nonpayable",
      "type": "function"
    },
    {
      "inputs": [
        {
          "internalType": "bytes32",
          "name": "commandId",
          "type": "bytes32"
        },
        {
          "internalType": "string",
          "name": "sourceChain",
          "type": "string"
        },
        {
          "internalType": "string",
          "name": "sourceAddress",
          "type": "string"
        },
        {
          "internalType": "bytes",
          "name": "payload",
          "type": "bytes"
        },
        {
          "internalType": "string",
          "name": "tokenSymbol",
          "type": "string"
        },
        {
          "internalType": "uint256",
          "name": "amount",
          "type": "uint256"
        }
      ],
      "name": "executeWithToken",
      "outputs": [],
      "stateMutability": "nonpayable",
      "type": "function"
    },
    {
      "inputs": [
        {
          "internalType": "uint256",
          "name": "",
          "type": "uint256"
        }
      ],
      "name": "executed",
      "outputs": [
        {
          "internalType": "bool",
          "name": "",
          "type": "bool"
        }
      ],
      "stateMutability": "view",
      "type": "function"
    },
    {
      "inputs": [],
      "name": "gasService",
      "outputs": [
        {
          "internalType": "contract IAxelarGasService",
          "name": "",
          "type": "address"
        }
      ],
      "stateMutability": "view",
      "type": "function"
    },
    {
      "inputs": [],
      "name": "gateway",
      "outputs": [
        {
          "internalType": "contract IAxelarGateway",
          "name": "",
          "type": "address"
        }
      ],
      "stateMutability": "view",
      "type": "function"
    },
    {
      "inputs": [],
      "name": "nonce",
      "outputs": [
        {
          "internalType": "uint256",
          "name": "",
          "type": "uint256"
        }
      ],
      "stateMutability": "view",
      "type": "function"
    },
    {
      "inputs": [
        {
          "internalType": "string",
          "name": "destinationChain",
          "type": "string"
        },
        {
          "internalType": "string",
          "name": "contractAddress",
          "type": "string"
        },
        {
          "internalType": "bytes",
          "name": "payload",
          "type": "bytes"
        }
      ],
      "name": "sendContractCall",
      "outputs": [],
      "stateMutability": "payable",
      "type": "function"
    },
    {
      "inputs": [],
      "name": "thisChain",
      "outputs": [
        {
          "internalType": "string",
          "name": "",
          "type": "string"
        }
      ],
      "stateMutability": "view",
      "type": "function"
    }
  ],
  "bytecode": "0x60c06040523480156200001157600080fd5b506040516200117138038062001171833981016040819052620000349162000168565b826001600160a01b0381166200005d5760405163e6c4247b60e01b815260040160405180910390fd5b6001600160a01b03908116608052821660a0528051620000859060039060208401906200008f565b50505050620002a9565b8280546200009d906200026c565b90600052602060002090601f016020900481019282620000c157600085556200010c565b82601f10620000dc57805160ff19168380011785556200010c565b828001600101855582156200010c579182015b828111156200010c578251825591602001919060010190620000ef565b506200011a9291506200011e565b5090565b5b808211156200011a57600081556001016200011f565b80516001600160a01b03811681146200014d57600080fd5b919050565b634e487b7160e01b600052604160045260246000fd5b6000806000606084860312156200017e57600080fd5b620001898462000135565b925060206200019a81860162000135565b60408601519093506001600160401b0380821115620001b857600080fd5b818701915087601f830112620001cd57600080fd5b815181811115620001e257620001e262000152565b604051601f8201601f19908116603f011681019083821181831017156200020d576200020d62000152565b816040528281528a868487010111156200022657600080fd5b600093505b828410156200024a57848401860151818501870152928501926200022b565b828411156200025c5760008684830101525b8096505050505050509250925092565b600181811c908216806200028157607f821691505b60208210811415620002a357634e487b7160e01b600052602260045260246000fd5b50919050565b60805160a051610e87620002ea600039600081816101b001526103cc01526000818160ad015281816102720152818161046e01526106070152610e876000f3fe6080604052600436106100965760003560e01c806349160658116100695780636a22d8cc1161004e5780636a22d8cc1461019e578063affed0e0146101d2578063d3ecebd7146101e857600080fd5b8063491606581461015c5780634d427cf91461017c57600080fd5b8063116191b61461009b5780631a98b2e0146100ec57806325421c4c1461010e57806344f6891e14610121575b600080fd5b3480156100a757600080fd5b506100cf7f000000000000000000000000000000000000000000000000000000000000000081565b6040516001600160a01b0390911681526020015b60405180910390f35b3480156100f857600080fd5b5061010c6101073660046108e0565b610228565b005b61010c61011c3660046109ba565b610333565b34801561012d57600080fd5b5061014e61013c366004610a54565b60026020526000908152604090205481565b6040519081526020016100e3565b34801561016857600080fd5b5061010c610177366004610a6d565b6105bd565b34801561018857600080fd5b506101916106cd565b6040516100e39190610b5e565b3480156101aa57600080fd5b506100cf7f000000000000000000000000000000000000000000000000000000000000000081565b3480156101de57600080fd5b5061014e60005481565b3480156101f457600080fd5b50610218610203366004610a54565b60016020526000908152604090205460ff1681565b60405190151581526020016100e3565b6000858560405161023a929190610b78565b6040519081900381207f1876eed900000000000000000000000000000000000000000000000000000000825291506001600160a01b037f00000000000000000000000000000000000000000000000000000000000000001690631876eed9906102b7908e908e908e908e908e9089908d908d908d90600401610bb1565b602060405180830381600087803b1580156102d157600080fd5b505af11580156102e5573d6000803e3d6000fd5b505050506040513d601f19601f820116820180604052508101906103099190610c10565b61032657604051631403112d60e21b815260040160405180910390fd5b5050505050505050505050565b600080549050600081848460405160200161035093929190610c32565b6040516020818303038152906040529050346000141561039c576040517fe5f5a79900000000000000000000000000000000000000000000000000000000815260040160405180910390fd5b6040517f0c93e3bb0000000000000000000000000000000000000000000000000000000081526001600160a01b037f00000000000000000000000000000000000000000000000000000000000000001690630c93e3bb90349061040f9030908d908d908d908d908a903390600401610c55565b6000604051808303818588803b15801561042857600080fd5b505af115801561043c573d6000803e3d6000fd5b50506040517f1c92115f0000000000000000000000000000000000000000000000000000000081526001600160a01b037f0000000000000000000000000000000000000000000000000000000000000000169350631c92115f92506104ae91508b908b908b908b908890600401610cb8565b600060405180830381600087803b1580156104c857600080fd5b505af11580156104dc573d6000803e3d6000fd5b505050507f6c52f5eda14b017bd6057579de78fe8354d9c133d8e7edec70920ef11b1089008888888888888860405161051b9796959493929190610cff565b60405180910390a161059688888080601f01602080910402602001604051908101604052809392919081815260200183838082843760009201919091525050604080516020601f8c018190048102820181019092528a815292508a915089908190840183828082843760009201919091525061075b92505050565b6000838152600260205260409020556105b0826001610d50565b6000555050505050505050565b600082826040516105cf929190610b78565b6040519081900381207f5f6970c300000000000000000000000000000000000000000000000000000000825291506001600160a01b037f00000000000000000000000000000000000000000000000000000000000000001690635f6970c390610646908b908b908b908b908b908990600401610d76565b602060405180830381600087803b15801561066057600080fd5b505af1158015610674573d6000803e3d6000fd5b505050506040513d601f19601f820116820180604052508101906106989190610c10565b6106b557604051631403112d60e21b815260040160405180910390fd5b6106c387878787878761078e565b5050505050505050565b600380546106da90610db7565b80601f016020809104026020016040519081016040528092919081815260200182805461070690610db7565b80156107535780601f1061072857610100808354040283529160200191610753565b820191906000526020600020905b81548152906001019060200180831161073657829003601f168201915b505050505081565b60008282604051602001610770929190610df2565b60405160208183030381529060405280519060200120905092915050565b600061079c82840184610a54565b905061081187878080601f01602080910402602001604051908101604052809392919081815260200183838082843760009201919091525050604080516020601f8b01819004810282018101909252898152925089915088908190840183828082843760009201919091525061075b92505050565b6000828152600260205260409020541461086a577f036f215e0dffdb0755f8b502613d33e916e9f35487ca9b8e9be104a1cd9caa12878787878560405161085c959493929190610e17565b60405180910390a15061088f565b6000908152600160208181526040808420805460ff1916909317909255600290528120555b505050505050565b60008083601f8401126108a957600080fd5b50813567ffffffffffffffff8111156108c157600080fd5b6020830191508360208285010111156108d957600080fd5b9250929050565b60008060008060008060008060008060c08b8d0312156108ff57600080fd5b8a35995060208b013567ffffffffffffffff8082111561091e57600080fd5b61092a8e838f01610897565b909b50995060408d013591508082111561094357600080fd5b61094f8e838f01610897565b909950975060608d013591508082111561096857600080fd5b6109748e838f01610897565b909750955060808d013591508082111561098d57600080fd5b5061099a8d828e01610897565b9150809450508092505060a08b013590509295989b9194979a5092959850565b600080600080600080606087890312156109d357600080fd5b863567ffffffffffffffff808211156109eb57600080fd5b6109f78a838b01610897565b90985096506020890135915080821115610a1057600080fd5b610a1c8a838b01610897565b90965094506040890135915080821115610a3557600080fd5b50610a4289828a01610897565b979a9699509497509295939492505050565b600060208284031215610a6657600080fd5b5035919050565b60008060008060008060006080888a031215610a8857600080fd5b87359650602088013567ffffffffffffffff80821115610aa757600080fd5b610ab38b838c01610897565b909850965060408a0135915080821115610acc57600080fd5b610ad88b838c01610897565b909650945060608a0135915080821115610af157600080fd5b50610afe8a828b01610897565b989b979a50959850939692959293505050565b6000815180845260005b81811015610b3757602081850181015186830182015201610b1b565b81811115610b49576000602083870101525b50601f01601f19169290920160200192915050565b602081526000610b716020830184610b11565b9392505050565b8183823760009101908152919050565b81835281816020850137506000828201602090810191909152601f909101601f19169091010190565b89815260c060208201526000610bcb60c083018a8c610b88565b8281036040840152610bde81898b610b88565b90508660608401528281036080840152610bf9818688610b88565b9150508260a08301529a9950505050505050505050565b600060208284031215610c2257600080fd5b81518015158114610b7157600080fd5b838152604060208201526000610c4c604083018486610b88565b95945050505050565b60006001600160a01b03808a16835260a06020840152610c7960a08401898b610b88565b8381036040850152610c8c81888a610b88565b90508381036060850152610ca08187610b11565b92505080841660808401525098975050505050505050565b606081526000610ccc606083018789610b88565b8281036020840152610cdf818688610b88565b90508281036040840152610cf38185610b11565b98975050505050505050565b608081526000610d1360808301898b610b88565b8281036020840152610d2681888a610b88565b90508281036040840152610d3b818688610b88565b91505082606083015298975050505050505050565b60008219821115610d7157634e487b7160e01b600052601160045260246000fd5b500190565b868152608060208201526000610d90608083018789610b88565b8281036040840152610da3818688610b88565b915050826060830152979650505050505050565b600181811c90821680610dcb57607f821691505b60208210811415610dec57634e487b7160e01b600052602260045260246000fd5b50919050565b604081526000610e056040830185610b11565b8281036020840152610c4c8185610b11565b606081526000610e2b606083018789610b88565b8281036020840152610e3e818688610b88565b915050826040830152969550505050505056fea2646970667358221220624eaa9e17f4d07b60de1ce8e056d165e202f8dc4eb27c12502026d123f1500c64736f6c63430008090033",
  "linkReferences": {},
  "deployedLinkReferences": {}
}