{
  "_format": "hh-sol-artifact-1",
  "contractName": "DistributionExecutable",
  "sourceName": "examples/evm/call-contract-with-token/DistributionExecutable.sol",
  "abi": [
    {
      "inputs": [
        {
          "internalType": "address",
          "name": "gateway_",
          "type": "address"
        },
        {
          "internalType": "address",
          "name": "gasReceiver_",
          "type": "address"
        }
      ],
      "stateMutability": "nonpayable",
      "type": "constructor"
    },
    {
      "inputs": [],
      "name": "InvalidAddress",
      "type": "error"
    },
    {
      "inputs": [],
      "name": "NotApprovedByGateway",
      "type": "error"
    },
    {
      "inputs": [
        {
          "internalType": "bytes32",
          "name": "commandId",
          "type": "bytes32"
        },
        {
          "internalType": "string",
          "name": "sourceChain",
          "type": "string"
        },
        {
          "internalType": "string",
          "name": "sourceAddress",
          "type": "string"
        },
        {
          "internalType": "bytes",
          "name": "payload",
          "type": "bytes"
        }
      ],
      "name": "execute",
      "outputs": [],
      "stateMutability": "nonpayable",
      "type": "function"
    },
    {
      "inputs": [
        {
          "internalType": "bytes32",
          "name": "commandId",
          "type": "bytes32"
        },
        {
          "internalType": "string",
          "name": "sourceChain",
          "type": "string"
        },
        {
          "internalType": "string",
          "name": "sourceAddress",
          "type": "string"
        },
        {
          "internalType": "bytes",
          "name": "payload",
          "type": "bytes"
        },
        {
          "internalType": "string",
          "name": "tokenSymbol",
          "type": "string"
        },
        {
          "internalType": "uint256",
          "name": "amount",
          "type": "uint256"
        }
      ],
      "name": "executeWithToken",
      "outputs": [],
      "stateMutability": "nonpayable",
      "type": "function"
    },
    {
      "inputs": [],
      "name": "gasService",
      "outputs": [
        {
          "internalType": "contract IAxelarGasService",
          "name": "",
          "type": "address"
        }
      ],
      "stateMutability": "view",
      "type": "function"
    },
    {
      "inputs": [],
      "name": "gateway",
      "outputs": [
        {
          "internalType": "contract IAxelarGateway",
          "name": "",
          "type": "address"
        }
      ],
      "stateMutability": "view",
      "type": "function"
    },
    {
      "inputs": [
        {
          "internalType": "string",
          "name": "destinationChain",
          "type": "string"
        },
        {
          "internalType": "string",
          "name": "destinationAddress",
          "type": "string"
        },
        {
          "internalType": "address[]",
          "name": "destinationAddresses",
          "type": "address[]"
        },
        {
          "internalType": "string",
          "name": "symbol",
          "type": "string"
        },
        {
          "internalType": "uint256",
          "name": "amount",
          "type": "uint256"
        }
      ],
      "name": "sendToMany",
      "outputs": [],
      "stateMutability": "payable",
      "type": "function"
    }
  ],
  "bytecode": "0x60c060405234801561001057600080fd5b5060405161118d38038061118d83398101604081905261002f9161008b565b816001600160a01b0381166100575760405163e6c4247b60e01b815260040160405180910390fd5b6001600160a01b039081166080521660a052506100be565b80516001600160a01b038116811461008657600080fd5b919050565b6000806040838503121561009e57600080fd5b6100a78361006f565b91506100b56020840161006f565b90509250929050565b60805160a05161107a6101136000396000818161010301526106300152600081816071015281816101820152818161029e015281816103f70152818161054f015281816106d20152610762015261107a6000f3fe60806040526004361061005a5760003560e01c8063491606581161004357806349160658146100d15780636a22d8cc146100f1578063fbd9497b1461012557600080fd5b8063116191b61461005f5780631a98b2e0146100af575b600080fd5b34801561006b57600080fd5b506100937f000000000000000000000000000000000000000000000000000000000000000081565b6040516001600160a01b03909116815260200160405180910390f35b3480156100bb57600080fd5b506100cf6100ca366004610935565b610138565b005b3480156100dd57600080fd5b506100cf6100ec366004610a0f565b610254565b3480156100fd57600080fd5b506100937f000000000000000000000000000000000000000000000000000000000000000081565b6100cf610133366004610b6a565b610356565b6000858560405161014a929190610c56565b6040519081900381207f1876eed900000000000000000000000000000000000000000000000000000000825291506001600160a01b037f00000000000000000000000000000000000000000000000000000000000000001690631876eed9906101c7908e908e908e908e908e9089908d908d908d90600401610c8f565b602060405180830381600087803b1580156101e157600080fd5b505af11580156101f5573d6000803e3d6000fd5b505050506040513d601f19601f820116820180604052508101906102199190610cee565b61023657604051631403112d60e21b815260040160405180910390fd5b6102478a8a8a8a8a8a8a8a8a61074e565b5050505050505050505050565b60008282604051610266929190610c56565b6040519081900381207f5f6970c300000000000000000000000000000000000000000000000000000000825291506001600160a01b037f00000000000000000000000000000000000000000000000000000000000000001690635f6970c3906102dd908b908b908b908b908b908990600401610d17565b602060405180830381600087803b1580156102f757600080fd5b505af115801561030b573d6000803e3d6000fd5b505050506040513d601f19601f8201168201806040525081019061032f9190610cee565b61034c57604051631403112d60e21b815260040160405180910390fd5b5050505050505050565b600034116103c4576040517f08c379a000000000000000000000000000000000000000000000000000000000815260206004820152601760248201527f476173207061796d656e74206973207265717569726564000000000000000000604482015260640160405180910390fd5b6040517f935b13f60000000000000000000000000000000000000000000000000000000081526000906001600160a01b037f0000000000000000000000000000000000000000000000000000000000000000169063935b13f69061042c908690600401610da5565b60206040518083038186803b15801561044457600080fd5b505afa158015610458573d6000803e3d6000fd5b505050506040513d601f19601f8201168201806040525081019061047c9190610dd0565b6040517f23b872dd000000000000000000000000000000000000000000000000000000008152336004820152306024820152604481018490529091506001600160a01b038216906323b872dd90606401602060405180830381600087803b1580156104e657600080fd5b505af11580156104fa573d6000803e3d6000fd5b505050506040513d601f19601f8201168201806040525081019061051e9190610cee565b506040517f095ea7b30000000000000000000000000000000000000000000000000000000081526001600160a01b037f0000000000000000000000000000000000000000000000000000000000000000811660048301526024820184905282169063095ea7b390604401602060405180830381600087803b1580156105a257600080fd5b505af11580156105b6573d6000803e3d6000fd5b505050506040513d601f19601f820116820180604052508101906105da9190610cee565b50600085856040516020016105f0929190610ded565b60408051601f19818403018152908290527fc62c200200000000000000000000000000000000000000000000000000000000825291506001600160a01b037f0000000000000000000000000000000000000000000000000000000000000000169063c62c20029034906106739030908d908d9088908c908c903390600401610e3b565b6000604051808303818588803b15801561068c57600080fd5b505af11580156106a0573d6000803e3d6000fd5b50506040517fb54170840000000000000000000000000000000000000000000000000000000081526001600160a01b037f000000000000000000000000000000000000000000000000000000000000000016935063b5417084925061071291508b908b9086908a908a90600401610eb5565b600060405180830381600087803b15801561072c57600080fd5b505af1158015610740573d6000803e3d6000fd5b505050505050505050505050565b600061075c85870187610f15565b905060007f00000000000000000000000000000000000000000000000000000000000000006001600160a01b031663935b13f686866040518363ffffffff1660e01b81526004016107ae929190610fc7565b60206040518083038186803b1580156107c657600080fd5b505afa1580156107da573d6000803e3d6000fd5b505050506040513d601f19601f820116820180604052508101906107fe9190610dd0565b9050600082518461080f9190610fe3565b905060005b83518110156108dd57826001600160a01b031663a9059cbb85838151811061083e5761083e611005565b6020026020010151846040518363ffffffff1660e01b81526004016108789291906001600160a01b03929092168252602082015260400190565b602060405180830381600087803b15801561089257600080fd5b505af11580156108a6573d6000803e3d6000fd5b505050506040513d601f19601f820116820180604052508101906108ca9190610cee565b50806108d58161101b565b915050610814565b50505050505050505050505050565b60008083601f8401126108fe57600080fd5b50813567ffffffffffffffff81111561091657600080fd5b60208301915083602082850101111561092e57600080fd5b9250929050565b60008060008060008060008060008060c08b8d03121561095457600080fd5b8a35995060208b013567ffffffffffffffff8082111561097357600080fd5b61097f8e838f016108ec565b909b50995060408d013591508082111561099857600080fd5b6109a48e838f016108ec565b909950975060608d01359150808211156109bd57600080fd5b6109c98e838f016108ec565b909750955060808d01359150808211156109e257600080fd5b506109ef8d828e016108ec565b9150809450508092505060a08b013590509295989b9194979a5092959850565b60008060008060008060006080888a031215610a2a57600080fd5b87359650602088013567ffffffffffffffff80821115610a4957600080fd5b610a558b838c016108ec565b909850965060408a0135915080821115610a6e57600080fd5b610a7a8b838c016108ec565b909650945060608a0135915080821115610a9357600080fd5b50610aa08a828b016108ec565b989b979a50959850939692959293505050565b634e487b7160e01b600052604160045260246000fd5b604051601f8201601f1916810167ffffffffffffffff81118282101715610af257610af2610ab3565b604052919050565b600082601f830112610b0b57600080fd5b813567ffffffffffffffff811115610b2557610b25610ab3565b610b38601f8201601f1916602001610ac9565b818152846020838601011115610b4d57600080fd5b816020850160208301376000918101602001919091529392505050565b60008060008060008060a08789031215610b8357600080fd5b863567ffffffffffffffff80821115610b9b57600080fd5b610ba78a838b01610afa565b97506020890135915080821115610bbd57600080fd5b610bc98a838b01610afa565b96506040890135915080821115610bdf57600080fd5b818901915089601f830112610bf357600080fd5b813581811115610c0257600080fd5b8a60208260051b8501011115610c1757600080fd5b602083019650809550506060890135915080821115610c3557600080fd5b50610c4289828a01610afa565b925050608087013590509295509295509295565b8183823760009101908152919050565b81835281816020850137506000828201602090810191909152601f909101601f19169091010190565b89815260c060208201526000610ca960c083018a8c610c66565b8281036040840152610cbc81898b610c66565b90508660608401528281036080840152610cd7818688610c66565b9150508260a08301529a9950505050505050505050565b600060208284031215610d0057600080fd5b81518015158114610d1057600080fd5b9392505050565b868152608060208201526000610d31608083018789610c66565b8281036040840152610d44818688610c66565b915050826060830152979650505050505050565b6000815180845260005b81811015610d7e57602081850181015186830182015201610d62565b81811115610d90576000602083870101525b50601f01601f19169290920160200192915050565b602081526000610d106020830184610d58565b6001600160a01b0381168114610dcd57600080fd5b50565b600060208284031215610de257600080fd5b8151610d1081610db8565b60208082528181018390526000908460408401835b86811015610e30578235610e1581610db8565b6001600160a01b031682529183019190830190600101610e02565b509695505050505050565b60006001600160a01b03808a16835260e06020840152610e5e60e084018a610d58565b8381036040850152610e70818a610d58565b90508381036060850152610e848189610d58565b90508381036080850152610e988188610d58565b60a0850196909652509290921660c0909101525095945050505050565b60a081526000610ec860a0830188610d58565b8281036020840152610eda8188610d58565b90508281036040840152610eee8187610d58565b90508281036060840152610f028186610d58565b9150508260808301529695505050505050565b60006020808385031215610f2857600080fd5b823567ffffffffffffffff80821115610f4057600080fd5b818501915085601f830112610f5457600080fd5b813581811115610f6657610f66610ab3565b8060051b9150610f77848301610ac9565b8181529183018401918481019088841115610f9157600080fd5b938501935b83851015610fbb5784359250610fab83610db8565b8282529385019390850190610f96565b98975050505050505050565b602081526000610fdb602083018486610c66565b949350505050565b60008261100057634e487b7160e01b600052601260045260246000fd5b500490565b634e487b7160e01b600052603260045260246000fd5b600060001982141561103d57634e487b7160e01b600052601160045260246000fd5b506001019056fea26469706673582212208d5ab5d5742e110fe5c15e8e27c59b89efdbe51015f939fa32af5cfff7ee0f4064736f6c63430008090033",
  "linkReferences": {},
  "deployedLinkReferences": {}
}