{
  "_format": "hh-sol-artifact-1",
  "contractName": "LendingSatellite",
  "sourceName": "examples/evm/cross-chain-lending/LendingSatellite.sol",
  "abi": [
    {
      "inputs": [
        {
          "internalType": "address",
          "name": "gateway_",
          "type": "address"
        },
        {
          "internalType": "string",
          "name": "baseChain_",
          "type": "string"
        },
        {
          "internalType": "string",
          "name": "baseContract_",
          "type": "string"
        }
      ],
      "stateMutability": "nonpayable",
      "type": "constructor"
    },
    {
      "inputs": [],
      "name": "InvalidAddress",
      "type": "error"
    },
    {
      "inputs": [],
      "name": "NotApprovedByGateway",
      "type": "error"
    },
    {
      "inputs": [],
      "name": "baseChain",
      "outputs": [
        {
          "internalType": "string",
          "name": "",
          "type": "string"
        }
      ],
      "stateMutability": "view",
      "type": "function"
    },
    {
      "inputs": [],
      "name": "baseContract",
      "outputs": [
        {
          "internalType": "string",
          "name": "",
          "type": "string"
        }
      ],
      "stateMutability": "view",
      "type": "function"
    },
    {
      "inputs": [
        {
          "internalType": "bytes32",
          "name": "commandId",
          "type": "bytes32"
        },
        {
          "internalType": "string",
          "name": "sourceChain",
          "type": "string"
        },
        {
          "internalType": "string",
          "name": "sourceAddress",
          "type": "string"
        },
        {
          "internalType": "bytes",
          "name": "payload",
          "type": "bytes"
        }
      ],
      "name": "execute",
      "outputs": [],
      "stateMutability": "nonpayable",
      "type": "function"
    },
    {
      "inputs": [
        {
          "internalType": "bytes32",
          "name": "commandId",
          "type": "bytes32"
        },
        {
          "internalType": "string",
          "name": "sourceChain",
          "type": "string"
        },
        {
          "internalType": "string",
          "name": "sourceAddress",
          "type": "string"
        },
        {
          "internalType": "bytes",
          "name": "payload",
          "type": "bytes"
        },
        {
          "internalType": "string",
          "name": "tokenSymbol",
          "type": "string"
        },
        {
          "internalType": "uint256",
          "name": "amount",
          "type": "uint256"
        }
      ],
      "name": "executeWithToken",
      "outputs": [],
      "stateMutability": "nonpayable",
      "type": "function"
    },
    {
      "inputs": [],
      "name": "gateway",
      "outputs": [
        {
          "internalType": "contract IAxelarGateway",
          "name": "",
          "type": "address"
        }
      ],
      "stateMutability": "view",
      "type": "function"
    },
    {
      "inputs": [
        {
          "internalType": "string",
          "name": "repayTokenSymbol",
          "type": "string"
        },
        {
          "internalType": "uint256",
          "name": "repayAmount",
          "type": "uint256"
        },
        {
          "internalType": "string",
          "name": "redeemTokenSymbol",
          "type": "string"
        },
        {
          "internalType": "uint256",
          "name": "redeemAmount",
          "type": "uint256"
        }
      ],
      "name": "repayAndRedeem",
      "outputs": [],
      "stateMutability": "nonpayable",
      "type": "function"
    },
    {
      "inputs": [
        {
          "internalType": "string",
          "name": "supplyTokenSymbol",
          "type": "string"
        },
        {
          "internalType": "uint256",
          "name": "supplyAmount",
          "type": "uint256"
        },
        {
          "internalType": "string",
          "name": "borrowTokenSymbol",
          "type": "string"
        },
        {
          "internalType": "uint256",
          "name": "borrowAmount",
          "type": "uint256"
        }
      ],
      "name": "supplyAndBorrow",
      "outputs": [],
      "stateMutability": "nonpayable",
      "type": "function"
    }
  ],
  "bytecode": "0x60a06040523480156200001157600080fd5b50604051620014a0380380620014a0833981016040819052620000349162000211565b826001600160a01b0381166200005d5760405163e6c4247b60e01b815260040160405180910390fd5b6001600160a01b031660805281516200007e9060009060208501906200009e565b508051620000949060019060208401906200009e565b50505050620002d8565b828054620000ac906200029b565b90600052602060002090601f016020900481019282620000d057600085556200011b565b82601f10620000eb57805160ff19168380011785556200011b565b828001600101855582156200011b579182015b828111156200011b578251825591602001919060010190620000fe565b50620001299291506200012d565b5090565b5b808211156200012957600081556001016200012e565b634e487b7160e01b600052604160045260246000fd5b600082601f8301126200016c57600080fd5b81516001600160401b038082111562000189576200018962000144565b604051601f8301601f19908116603f01168101908282118183101715620001b457620001b462000144565b81604052838152602092508683858801011115620001d157600080fd5b600091505b83821015620001f55785820183015181830184015290820190620001d6565b83821115620002075760008385830101525b9695505050505050565b6000806000606084860312156200022757600080fd5b83516001600160a01b03811681146200023f57600080fd5b60208501519093506001600160401b03808211156200025d57600080fd5b6200026b878388016200015a565b935060408601519150808211156200028257600080fd5b5062000291868287016200015a565b9150509250925092565b600181811c90821680620002b057607f821691505b60208210811415620002d257634e487b7160e01b600052602260045260246000fd5b50919050565b60805161117c620003246000396000818160a50152818161020d01528181610318015281816103f70152818161051f01528181610632015281816106ca01526107f2015261117c6000f3fe608060405234801561001057600080fd5b506004361061007d5760003560e01c8063491606581161005b57806349160658146100f45780635b32619c1461010757806360ae2eb21461010f578063cc87890c1461012257600080fd5b80630704265614610082578063116191b6146100a05780631a98b2e0146100df575b600080fd5b61008a610135565b6040516100979190610b18565b60405180910390f35b6100c77f000000000000000000000000000000000000000000000000000000000000000081565b6040516001600160a01b039091168152602001610097565b6100f26100ed366004610b74565b6101c3565b005b6100f2610102366004610c4e565b6102ce565b61008a6103d0565b6100f261011d366004610cf2565b6103dd565b6100f2610130366004610cf2565b6106b0565b6000805461014290610d74565b80601f016020809104026020016040519081016040528092919081815260200182805461016e90610d74565b80156101bb5780601f10610190576101008083540402835291602001916101bb565b820191906000526020600020905b81548152906001019060200180831161019e57829003601f168201915b505050505081565b600085856040516101d5929190610daf565b6040519081900381207f1876eed900000000000000000000000000000000000000000000000000000000825291506001600160a01b037f00000000000000000000000000000000000000000000000000000000000000001690631876eed990610252908e908e908e908e908e9089908d908d908d90600401610de8565b602060405180830381600087803b15801561026c57600080fd5b505af1158015610280573d6000803e3d6000fd5b505050506040513d601f19601f820116820180604052508101906102a49190610e47565b6102c157604051631403112d60e21b815260040160405180910390fd5b5050505050505050505050565b600082826040516102e0929190610daf565b6040519081900381207f5f6970c300000000000000000000000000000000000000000000000000000000825291506001600160a01b037f00000000000000000000000000000000000000000000000000000000000000001690635f6970c390610357908b908b908b908b908b908990600401610e69565b602060405180830381600087803b15801561037157600080fd5b505af1158015610385573d6000803e3d6000fd5b505050506040513d601f19601f820116820180604052508101906103a99190610e47565b6103c657604051631403112d60e21b815260040160405180910390fd5b5050505050505050565b6001805461014290610d74565b6040516349ad89fb60e11b81526000906001600160a01b037f0000000000000000000000000000000000000000000000000000000000000000169063935b13f69061042e908a908a90600401610eaa565b60206040518083038186803b15801561044657600080fd5b505afa15801561045a573d6000803e3d6000fd5b505050506040513d601f19601f8201168201806040525081019061047e9190610ec6565b6040516323b872dd60e01b8152336004820152306024820152604481018790529091506001600160a01b038216906323b872dd90606401602060405180830381600087803b1580156104cf57600080fd5b505af11580156104e3573d6000803e3d6000fd5b505050506040513d601f19601f820116820180604052508101906105079190610e47565b5060405163095ea7b360e01b81526001600160a01b037f0000000000000000000000000000000000000000000000000000000000000000811660048301526024820187905282169063095ea7b390604401602060405180830381600087803b15801561057257600080fd5b505af1158015610586573d6000803e3d6000fd5b505050506040513d601f19601f820116820180604052508101906105aa9190610e47565b5060008484846105bb3360146108c5565b6040516020016105ce9493929190610eef565b60405160208183030381529060405290506000816040516020016105f29190610f26565b60408051601f19818403018152908290527fb541708400000000000000000000000000000000000000000000000000000000825291506001600160a01b037f0000000000000000000000000000000000000000000000000000000000000000169063b5417084906106739060009060019086908f908f908f9060040161100d565b600060405180830381600087803b15801561068d57600080fd5b505af11580156106a1573d6000803e3d6000fd5b50505050505050505050505050565b6040516349ad89fb60e11b81526000906001600160a01b037f0000000000000000000000000000000000000000000000000000000000000000169063935b13f690610701908a908a90600401610eaa565b60206040518083038186803b15801561071957600080fd5b505afa15801561072d573d6000803e3d6000fd5b505050506040513d601f19601f820116820180604052508101906107519190610ec6565b6040516323b872dd60e01b8152336004820152306024820152604481018790529091506001600160a01b038216906323b872dd90606401602060405180830381600087803b1580156107a257600080fd5b505af11580156107b6573d6000803e3d6000fd5b505050506040513d601f19601f820116820180604052508101906107da9190610e47565b5060405163095ea7b360e01b81526001600160a01b037f0000000000000000000000000000000000000000000000000000000000000000811660048301526024820187905282169063095ea7b390604401602060405180830381600087803b15801561084557600080fd5b505af1158015610859573d6000803e3d6000fd5b505050506040513d601f19601f8201168201806040525081019061087d9190610e47565b50600084848461088e3360146108c5565b6040516020016108a19493929190610eef565b60405160208183030381529060405290506000816040516020016105f2919061106f565b606060006108d48360026110cc565b6108df9060026110eb565b67ffffffffffffffff8111156108f7576108f7611103565b6040519080825280601f01601f191660200182016040528015610921576020820181803683370190505b5090507f30000000000000000000000000000000000000000000000000000000000000008160008151811061095857610958611119565b60200101906001600160f81b031916908160001a9053507f7800000000000000000000000000000000000000000000000000000000000000816001815181106109a3576109a3611119565b60200101906001600160f81b031916908160001a90535060006109c78460026110cc565b6109d29060016110eb565b90505b6001811115610a57577f303132333435363738396162636465660000000000000000000000000000000085600f1660108110610a1357610a13611119565b1a60f81b828281518110610a2957610a29611119565b60200101906001600160f81b031916908160001a90535060049490941c93610a508161112f565b90506109d5565b508315610ac4576040517f08c379a000000000000000000000000000000000000000000000000000000000815260206004820181905260248201527f537472696e67733a20686578206c656e67746820696e73756666696369656e74604482015260640160405180910390fd5b9392505050565b6000815180845260005b81811015610af157602081850181015186830182015201610ad5565b81811115610b03576000602083870101525b50601f01601f19169290920160200192915050565b602081526000610ac46020830184610acb565b60008083601f840112610b3d57600080fd5b50813567ffffffffffffffff811115610b5557600080fd5b602083019150836020828501011115610b6d57600080fd5b9250929050565b60008060008060008060008060008060c08b8d031215610b9357600080fd5b8a35995060208b013567ffffffffffffffff80821115610bb257600080fd5b610bbe8e838f01610b2b565b909b50995060408d0135915080821115610bd757600080fd5b610be38e838f01610b2b565b909950975060608d0135915080821115610bfc57600080fd5b610c088e838f01610b2b565b909750955060808d0135915080821115610c2157600080fd5b50610c2e8d828e01610b2b565b9150809450508092505060a08b013590509295989b9194979a5092959850565b60008060008060008060006080888a031215610c6957600080fd5b87359650602088013567ffffffffffffffff80821115610c8857600080fd5b610c948b838c01610b2b565b909850965060408a0135915080821115610cad57600080fd5b610cb98b838c01610b2b565b909650945060608a0135915080821115610cd257600080fd5b50610cdf8a828b01610b2b565b989b979a50959850939692959293505050565b60008060008060008060808789031215610d0b57600080fd5b863567ffffffffffffffff80821115610d2357600080fd5b610d2f8a838b01610b2b565b9098509650602089013595506040890135915080821115610d4f57600080fd5b50610d5c89828a01610b2b565b979a9699509497949695606090950135949350505050565b600181811c90821680610d8857607f821691505b60208210811415610da957634e487b7160e01b600052602260045260246000fd5b50919050565b8183823760009101908152919050565b81835281816020850137506000828201602090810191909152601f909101601f19169091010190565b89815260c060208201526000610e0260c083018a8c610dbf565b8281036040840152610e1581898b610dbf565b90508660608401528281036080840152610e30818688610dbf565b9150508260a08301529a9950505050505050505050565b600060208284031215610e5957600080fd5b81518015158114610ac457600080fd5b868152608060208201526000610e83608083018789610dbf565b8281036040840152610e96818688610dbf565b915050826060830152979650505050505050565b602081526000610ebe602083018486610dbf565b949350505050565b600060208284031215610ed857600080fd5b81516001600160a01b0381168114610ac457600080fd5b606081526000610f03606083018688610dbf565b8460208401528281036040840152610f1b8185610acb565b979650505050505050565b60408152600f60408201527f737570706c79416e64426f72726f7700000000000000000000000000000000006060820152608060208201526000610ac46080830184610acb565b8054600090600181811c9080831680610f8757607f831692505b6020808410821415610fa957634e487b7160e01b600052602260045260246000fd5b83885260208801828015610fc45760018114610fd557611000565b60ff19871682528282019750611000565b60008981526020902060005b87811015610ffa57815484820152908601908401610fe1565b83019850505b5050505050505092915050565b60a08152600061102060a0830189610f6d565b82810360208401526110328189610f6d565b905082810360408401526110468188610acb565b9050828103606084015261105b818688610dbf565b915050826080830152979650505050505050565b60408152600e60408201527f7265706179416e6452656465656d0000000000000000000000000000000000006060820152608060208201526000610ac46080830184610acb565b634e487b7160e01b600052601160045260246000fd5b60008160001904831182151516156110e6576110e66110b6565b500290565b600082198211156110fe576110fe6110b6565b500190565b634e487b7160e01b600052604160045260246000fd5b634e487b7160e01b600052603260045260246000fd5b60008161113e5761113e6110b6565b50600019019056fea2646970667358221220c344ac57769723cd8b155693995b0a0347593a0dc5f5bdedbd0b91528054b10d64736f6c63430008090033",
  "linkReferences": {},
  "deployedLinkReferences": {}
}