{
  "_format": "hh-sol-artifact-1",
  "contractName": "ExampleProxy",
  "sourceName": "examples/evm/Proxy.sol",
  "abi": [
    {
      "inputs": [],
      "name": "AlreadyInitialized",
      "type": "error"
    },
    {
      "inputs": [],
      "name": "InvalidImplementation",
      "type": "error"
    },
    {
      "inputs": [],
      "name": "InvalidOwner",
      "type": "error"
    },
    {
      "inputs": [],
      "name": "NotOwner",
      "type": "error"
    },
    {
      "inputs": [],
      "name": "SetupFailed",
      "type": "error"
    },
    {
      "stateMutability": "payable",
      "type": "fallback"
    },
    {
      "inputs": [],
      "name": "implementation",
      "outputs": [
        {
          "internalType": "address",
          "name": "implementation_",
          "type": "address"
        }
      ],
      "stateMutability": "view",
      "type": "function"
    },
    {
      "inputs": [
        {
          "internalType": "address",
          "name": "implementationAddress",
          "type": "address"
        },
        {
          "internalType": "address",
          "name": "newOwner",
          "type": "address"
        },
        {
          "internalType": "bytes",
          "name": "params",
          "type": "bytes"
        }
      ],
      "name": "init",
      "outputs": [],
      "stateMutability": "nonpayable",
      "type": "function"
    },
    {
      "inputs": [
        {
          "internalType": "bytes",
          "name": "params",
          "type": "bytes"
        }
      ],
      "name": "setup",
      "outputs": [],
      "stateMutability": "nonpayable",
      "type": "function"
    },
    {
      "stateMutability": "payable",
      "type": "receive"
    }
  ],
  "bytecode": "0x608060405234801561001057600080fd5b50337f02016836a56b71f0d02689e69e326f4f4c1b9057164ef592671cf0d37c8040c055610673806100436000396000f3fe6080604052600436106100385760003560e01c8063378dfd8e1461008f5780635c60da1b146100b15780639ded06df146100fc5761003f565b3661003f57005b60006100697f360894a13ba1a3210667c828492db98dca3e2076cc3735a920a3ca505d382bbc5490565b90503660008037600080366000845af43d6000803e80801561008a573d6000f35b3d6000fd5b34801561009b57600080fd5b506100af6100aa366004610461565b61011b565b005b3480156100bd57600080fd5b507f360894a13ba1a3210667c828492db98dca3e2076cc3735a920a3ca505d382bbc546040516001600160a01b03909116815260200160405180910390f35b34801561010857600080fd5b506100af610117366004610533565b5050565b7f02016836a56b71f0d02689e69e326f4f4c1b9057164ef592671cf0d37c8040c054336001600160a01b0382161461017f576040517f30cd747100000000000000000000000000000000000000000000000000000000815260040160405180910390fd5b60006101a97f360894a13ba1a3210667c828492db98dca3e2076cc3735a920a3ca505d382bbc5490565b6001600160a01b0316146101e9576040517f0dc149f000000000000000000000000000000000000000000000000000000000815260040160405180910390fd5b7f6fd43e7cffc31bb581d7421c8698e29aa2bd8e7186a394b85299908b4eb9b17580856001600160a01b0316638291286c6040518163ffffffff1660e01b815260040160206040518083038186803b15801561024457600080fd5b505afa158015610258573d6000803e3d6000fd5b505050506040513d601f19601f8201168201806040525081019061027c91906105a5565b146102b3576040517f68155f9a00000000000000000000000000000000000000000000000000000000815260040160405180910390fd5b847f360894a13ba1a3210667c828492db98dca3e2076cc3735a920a3ca505d382bbc55837f02016836a56b71f0d02689e69e326f4f4c1b9057164ef592671cf0d37c8040c055825160001461040f576000856001600160a01b0316639ded06df60e01b8560405160240161032791906105ee565b60408051601f198184030181529181526020820180517bffffffffffffffffffffffffffffffffffffffffffffffffffffffff167fffffffff000000000000000000000000000000000000000000000000000000009094169390931790925290516103929190610621565b600060405180830381855af49150503d80600081146103cd576040519150601f19603f3d011682016040523d82523d6000602084013e6103d2565b606091505b505090508061040d576040517f97905dfb00000000000000000000000000000000000000000000000000000000815260040160405180910390fd5b505b5050505050565b80356001600160a01b038116811461042d57600080fd5b919050565b7f4e487b7100000000000000000000000000000000000000000000000000000000600052604160045260246000fd5b60008060006060848603121561047657600080fd5b61047f84610416565b925061048d60208501610416565b9150604084013567ffffffffffffffff808211156104aa57600080fd5b818601915086601f8301126104be57600080fd5b8135818111156104d0576104d0610432565b604051601f8201601f19908116603f011681019083821181831017156104f8576104f8610432565b8160405282815289602084870101111561051157600080fd5b8260208601602083013760006020848301015280955050505050509250925092565b6000806020838503121561054657600080fd5b823567ffffffffffffffff8082111561055e57600080fd5b818501915085601f83011261057257600080fd5b81358181111561058157600080fd5b86602082850101111561059357600080fd5b60209290920196919550909350505050565b6000602082840312156105b757600080fd5b5051919050565b60005b838110156105d95781810151838201526020016105c1565b838111156105e8576000848401525b50505050565b602081526000825180602084015261060d8160408501602087016105be565b601f01601f19169190910160400192915050565b600082516106338184602087016105be565b919091019291505056fea264697066735822122075643c16eacee6de0a364494fff664645346e11e0c889282be1fff42d1130f2f64736f6c63430008090033",
  "linkReferences": {},
  "deployedLinkReferences": {}
}