{
  "_format": "hh-sol-artifact-1",
  "contractName": "NftAuctionhouseRemote",
  "sourceName": "examples/evm/nft-auctionhouse/NftAuctionhouseRemote.sol",
  "abi": [
    {
      "inputs": [
        {
          "internalType": "address",
          "name": "gateway_",
          "type": "address"
        },
        {
          "internalType": "address",
          "name": "gasReceiver_",
          "type": "address"
        },
        {
          "internalType": "address",
          "name": "usdc_",
          "type": "address"
        }
      ],
      "stateMutability": "nonpayable",
      "type": "constructor"
    },
    {
      "inputs": [],
      "name": "InvalidAddress",
      "type": "error"
    },
    {
      "inputs": [],
      "name": "NotApprovedByGateway",
      "type": "error"
    },
    {
      "inputs": [],
      "name": "DEMONINATOR",
      "outputs": [
        {
          "internalType": "uint256",
          "name": "",
          "type": "uint256"
        }
      ],
      "stateMutability": "view",
      "type": "function"
    },
    {
      "inputs": [],
      "name": "NO_MIN",
      "outputs": [
        {
          "internalType": "uint256",
          "name": "",
          "type": "uint256"
        }
      ],
      "stateMutability": "view",
      "type": "function"
    },
    {
      "inputs": [],
      "name": "NUMERATOR",
      "outputs": [
        {
          "internalType": "uint256",
          "name": "",
          "type": "uint256"
        }
      ],
      "stateMutability": "view",
      "type": "function"
    },
    {
      "inputs": [
        {
          "internalType": "address",
          "name": "bidder",
          "type": "address"
        },
        {
          "internalType": "address",
          "name": "operator",
          "type": "address"
        },
        {
          "internalType": "uint256",
          "name": "tokenId",
          "type": "uint256"
        },
        {
          "internalType": "uint256",
          "name": "amount",
          "type": "uint256"
        }
      ],
      "name": "_bid",
      "outputs": [],
      "stateMutability": "nonpayable",
      "type": "function"
    },
    {
      "inputs": [
        {
          "internalType": "address",
          "name": "operator",
          "type": "address"
        },
        {
          "internalType": "uint256",
          "name": "tokenId",
          "type": "uint256"
        },
        {
          "internalType": "uint256",
          "name": "minAmount",
          "type": "uint256"
        },
        {
          "internalType": "uint256",
          "name": "deadline",
          "type": "uint256"
        }
      ],
      "name": "auction",
      "outputs": [],
      "stateMutability": "nonpayable",
      "type": "function"
    },
    {
      "inputs": [
        {
          "internalType": "address",
          "name": "",
          "type": "address"
        },
        {
          "internalType": "uint256",
          "name": "",
          "type": "uint256"
        }
      ],
      "name": "auctioneers",
      "outputs": [
        {
          "internalType": "address",
          "name": "",
          "type": "address"
        }
      ],
      "stateMutability": "view",
      "type": "function"
    },
    {
      "inputs": [
        {
          "internalType": "address",
          "name": "operator",
          "type": "address"
        },
        {
          "internalType": "uint256",
          "name": "tokenId",
          "type": "uint256"
        },
        {
          "internalType": "uint256",
          "name": "amount",
          "type": "uint256"
        }
      ],
      "name": "bid",
      "outputs": [],
      "stateMutability": "nonpayable",
      "type": "function"
    },
    {
      "inputs": [
        {
          "internalType": "string",
          "name": "destinationChain",
          "type": "string"
        },
        {
          "internalType": "string",
          "name": "destinationAuctionhouse",
          "type": "string"
        },
        {
          "internalType": "address",
          "name": "operator",
          "type": "address"
        },
        {
          "internalType": "uint256",
          "name": "tokenId",
          "type": "uint256"
        },
        {
          "internalType": "address",
          "name": "bidder",
          "type": "address"
        },
        {
          "internalType": "uint256",
          "name": "amount",
          "type": "uint256"
        }
      ],
      "name": "bidRemote",
      "outputs": [],
      "stateMutability": "payable",
      "type": "function"
    },
    {
      "inputs": [
        {
          "internalType": "address",
          "name": "",
          "type": "address"
        },
        {
          "internalType": "uint256",
          "name": "",
          "type": "uint256"
        }
      ],
      "name": "bidders",
      "outputs": [
        {
          "internalType": "address",
          "name": "",
          "type": "address"
        }
      ],
      "stateMutability": "view",
      "type": "function"
    },
    {
      "inputs": [
        {
          "internalType": "address",
          "name": "",
          "type": "address"
        },
        {
          "internalType": "uint256",
          "name": "",
          "type": "uint256"
        }
      ],
      "name": "bids",
      "outputs": [
        {
          "internalType": "uint256",
          "name": "",
          "type": "uint256"
        }
      ],
      "stateMutability": "view",
      "type": "function"
    },
    {
      "inputs": [
        {
          "internalType": "address",
          "name": "",
          "type": "address"
        },
        {
          "internalType": "uint256",
          "name": "",
          "type": "uint256"
        }
      ],
      "name": "deadlines",
      "outputs": [
        {
          "internalType": "uint256",
          "name": "",
          "type": "uint256"
        }
      ],
      "stateMutability": "view",
      "type": "function"
    },
    {
      "inputs": [
        {
          "internalType": "bytes32",
          "name": "commandId",
          "type": "bytes32"
        },
        {
          "internalType": "string",
          "name": "sourceChain",
          "type": "string"
        },
        {
          "internalType": "string",
          "name": "sourceAddress",
          "type": "string"
        },
        {
          "internalType": "bytes",
          "name": "payload",
          "type": "bytes"
        }
      ],
      "name": "execute",
      "outputs": [],
      "stateMutability": "nonpayable",
      "type": "function"
    },
    {
      "inputs": [
        {
          "internalType": "bytes32",
          "name": "commandId",
          "type": "bytes32"
        },
        {
          "internalType": "string",
          "name": "sourceChain",
          "type": "string"
        },
        {
          "internalType": "string",
          "name": "sourceAddress",
          "type": "string"
        },
        {
          "internalType": "bytes",
          "name": "payload",
          "type": "bytes"
        },
        {
          "internalType": "string",
          "name": "tokenSymbol",
          "type": "string"
        },
        {
          "internalType": "uint256",
          "name": "amount",
          "type": "uint256"
        }
      ],
      "name": "executeWithToken",
      "outputs": [],
      "stateMutability": "nonpayable",
      "type": "function"
    },
    {
      "inputs": [],
      "name": "gasService",
      "outputs": [
        {
          "internalType": "contract IAxelarGasService",
          "name": "",
          "type": "address"
        }
      ],
      "stateMutability": "view",
      "type": "function"
    },
    {
      "inputs": [],
      "name": "gateway",
      "outputs": [
        {
          "internalType": "contract IAxelarGateway",
          "name": "",
          "type": "address"
        }
      ],
      "stateMutability": "view",
      "type": "function"
    },
    {
      "inputs": [
        {
          "internalType": "address",
          "name": "operator",
          "type": "address"
        },
        {
          "internalType": "uint256",
          "name": "tokenId",
          "type": "uint256"
        }
      ],
      "name": "isAuctionRunning",
      "outputs": [
        {
          "internalType": "bool",
          "name": "",
          "type": "bool"
        }
      ],
      "stateMutability": "view",
      "type": "function"
    },
    {
      "inputs": [
        {
          "internalType": "address",
          "name": "",
          "type": "address"
        },
        {
          "internalType": "uint256",
          "name": "",
          "type": "uint256"
        }
      ],
      "name": "minAmounts",
      "outputs": [
        {
          "internalType": "uint256",
          "name": "",
          "type": "uint256"
        }
      ],
      "stateMutability": "view",
      "type": "function"
    },
    {
      "inputs": [
        {
          "internalType": "address",
          "name": "operator",
          "type": "address"
        },
        {
          "internalType": "uint256",
          "name": "tokenId",
          "type": "uint256"
        }
      ],
      "name": "resolveAuction",
      "outputs": [],
      "stateMutability": "nonpayable",
      "type": "function"
    },
    {
      "inputs": [],
      "name": "usdc",
      "outputs": [
        {
          "internalType": "contract IERC20",
          "name": "",
          "type": "address"
        }
      ],
      "stateMutability": "view",
      "type": "function"
    }
  ],
  "bytecode": "0x60e06040523480156200001157600080fd5b506040516200245f3803806200245f83398101604081905262000034916200009f565b6001600160a01b0380821660805283908116620000645760405163e6c4247b60e01b815260040160405180910390fd5b6001600160a01b0390811660a0529190911660c05250620000e99050565b80516001600160a01b03811681146200009a57600080fd5b919050565b600080600060608486031215620000b557600080fd5b620000c08462000082565b9250620000d06020850162000082565b9150620000e06040850162000082565b90509250925092565b60805160a05160c0516122d662000189600039600081816102f30152610d950152600081816101c5015281816106040152818161072001528181610c8601528181610e37015281816111b00152818161125e015281816113c301526114a8015260008181610231015281816104c301528181610bea01528181610cb5015281816111df015281816113f201528181611557015261160101526122d66000f3fe6080604052600436106101445760003560e01c80636a22d8cc116100c0578063c038ea9d11610074578063dab477ce11610059578063dab477ce1461042d578063dd671ba614610440578063e9e05fe21461046057600080fd5b8063c038ea9d146103d7578063d8830c7d1461041857600080fd5b806380f8a4cb116100a557806380f8a4cb1461032a5780638a535bf714610362578063baa283d3146103b757600080fd5b80636a22d8cc146102e15780637a0eef301461031557600080fd5b80633e413bee116101175780635e8d528d116100fc5780635e8d528d14610273578063634a6a59146102895780636720f11c146102c157600080fd5b80633e413bee1461021f578063491606581461025357600080fd5b806301495c1c146101495780630f41ba4b14610191578063116191b6146101b35780631a98b2e0146101ff575b600080fd5b34801561015557600080fd5b5061017e610164366004611ab7565b600060208181529281526040808220909352908152205481565b6040519081526020015b60405180910390f35b34801561019d57600080fd5b506101b16101ac366004611ae3565b6104a1565b005b3480156101bf57600080fd5b506101e77f000000000000000000000000000000000000000000000000000000000000000081565b6040516001600160a01b039091168152602001610188565b34801561020b57600080fd5b506101b161021a366004611b61565b6105ba565b34801561022b57600080fd5b506101e77f000000000000000000000000000000000000000000000000000000000000000081565b34801561025f57600080fd5b506101b161026e366004611c3b565b6106d6565b34801561027f57600080fd5b5061017e60001981565b34801561029557600080fd5b5061017e6102a4366004611ab7565b600160209081526000928352604080842090915290825290205481565b3480156102cd57600080fd5b506101b16102dc366004611cdf565b6107d8565b3480156102ed57600080fd5b506101e77f000000000000000000000000000000000000000000000000000000000000000081565b34801561032157600080fd5b5061017e600381565b34801561033657600080fd5b5061017e610345366004611ab7565b600460209081526000928352604080842090915290825290205481565b34801561036e57600080fd5b506103a761037d366004611ab7565b6001600160a01b039190911660009081526001602090815260408083209383529290522054421090565b6040519015158152602001610188565b3480156103c357600080fd5b506101b16103d2366004611d25565b610a40565b3480156103e357600080fd5b506101e76103f2366004611ab7565b60026020908152600092835260408084209091529082529020546001600160a01b031681565b34801561042457600080fd5b5061017e600481565b6101b161043b366004611d60565b610b78565b34801561044c57600080fd5b506101b161045b366004611ab7565b610eb6565b34801561046c57600080fd5b506101e761047b366004611ab7565b60036020908152600092835260408084209091529082529020546001600160a01b031681565b6040516323b872dd60e01b8152336004820152306024820152604481018290527f00000000000000000000000000000000000000000000000000000000000000006001600160a01b0316906323b872dd90606401602060405180830381600087803b15801561050f57600080fd5b505af1158015610523573d6000803e3d6000fd5b505050506040513d601f19601f820116820180604052508101906105479190611e09565b506040516319c83c4760e21b81523360048201526001600160a01b038416602482015260448101839052606481018290523090636720f11c90608401600060405180830381600087803b15801561059d57600080fd5b505af11580156105b1573d6000803e3d6000fd5b50505050505050565b600085856040516105cc929190611e32565b6040519081900381207f1876eed900000000000000000000000000000000000000000000000000000000825291506001600160a01b037f00000000000000000000000000000000000000000000000000000000000000001690631876eed990610649908e908e908e908e908e9089908d908d908d90600401611e6b565b602060405180830381600087803b15801561066357600080fd5b505af1158015610677573d6000803e3d6000fd5b505050506040513d601f19601f8201168201806040525081019061069b9190611e09565b6106b857604051631403112d60e21b815260040160405180910390fd5b6106c98a8a8a8a8a8a8a8a8a6110b8565b5050505050505050505050565b600082826040516106e8929190611e32565b6040519081900381207f5f6970c300000000000000000000000000000000000000000000000000000000825291506001600160a01b037f00000000000000000000000000000000000000000000000000000000000000001690635f6970c39061075f908b908b908b908b908b908990600401611eca565b602060405180830381600087803b15801561077957600080fd5b505af115801561078d573d6000803e3d6000fd5b505050506040513d601f19601f820116820180604052508101906107b19190611e09565b6107ce57604051631403112d60e21b815260040160405180910390fd5b5050505050505050565b33301461082c5760405162461bcd60e51b815260206004820152600860248201527f4e4f545f53454c4600000000000000000000000000000000000000000000000060448201526064015b60405180910390fd5b6001600160a01b03831660009081526004602090815260408083208584529091529020548061089d5760405162461bcd60e51b815260206004820152600e60248201527f4e4f545f41554354494f4e494e470000000000000000000000000000000000006044820152606401610823565b6001600160a01b03841660009081526001602090815260408083208684529091529020544211156109105760405162461bcd60e51b815260206004820152600f60248201527f41554354494f4e5f4558504952454400000000000000000000000000000000006044820152606401610823565b6001600160a01b038085166000818152600260209081526040808320888452825280832054938352828252808320888452909152902054911690610955600385611f21565b610960600483611f21565b1115801561097957506000198314806109795750828410155b80156109855750600084115b6109d15760405162461bcd60e51b815260206004820152600b60248201527f4249445f544f4f5f4c4f570000000000000000000000000000000000000000006044820152606401610823565b6001600160a01b038216156109ec576109ec8282888861139b565b5050506001600160a01b03928316600081815260026020908152604080832086845282528083208054979098166001600160a01b031990971696909617909655908152808552838120928152919093522055565b6040516323b872dd60e01b8152336004820152306024820152604481018490526001600160a01b038516906323b872dd90606401600060405180830381600087803b158015610a8e57600080fd5b505af1158015610aa2573d6000803e3d6000fd5b50505050428111610af55760405162461bcd60e51b815260206004820152600f60248201527f41554354494f4e5f4558504952454400000000000000000000000000000000006044820152606401610823565b6001600160a01b038416600090815260016020908152604080832086845290915290208190558115610b275781610b2b565b6000195b6001600160a01b0390941660008181526004602090815260408083208784528252808320979097559181526003825285812094815293905250502080546001600160a01b03191633179055565b60003411610bc85760405162461bcd60e51b815260206004820152601760248201527f476173207061796d656e742069732072657175697265640000000000000000006044820152606401610823565b6040516323b872dd60e01b8152336004820152306024820152604481018290527f00000000000000000000000000000000000000000000000000000000000000006001600160a01b0316906323b872dd90606401602060405180830381600087803b158015610c3657600080fd5b505af1158015610c4a573d6000803e3d6000fd5b505050506040513d601f19601f82011682018060405250810190610c6e9190611e09565b5060405163095ea7b360e01b81526001600160a01b037f000000000000000000000000000000000000000000000000000000000000000081166004830152602482018390527f0000000000000000000000000000000000000000000000000000000000000000169063095ea7b390604401602060405180830381600087803b158015610cf957600080fd5b505af1158015610d0d573d6000803e3d6000fd5b505050506040513d601f19601f82011682018060405250810190610d319190611e09565b506040805133602082018190526001600160a01b0385811683850152878116606084015260808084018890528451808503909101815260a08401948590527fc62c2002000000000000000000000000000000000000000000000000000000009094527f0000000000000000000000000000000000000000000000000000000000000000169163c62c2002913491610dd89130918f918f918f918f918b918d9160a401611f98565b6000604051808303818588803b158015610df157600080fd5b505af1158015610e05573d6000803e3d6000fd5b50506040517fb54170840000000000000000000000000000000000000000000000000000000081526001600160a01b037f000000000000000000000000000000000000000000000000000000000000000016935063b54170849250610e7991508c908c908c908c9088908a9060040161201e565b600060405180830381600087803b158015610e9357600080fd5b505af1158015610ea7573d6000803e3d6000fd5b50505050505050505050505050565b6001600160a01b0380831660009081526003602090815260408083208584529091529020541680610f295760405162461bcd60e51b815260206004820152600e60248201527f4e4f545f41554354494f4e494e470000000000000000000000000000000000006044820152606401610823565b6001600160a01b03831660009081526001602090815260408083208584529091529020544211610f9b5760405162461bcd60e51b815260206004820152600f60248201527f41554354494f4e5f52554e4e494e4700000000000000000000000000000000006044820152606401610823565b6001600160a01b0380841660008181526002602090815260408083208784528252808320549383528282528083208784529091529020549116908115610fed57610fe883838787856115db565b611056565b6040516323b872dd60e01b81523060048201526001600160a01b038481166024830152604482018690528616906323b872dd90606401600060405180830381600087803b15801561103d57600080fd5b505af1158015611051573d6000803e3d6000fd5b505050505b5050506001600160a01b03909116600081815260016020908152604080832085845282528083208390558383526004825280832085845282528083208390559282526003815282822093825292909252902080546001600160a01b0319169055565b60008080806110c9888a018a61208a565b6040805130602482018190526001600160a01b03851660448301526064820184905260848083018d90528351808403909101815260a490920183526020820180517bffffffffffffffffffffffffffffffffffffffffffffffffffffffff166319c83c4760e21b17905291519599509397509195509350600092909161114e916120db565b6000604051808303816000865af19150503d806000811461118b576040519150601f19603f3d011682016040523d82523d6000602084013e611190565b606091505b50509050806112fa5760405163095ea7b360e01b81526001600160a01b037f000000000000000000000000000000000000000000000000000000000000000081166004830152602482018890527f0000000000000000000000000000000000000000000000000000000000000000169063095ea7b390604401602060405180830381600087803b15801561122357600080fd5b505af1158015611237573d6000803e3d6000fd5b505050506040513d601f19601f8201168201806040525081019061125b9190611e09565b507f00000000000000000000000000000000000000000000000000000000000000006001600160a01b03166326ef699d8f8f61129f896001600160a01b0316611777565b8c8c8c6040518763ffffffff1660e01b81526004016112c3969594939291906120f7565b600060405180830381600087803b1580156112dd57600080fd5b505af11580156112f1573d6000803e3d6000fd5b5050505061138b565b6001600160a01b038381166000818152600560209081526040808320878452825280832080546001600160a01b031916958a16959095179094559181526006825282812085825290915220611350908f8f611a06565b506001600160a01b038381166000908152600760209081526040808320868452909152902080546001600160a01b0319169187169190911790555b5050505050505050505050505050565b6001600160a01b0384163014156115315760405163095ea7b360e01b81526001600160a01b037f000000000000000000000000000000000000000000000000000000000000000081166004830152602482018590527f0000000000000000000000000000000000000000000000000000000000000000169063095ea7b390604401602060405180830381600087803b15801561143657600080fd5b505af115801561144a573d6000803e3d6000fd5b505050506040513d601f19601f8201168201806040525081019061146e9190611e09565b506001600160a01b0382811660008181526006602090815260408083208684528252808320938352600782528083208684529091529020547f00000000000000000000000000000000000000000000000000000000000000008316926326ef699d92916114db9116611777565b866040518463ffffffff1660e01b81526004016114fa9392919061216d565b600060405180830381600087803b15801561151457600080fd5b505af1158015611528573d6000803e3d6000fd5b505050506115d5565b60405163a9059cbb60e01b81526001600160a01b038581166004830152602482018590527f0000000000000000000000000000000000000000000000000000000000000000169063a9059cbb90604401602060405180830381600087803b15801561159b57600080fd5b505af11580156115af573d6000803e3d6000fd5b505050506040513d601f19601f820116820180604052508101906115d39190611e09565b505b50505050565b60405163a9059cbb60e01b81526001600160a01b038681166004830152602482018390527f0000000000000000000000000000000000000000000000000000000000000000169063a9059cbb90604401602060405180830381600087803b15801561164557600080fd5b505af1158015611659573d6000803e3d6000fd5b505050506040513d601f19601f8201168201806040525081019061167d9190611e09565b5060006001600160a01b038516301461169657846116bd565b6001600160a01b038085166000908152600560209081526040808320878452909152902054165b6040516323b872dd60e01b81523060048201526001600160a01b03808316602483015260448201869052919250908516906323b872dd90606401600060405180830381600087803b15801561171157600080fd5b505af1158015611725573d6000803e3d6000fd5b5050506001600160a01b039094166000818152600260209081526040808320878452825280832080546001600160a01b0319169055928252818152828220958252949094528320929092555050505050565b604051606082811b6bffffffffffffffffffffffff191660208301529060009060340160408051808303601f190181528282018252601083527f303132333435363738396162636465660000000000000000000000000000000060208401528151602a808252606082019093529093506000916020820181803683370190505090507f30000000000000000000000000000000000000000000000000000000000000008160008151811061182d5761182d612257565b60200101906001600160f81b031916908160001a9053507f78000000000000000000000000000000000000000000000000000000000000008160018151811061187857611878612257565b60200101906001600160f81b031916908160001a90535060005b60148110156119fd578260048583815181106118b0576118b0612257565b016020015182517fff0000000000000000000000000000000000000000000000000000000000000090911690911c60f81c9081106118f0576118f0612257565b01602001517fff000000000000000000000000000000000000000000000000000000000000001682611923836002611f21565b61192e90600261226d565b8151811061193e5761193e612257565b60200101906001600160f81b031916908160001a9053508284828151811061196857611968612257565b602091010151815160f89190911c600f1690811061198857611988612257565b01602001517fff0000000000000000000000000000000000000000000000000000000000000016826119bb836002611f21565b6119c690600361226d565b815181106119d6576119d6612257565b60200101906001600160f81b031916908160001a9053506119f681612285565b9050611892565b50949350505050565b828054611a1290612132565b90600052602060002090601f016020900481019282611a345760008555611a7a565b82601f10611a4d5782800160ff19823516178555611a7a565b82800160010185558215611a7a579182015b82811115611a7a578235825591602001919060010190611a5f565b50611a86929150611a8a565b5090565b5b80821115611a865760008155600101611a8b565b6001600160a01b0381168114611ab457600080fd5b50565b60008060408385031215611aca57600080fd5b8235611ad581611a9f565b946020939093013593505050565b600080600060608486031215611af857600080fd5b8335611b0381611a9f565b95602085013595506040909401359392505050565b60008083601f840112611b2a57600080fd5b50813567ffffffffffffffff811115611b4257600080fd5b602083019150836020828501011115611b5a57600080fd5b9250929050565b60008060008060008060008060008060c08b8d031215611b8057600080fd5b8a35995060208b013567ffffffffffffffff80821115611b9f57600080fd5b611bab8e838f01611b18565b909b50995060408d0135915080821115611bc457600080fd5b611bd08e838f01611b18565b909950975060608d0135915080821115611be957600080fd5b611bf58e838f01611b18565b909750955060808d0135915080821115611c0e57600080fd5b50611c1b8d828e01611b18565b9150809450508092505060a08b013590509295989b9194979a5092959850565b60008060008060008060006080888a031215611c5657600080fd5b87359650602088013567ffffffffffffffff80821115611c7557600080fd5b611c818b838c01611b18565b909850965060408a0135915080821115611c9a57600080fd5b611ca68b838c01611b18565b909650945060608a0135915080821115611cbf57600080fd5b50611ccc8a828b01611b18565b989b979a50959850939692959293505050565b60008060008060808587031215611cf557600080fd5b8435611d0081611a9f565b93506020850135611d1081611a9f565b93969395505050506040820135916060013590565b60008060008060808587031215611d3b57600080fd5b8435611d4681611a9f565b966020860135965060408601359560600135945092505050565b60008060008060008060008060c0898b031215611d7c57600080fd5b883567ffffffffffffffff80821115611d9457600080fd5b611da08c838d01611b18565b909a50985060208b0135915080821115611db957600080fd5b50611dc68b828c01611b18565b9097509550506040890135611dda81611a9f565b9350606089013592506080890135611df181611a9f565b8092505060a089013590509295985092959890939650565b600060208284031215611e1b57600080fd5b81518015158114611e2b57600080fd5b9392505050565b8183823760009101908152919050565b81835281816020850137506000828201602090810191909152601f909101601f19169091010190565b89815260c060208201526000611e8560c083018a8c611e42565b8281036040840152611e9881898b611e42565b90508660608401528281036080840152611eb3818688611e42565b9150508260a08301529a9950505050505050505050565b868152608060208201526000611ee4608083018789611e42565b8281036040840152611ef7818688611e42565b915050826060830152979650505050505050565b634e487b7160e01b600052601160045260246000fd5b6000816000190483118215151615611f3b57611f3b611f0b565b500290565b60005b83811015611f5b578181015183820152602001611f43565b838111156115d55750506000910152565b60008151808452611f84816020860160208601611f40565b601f01601f19169290920160200192915050565b60006001600160a01b03808b16835260e06020840152611fbc60e084018a8c611e42565b8381036040850152611fcf81898b611e42565b90508381036060850152611fe38188611f6c565b84810360808601526005815264615553444360d81b602082015260a0850196909652509290921660c090910152506040019695505050505050565b60a08152600061203260a08301888a611e42565b8281036020840152612045818789611e42565b905082810360408401526120598186611f6c565b83810360608501526005815264615553444360d81b6020820152608090930193909352506040019695505050505050565b600080600080608085870312156120a057600080fd5b84356120ab81611a9f565b935060208501356120bb81611a9f565b925060408501356120cb81611a9f565b9396929550929360600135925050565b600082516120ed818460208701611f40565b9190910192915050565b60808152600061210b60808301888a611e42565b828103602084015261211d8188611f6c565b90508281036040840152611ef7818688611e42565b600181811c9082168061214657607f821691505b6020821081141561216757634e487b7160e01b600052602260045260246000fd5b50919050565b60808152600080855481600182811c91508083168061218d57607f831692505b60208084108214156121ad57634e487b7160e01b86526022600452602486fd5b6080880184905260a088018280156121cc57600181146121dd57612208565b60ff19871682528282019750612208565b60008d81526020902060005b87811015612202578154848201529086019084016121e9565b83019850505b50508786038189015250505050506122208186611f6c565b90508281036040840152612246816005815264615553444360d81b602082015260400190565b915050826060830152949350505050565b634e487b7160e01b600052603260045260246000fd5b6000821982111561228057612280611f0b565b500190565b600060001982141561229957612299611f0b565b506001019056fea264697066735822122086b2cde28ccc3fa9873c468160712529f7b2e3e222350d2ff81fbcd281e209e464736f6c63430008090033",
  "linkReferences": {},
  "deployedLinkReferences": {}
}