{
  "_format": "hh-sol-artifact-1",
  "contractName": "DistributionExpressExecutable",
  "sourceName": "examples/evm/call-contract-with-token-express/DistributionExpressExecutable.sol",
  "abi": [
    {
      "inputs": [
        {
          "internalType": "address",
          "name": "gateway_",
          "type": "address"
        },
        {
          "internalType": "address",
          "name": "gasReceiver_",
          "type": "address"
        }
      ],
      "stateMutability": "nonpayable",
      "type": "constructor"
    },
    {
      "inputs": [],
      "name": "AlreadyExecuted",
      "type": "error"
    },
    {
      "inputs": [],
      "name": "ExpressExecutorAlreadySet",
      "type": "error"
    },
    {
      "inputs": [],
      "name": "InsufficientValue",
      "type": "error"
    },
    {
      "inputs": [],
      "name": "InvalidAddress",
      "type": "error"
    },
    {
      "inputs": [],
      "name": "NotApprovedByGateway",
      "type": "error"
    },
    {
      "inputs": [],
      "name": "TokenTransferFailed",
      "type": "error"
    },
    {
      "anonymous": false,
      "inputs": [
        {
          "indexed": true,
          "internalType": "bytes32",
          "name": "commandId",
          "type": "bytes32"
        },
        {
          "indexed": false,
          "internalType": "string",
          "name": "sourceChain",
          "type": "string"
        },
        {
          "indexed": false,
          "internalType": "string",
          "name": "sourceAddress",
          "type": "string"
        },
        {
          "indexed": false,
          "internalType": "bytes32",
          "name": "payloadHash",
          "type": "bytes32"
        },
        {
          "indexed": true,
          "internalType": "address",
          "name": "expressExecutor",
          "type": "address"
        }
      ],
      "name": "ExpressExecuted",
      "type": "event"
    },
    {
      "anonymous": false,
      "inputs": [
        {
          "indexed": true,
          "internalType": "bytes32",
          "name": "commandId",
          "type": "bytes32"
        },
        {
          "indexed": false,
          "internalType": "string",
          "name": "sourceChain",
          "type": "string"
        },
        {
          "indexed": false,
          "internalType": "string",
          "name": "sourceAddress",
          "type": "string"
        },
        {
          "indexed": false,
          "internalType": "bytes32",
          "name": "payloadHash",
          "type": "bytes32"
        },
        {
          "indexed": false,
          "internalType": "string",
          "name": "symbol",
          "type": "string"
        },
        {
          "indexed": true,
          "internalType": "uint256",
          "name": "amount",
          "type": "uint256"
        },
        {
          "indexed": true,
          "internalType": "address",
          "name": "expressExecutor",
          "type": "address"
        }
      ],
      "name": "ExpressExecutedWithToken",
      "type": "event"
    },
    {
      "anonymous": false,
      "inputs": [
        {
          "indexed": true,
          "internalType": "bytes32",
          "name": "commandId",
          "type": "bytes32"
        },
        {
          "indexed": false,
          "internalType": "string",
          "name": "sourceChain",
          "type": "string"
        },
        {
          "indexed": false,
          "internalType": "string",
          "name": "sourceAddress",
          "type": "string"
        },
        {
          "indexed": false,
          "internalType": "bytes32",
          "name": "payloadHash",
          "type": "bytes32"
        },
        {
          "indexed": true,
          "internalType": "address",
          "name": "expressExecutor",
          "type": "address"
        }
      ],
      "name": "ExpressExecutionFulfilled",
      "type": "event"
    },
    {
      "anonymous": false,
      "inputs": [
        {
          "indexed": true,
          "internalType": "bytes32",
          "name": "commandId",
          "type": "bytes32"
        },
        {
          "indexed": false,
          "internalType": "string",
          "name": "sourceChain",
          "type": "string"
        },
        {
          "indexed": false,
          "internalType": "string",
          "name": "sourceAddress",
          "type": "string"
        },
        {
          "indexed": false,
          "internalType": "bytes32",
          "name": "payloadHash",
          "type": "bytes32"
        },
        {
          "indexed": false,
          "internalType": "string",
          "name": "symbol",
          "type": "string"
        },
        {
          "indexed": true,
          "internalType": "uint256",
          "name": "amount",
          "type": "uint256"
        },
        {
          "indexed": true,
          "internalType": "address",
          "name": "expressExecutor",
          "type": "address"
        }
      ],
      "name": "ExpressExecutionWithTokenFulfilled",
      "type": "event"
    },
    {
      "inputs": [
        {
          "internalType": "bytes32",
          "name": "commandId",
          "type": "bytes32"
        },
        {
          "internalType": "string",
          "name": "sourceChain",
          "type": "string"
        },
        {
          "internalType": "string",
          "name": "sourceAddress",
          "type": "string"
        },
        {
          "internalType": "bytes",
          "name": "payload",
          "type": "bytes"
        }
      ],
      "name": "execute",
      "outputs": [],
      "stateMutability": "nonpayable",
      "type": "function"
    },
    {
      "inputs": [
        {
          "internalType": "bytes32",
          "name": "commandId",
          "type": "bytes32"
        },
        {
          "internalType": "string",
          "name": "sourceChain",
          "type": "string"
        },
        {
          "internalType": "string",
          "name": "sourceAddress",
          "type": "string"
        },
        {
          "internalType": "bytes",
          "name": "payload",
          "type": "bytes"
        },
        {
          "internalType": "string",
          "name": "tokenSymbol",
          "type": "string"
        },
        {
          "internalType": "uint256",
          "name": "amount",
          "type": "uint256"
        }
      ],
      "name": "executeWithToken",
      "outputs": [],
      "stateMutability": "nonpayable",
      "type": "function"
    },
    {
      "inputs": [
        {
          "internalType": "bytes32",
          "name": "commandId",
          "type": "bytes32"
        },
        {
          "internalType": "string",
          "name": "sourceChain",
          "type": "string"
        },
        {
          "internalType": "string",
          "name": "sourceAddress",
          "type": "string"
        },
        {
          "internalType": "bytes",
          "name": "payload",
          "type": "bytes"
        }
      ],
      "name": "expressExecute",
      "outputs": [],
      "stateMutability": "payable",
      "type": "function"
    },
    {
      "inputs": [
        {
          "internalType": "bytes32",
          "name": "commandId",
          "type": "bytes32"
        },
        {
          "internalType": "string",
          "name": "sourceChain",
          "type": "string"
        },
        {
          "internalType": "string",
          "name": "sourceAddress",
          "type": "string"
        },
        {
          "internalType": "bytes",
          "name": "payload",
          "type": "bytes"
        },
        {
          "internalType": "string",
          "name": "symbol",
          "type": "string"
        },
        {
          "internalType": "uint256",
          "name": "amount",
          "type": "uint256"
        }
      ],
      "name": "expressExecuteWithToken",
      "outputs": [],
      "stateMutability": "payable",
      "type": "function"
    },
    {
      "inputs": [],
      "name": "gasService",
      "outputs": [
        {
          "internalType": "contract IAxelarGasService",
          "name": "",
          "type": "address"
        }
      ],
      "stateMutability": "view",
      "type": "function"
    },
    {
      "inputs": [],
      "name": "gateway",
      "outputs": [
        {
          "internalType": "contract IAxelarGateway",
          "name": "",
          "type": "address"
        }
      ],
      "stateMutability": "view",
      "type": "function"
    },
    {
      "inputs": [
        {
          "internalType": "bytes32",
          "name": "commandId",
          "type": "bytes32"
        },
        {
          "internalType": "string",
          "name": "sourceChain",
          "type": "string"
        },
        {
          "internalType": "string",
          "name": "sourceAddress",
          "type": "string"
        },
        {
          "internalType": "bytes32",
          "name": "payloadHash",
          "type": "bytes32"
        }
      ],
      "name": "getExpressExecutor",
      "outputs": [
        {
          "internalType": "address",
          "name": "expressExecutor",
          "type": "address"
        }
      ],
      "stateMutability": "view",
      "type": "function"
    },
    {
      "inputs": [
        {
          "internalType": "bytes32",
          "name": "commandId",
          "type": "bytes32"
        },
        {
          "internalType": "string",
          "name": "sourceChain",
          "type": "string"
        },
        {
          "internalType": "string",
          "name": "sourceAddress",
          "type": "string"
        },
        {
          "internalType": "bytes32",
          "name": "payloadHash",
          "type": "bytes32"
        },
        {
          "internalType": "string",
          "name": "symbol",
          "type": "string"
        },
        {
          "internalType": "uint256",
          "name": "amount",
          "type": "uint256"
        }
      ],
      "name": "getExpressExecutorWithToken",
      "outputs": [
        {
          "internalType": "address",
          "name": "expressExecutor",
          "type": "address"
        }
      ],
      "stateMutability": "view",
      "type": "function"
    },
    {
      "inputs": [
        {
          "internalType": "string",
          "name": "destinationChain",
          "type": "string"
        },
        {
          "internalType": "string",
          "name": "destinationAddress",
          "type": "string"
        },
        {
          "internalType": "address[]",
          "name": "destinationAddresses",
          "type": "address[]"
        },
        {
          "internalType": "string",
          "name": "symbol",
          "type": "string"
        },
        {
          "internalType": "uint256",
          "name": "amount",
          "type": "uint256"
        }
      ],
      "name": "sendToMany",
      "outputs": [],
      "stateMutability": "payable",
      "type": "function"
    }
  ],
  "bytecode": "0x60c06040523480156200001157600080fd5b5060405162001d3938038062001d39833981016040819052620000349162000093565b816001600160a01b0381166200005d5760405163e6c4247b60e01b815260040160405180910390fd5b6001600160a01b039081166080521660a05250620000cb565b80516001600160a01b03811681146200008e57600080fd5b919050565b60008060408385031215620000a757600080fd5b620000b28362000076565b9150620000c26020840162000076565b90509250929050565b60805160a051611bfc6200013d600039600081816101520152610bbb01526000818160ad015281816102240152818161036501528181610471015281816105ac0152818161071c015281816107d80152818161099b01528181610ada01528181610c5d0152610dc00152611bfc6000f3fe6080604052600436106100965760003560e01c80636a22d8cc11610069578063c7e6a3cc1161004e578063c7e6a3cc14610194578063e4a974cc146101b4578063fbd9497b146101c757600080fd5b80636a22d8cc14610140578063868a166d1461017457600080fd5b8063116191b61461009b5780631a98b2e0146100eb578063491606581461010d578063656576361461012d575b600080fd5b3480156100a757600080fd5b506100cf7f000000000000000000000000000000000000000000000000000000000000000081565b6040516001600160a01b03909116815260200160405180910390f35b3480156100f757600080fd5b5061010b61010636600461122c565b6101da565b005b34801561011957600080fd5b5061010b610128366004611306565b610427565b61010b61013b366004611306565b610596565b34801561014c57600080fd5b506100cf7f000000000000000000000000000000000000000000000000000000000000000081565b34801561018057600080fd5b506100cf61018f3660046113aa565b6106c4565b3480156101a057600080fd5b506100cf6101af36600461145f565b6106e8565b61010b6101c236600461122c565b610706565b61010b6101d5366004611598565b610913565b600085856040516101ec929190611684565b6040519081900381207f1876eed900000000000000000000000000000000000000000000000000000000825291506001600160a01b037f00000000000000000000000000000000000000000000000000000000000000001690631876eed990610269908e908e908e908e908e9089908d908d908d906004016116bd565b602060405180830381600087803b15801561028357600080fd5b505af1158015610297573d6000803e3d6000fd5b505050506040513d601f19601f820116820180604052508101906102bb919061171c565b6102d857604051631403112d60e21b815260040160405180910390fd5b60006102eb8c8c8c8c8c878b8b8b610ccb565b90506001600160a01b0381161561040857806001600160a01b0316838d7fdb3db9dfc9262f4fe09dbadef104f799d8181ec565e09275d80ed3355aab68d38e8e8e8e898d8d6040516103439796959493929190611745565b60405180910390a46040516349ad89fb60e11b81526000906001600160a01b037f0000000000000000000000000000000000000000000000000000000000000000169063935b13f69061039c9089908990600401611795565b60206040518083038186803b1580156103b457600080fd5b505afa1580156103c8573d6000803e3d6000fd5b505050506040513d601f19601f820116820180604052508101906103ec91906117c9565b90506104026001600160a01b0382168386610cfe565b50610419565b6104198b8b8b8b8b8b8b8b8b610dac565b505050505050505050505050565b60008282604051610439929190611684565b6040519081900381207f5f6970c300000000000000000000000000000000000000000000000000000000825291506001600160a01b037f00000000000000000000000000000000000000000000000000000000000000001690635f6970c3906104b0908b908b908b908b908b9089906004016117e6565b602060405180830381600087803b1580156104ca57600080fd5b505af11580156104de573d6000803e3d6000fd5b505050506040513d601f19601f82011682018060405250810190610502919061171c565b61051f57604051631403112d60e21b815260040160405180910390fd5b600061052f898989898987610f3b565b90506001600160a01b0381161561058b57806001600160a01b0316897f8fe61b2d4701a29265508750790e322b2c214399abdf98472158b8908b660d418a8a8a8a88604051610582959493929190611827565b60405180910390a35b505050505050505050565b604051630d26ff2160e41b8152600481018890527f00000000000000000000000000000000000000000000000000000000000000006001600160a01b03169063d26ff2109060240160206040518083038186803b1580156105f657600080fd5b505afa15801561060a573d6000803e3d6000fd5b505050506040513d601f19601f8201168201806040525081019061062e919061171c565b1561064c57604051630dc1019760e01b815260040160405180910390fd5b60405133906000906106619085908590611684565b60405180910390209050816001600160a01b0316897f6e18757e81c44a367109cbaa499add16f2ae7168aab9715c3cdc36b0f7ccce928a8a8a8a876040516106ad959493929190611827565b60405180910390a361058b89898989898688610f68565b6000806106d88b8b8b8b8b8b8b8b8b610faf565b549b9a5050505050505050505050565b6000806106f9888888888888611019565b5498975050505050505050565b604051630d26ff2160e41b8152600481018b90527f00000000000000000000000000000000000000000000000000000000000000006001600160a01b03169063d26ff2109060240160206040518083038186803b15801561076657600080fd5b505afa15801561077a573d6000803e3d6000fd5b505050506040513d601f19601f8201168201806040525081019061079e919061171c565b156107bc57604051630dc1019760e01b815260040160405180910390fd5b6040516349ad89fb60e11b815233906000906001600160a01b037f0000000000000000000000000000000000000000000000000000000000000000169063935b13f69061080f9088908890600401611795565b60206040518083038186803b15801561082757600080fd5b505afa15801561083b573d6000803e3d6000fd5b505050506040513d601f19601f8201168201806040525081019061085f91906117c9565b905060008787604051610873929190611684565b60405180910390209050826001600160a01b0316848e7f5844b8bbe3fd2b0354e73f27bfde28d2e6d991f14139c382876ec4360391a47b8f8f8f8f888e8e6040516108c49796959493929190611745565b60405180910390a46108de8d8d8d8d8d868c8c8c8c61107a565b6108f36001600160a01b0383168430876110c7565b6109048c8c8c8c8c8c8c8c8c610dac565b50505050505050505050505050565b60003411610981576040517f08c379a000000000000000000000000000000000000000000000000000000000815260206004820152601760248201527f476173207061796d656e74206973207265717569726564000000000000000000604482015260640160405180910390fd5b6040516349ad89fb60e11b81526000906001600160a01b037f0000000000000000000000000000000000000000000000000000000000000000169063935b13f6906109d09086906004016118b9565b60206040518083038186803b1580156109e857600080fd5b505afa1580156109fc573d6000803e3d6000fd5b505050506040513d601f19601f82011682018060405250810190610a2091906117c9565b6040516323b872dd60e01b8152336004820152306024820152604481018490529091506001600160a01b038216906323b872dd90606401602060405180830381600087803b158015610a7157600080fd5b505af1158015610a85573d6000803e3d6000fd5b505050506040513d601f19601f82011682018060405250810190610aa9919061171c565b506040517f095ea7b30000000000000000000000000000000000000000000000000000000081526001600160a01b037f0000000000000000000000000000000000000000000000000000000000000000811660048301526024820184905282169063095ea7b390604401602060405180830381600087803b158015610b2d57600080fd5b505af1158015610b41573d6000803e3d6000fd5b505050506040513d601f19601f82011682018060405250810190610b65919061171c565b5060008585604051602001610b7b9291906118cc565b60408051601f19818403018152908290527f2e9b747000000000000000000000000000000000000000000000000000000000825291506001600160a01b037f00000000000000000000000000000000000000000000000000000000000000001690632e9b7470903490610bfe9030908d908d9088908c908c90339060040161190f565b6000604051808303818588803b158015610c1757600080fd5b505af1158015610c2b573d6000803e3d6000fd5b50506040517fb54170840000000000000000000000000000000000000000000000000000000081526001600160a01b037f000000000000000000000000000000000000000000000000000000000000000016935063b54170849250610c9d91508b908b9086908a908a90600401611989565b600060405180830381600087803b158015610cb757600080fd5b505af1158015610419573d6000803e3d6000fd5b600080610cdf8b8b8b8b8b8b8b8b8b610faf565b9050805491508115610cf057600081555b509998505050505050505050565b6040516001600160a01b038316602482015260448101829052610da79084907fa9059cbb00000000000000000000000000000000000000000000000000000000906064015b60408051601f198184030181529190526020810180517bffffffffffffffffffffffffffffffffffffffffffffffffffffffff167fffffffff0000000000000000000000000000000000000000000000000000000090931692909217909152611105565b505050565b6000610dba858701876119e9565b905060007f00000000000000000000000000000000000000000000000000000000000000006001600160a01b031663935b13f686866040518363ffffffff1660e01b8152600401610e0c929190611795565b60206040518083038186803b158015610e2457600080fd5b505afa158015610e38573d6000803e3d6000fd5b505050506040513d601f19601f82011682018060405250810190610e5c91906117c9565b90506000825184610e6d9190611a9b565b905060005b835181101561090457826001600160a01b031663a9059cbb858381518110610e9c57610e9c611abd565b6020026020010151846040518363ffffffff1660e01b8152600401610ed69291906001600160a01b03929092168252602082015260400190565b602060405180830381600087803b158015610ef057600080fd5b505af1158015610f04573d6000803e3d6000fd5b505050506040513d601f19601f82011682018060405250810190610f28919061171c565b5080610f3381611ad3565b915050610e72565b600080610f4c888888888888611019565b9050805491508115610f5d57600081555b509695505050505050565b6000610f78888888888888611019565b80549091506001600160a01b03811615610fa55760405163725f13f160e01b815260040160405180910390fd5b5055505050505050565b60007febf4535caee8019297b7be3ed867db0d00b69fedcdda98c5e2c41ea6e41a98d58a8a8a8a8a8a8a8a8a604051602001610ff49a99989796959493929190611afc565b6040516020818303038152906040528051906020012090509998505050505050505050565b60007f2a41fec9a0df4e0996b975f71622c7164b0f652ea69d9dbcd6b24e81b20ab5e58787878787876040516020016110589796959493929190611b62565b6040516020818303038152906040528051906020012090509695505050505050565b600061108d8b8b8b8b8b8b8b8b8b610faf565b80549091506001600160a01b038116156110ba5760405163725f13f160e01b815260040160405180910390fd5b5055505050505050505050565b6040516001600160a01b03808516602483015283166044820152606481018290526110ff9085906323b872dd60e01b90608401610d43565b50505050565b600080836001600160a01b0316836040516111209190611baa565b6000604051808303816000865af19150503d806000811461115d576040519150601f19603f3d011682016040523d82523d6000602084013e611162565b606091505b5091509150600082801561118e57508151158061118e57508180602001905181019061118e919061171c565b90508015806111a557506001600160a01b0385163b155b156111dc576040517f045c4b0200000000000000000000000000000000000000000000000000000000815260040160405180910390fd5b5050505050565b60008083601f8401126111f557600080fd5b50813567ffffffffffffffff81111561120d57600080fd5b60208301915083602082850101111561122557600080fd5b9250929050565b60008060008060008060008060008060c08b8d03121561124b57600080fd5b8a35995060208b013567ffffffffffffffff8082111561126a57600080fd5b6112768e838f016111e3565b909b50995060408d013591508082111561128f57600080fd5b61129b8e838f016111e3565b909950975060608d01359150808211156112b457600080fd5b6112c08e838f016111e3565b909750955060808d01359150808211156112d957600080fd5b506112e68d828e016111e3565b9150809450508092505060a08b013590509295989b9194979a5092959850565b60008060008060008060006080888a03121561132157600080fd5b87359650602088013567ffffffffffffffff8082111561134057600080fd5b61134c8b838c016111e3565b909850965060408a013591508082111561136557600080fd5b6113718b838c016111e3565b909650945060608a013591508082111561138a57600080fd5b506113978a828b016111e3565b989b979a50959850939692959293505050565b600080600080600080600080600060c08a8c0312156113c857600080fd5b8935985060208a013567ffffffffffffffff808211156113e757600080fd5b6113f38d838e016111e3565b909a50985060408c013591508082111561140c57600080fd5b6114188d838e016111e3565b909850965060608c0135955060808c013591508082111561143857600080fd5b506114458c828d016111e3565b9a9d999c50979a9699959894979660a00135949350505050565b6000806000806000806080878903121561147857600080fd5b86359550602087013567ffffffffffffffff8082111561149757600080fd5b6114a38a838b016111e3565b909750955060408901359150808211156114bc57600080fd5b506114c989828a016111e3565b979a9699509497949695606090950135949350505050565b634e487b7160e01b600052604160045260246000fd5b604051601f8201601f1916810167ffffffffffffffff81118282101715611520576115206114e1565b604052919050565b600082601f83011261153957600080fd5b813567ffffffffffffffff811115611553576115536114e1565b611566601f8201601f19166020016114f7565b81815284602083860101111561157b57600080fd5b816020850160208301376000918101602001919091529392505050565b60008060008060008060a087890312156115b157600080fd5b863567ffffffffffffffff808211156115c957600080fd5b6115d58a838b01611528565b975060208901359150808211156115eb57600080fd5b6115f78a838b01611528565b9650604089013591508082111561160d57600080fd5b818901915089601f83011261162157600080fd5b81358181111561163057600080fd5b8a60208260051b850101111561164557600080fd5b60208301965080955050606089013591508082111561166357600080fd5b5061167089828a01611528565b925050608087013590509295509295509295565b8183823760009101908152919050565b81835281816020850137506000828201602090810191909152601f909101601f19169091010190565b89815260c0602082015260006116d760c083018a8c611694565b82810360408401526116ea81898b611694565b90508660608401528281036080840152611705818688611694565b9150508260a08301529a9950505050505050505050565b60006020828403121561172e57600080fd5b8151801515811461173e57600080fd5b9392505050565b60808152600061175960808301898b611694565b828103602084015261176c81888a611694565b90508560408401528281036060840152611787818587611694565b9a9950505050505050505050565b6020815260006117a9602083018486611694565b949350505050565b6001600160a01b03811681146117c657600080fd5b50565b6000602082840312156117db57600080fd5b815161173e816117b1565b868152608060208201526000611800608083018789611694565b8281036040840152611813818688611694565b915050826060830152979650505050505050565b60608152600061183b606083018789611694565b828103602084015261184e818688611694565b9150508260408301529695505050505050565b60005b8381101561187c578181015183820152602001611864565b838111156110ff5750506000910152565b600081518084526118a5816020860160208601611861565b601f01601f19169290920160200192915050565b60208152600061173e602083018461188d565b60208082528181018390526000908460408401835b86811015610f5d5782356118f4816117b1565b6001600160a01b0316825291830191908301906001016118e1565b60006001600160a01b03808a16835260e0602084015261193260e084018a61188d565b8381036040850152611944818a61188d565b90508381036060850152611958818961188d565b9050838103608085015261196c818861188d565b60a0850196909652509290921660c0909101525095945050505050565b60a08152600061199c60a083018861188d565b82810360208401526119ae818861188d565b905082810360408401526119c2818761188d565b905082810360608401526119d6818661188d565b9150508260808301529695505050505050565b600060208083850312156119fc57600080fd5b823567ffffffffffffffff80821115611a1457600080fd5b818501915085601f830112611a2857600080fd5b813581811115611a3a57611a3a6114e1565b8060051b9150611a4b8483016114f7565b8181529183018401918481019088841115611a6557600080fd5b938501935b83851015611a8f5784359250611a7f836117b1565b8282529385019390850190611a6a565b98975050505050505050565b600082611ab857634e487b7160e01b600052601260045260246000fd5b500490565b634e487b7160e01b600052603260045260246000fd5b6000600019821415611af557634e487b7160e01b600052601160045260246000fd5b5060010190565b8a815289602082015260e060408201526000611b1c60e083018a8c611694565b8281036060840152611b2f81898b611694565b905086608084015282810360a0840152611b4a818688611694565b9150508260c08301529b9a5050505050505050505050565b87815286602082015260a060408201526000611b8260a083018789611694565b8281036060840152611b95818688611694565b91505082608083015298975050505050505050565b60008251611bbc818460208701611861565b919091019291505056fea26469706673582212202e49d0e8c6931c91b4ff58fe12e142ce14bd4f5d58f9d4a67ca09503f6d9dad064736f6c63430008090033",
  "linkReferences": {},
  "deployedLinkReferences": {}
}