{
  "_format": "hh-sol-artifact-1",
  "contractName": "InitProxy",
  "sourceName": "@axelar-network/axelar-gmp-sdk-solidity/contracts/upgradable/InitProxy.sol",
  "abi": [
    {
      "inputs": [],
      "stateMutability": "nonpayable",
      "type": "constructor"
    },
    {
      "inputs": [],
      "name": "AlreadyInitialized",
      "type": "error"
    },
    {
      "inputs": [],
      "name": "InvalidImplementation",
      "type": "error"
    },
    {
      "inputs": [],
      "name": "InvalidOwner",
      "type": "error"
    },
    {
      "inputs": [],
      "name": "NotOwner",
      "type": "error"
    },
    {
      "inputs": [],
      "name": "SetupFailed",
      "type": "error"
    },
    {
      "stateMutability": "payable",
      "type": "fallback"
    },
    {
      "inputs": [],
      "name": "implementation",
      "outputs": [
        {
          "internalType": "address",
          "name": "implementation_",
          "type": "address"
        }
      ],
      "stateMutability": "view",
      "type": "function"
    },
    {
      "inputs": [
        {
          "internalType": "address",
          "name": "implementationAddress",
          "type": "address"
        },
        {
          "internalType": "address",
          "name": "newOwner",
          "type": "address"
        },
        {
          "internalType": "bytes",
          "name": "params",
          "type": "bytes"
        }
      ],
      "name": "init",
      "outputs": [],
      "stateMutability": "nonpayable",
      "type": "function"
    },
    {
      "inputs": [
        {
          "internalType": "bytes",
          "name": "params",
          "type": "bytes"
        }
      ],
      "name": "setup",
      "outputs": [],
      "stateMutability": "nonpayable",
      "type": "function"
    },
    {
      "stateMutability": "payable",
      "type": "receive"
    }
  ],
  "bytecode": "0x608060405234801561001057600080fd5b50337f02016836a56b71f0d02689e69e326f4f4c1b9057164ef592671cf0d37c8040c055610592806100436000396000f3fe6080604052600436106100385760003560e01c8063378dfd8e1461008f5780635c60da1b146100b15780639ded06df146100fc5761003f565b3661003f57005b60006100697f360894a13ba1a3210667c828492db98dca3e2076cc3735a920a3ca505d382bbc5490565b90503660008037600080366000845af43d6000803e80801561008a573d6000f35b3d6000fd5b34801561009b57600080fd5b506100af6100aa366004610399565b61011b565b005b3480156100bd57600080fd5b507f360894a13ba1a3210667c828492db98dca3e2076cc3735a920a3ca505d382bbc546040516001600160a01b03909116815260200160405180910390f35b34801561010857600080fd5b506100af61011736600461046b565b5050565b7f02016836a56b71f0d02689e69e326f4f4c1b9057164ef592671cf0d37c8040c054336001600160a01b0382161461017f576040517f30cd747100000000000000000000000000000000000000000000000000000000815260040160405180910390fd5b60006101a97f360894a13ba1a3210667c828492db98dca3e2076cc3735a920a3ca505d382bbc5490565b6001600160a01b0316146101e9576040517f0dc149f000000000000000000000000000000000000000000000000000000000815260040160405180910390fd5b6000847f360894a13ba1a3210667c828492db98dca3e2076cc3735a920a3ca505d382bbc55837f02016836a56b71f0d02689e69e326f4f4c1b9057164ef592671cf0d37c8040c0558251600014610347576000856001600160a01b0316639ded06df60e01b8560405160240161025f919061050d565b60408051601f198184030181529181526020820180517bffffffffffffffffffffffffffffffffffffffffffffffffffffffff167fffffffff000000000000000000000000000000000000000000000000000000009094169390931790925290516102ca9190610540565b600060405180830381855af49150503d8060008114610305576040519150601f19603f3d011682016040523d82523d6000602084013e61030a565b606091505b5050905080610345576040517f97905dfb00000000000000000000000000000000000000000000000000000000815260040160405180910390fd5b505b5050505050565b80356001600160a01b038116811461036557600080fd5b919050565b7f4e487b7100000000000000000000000000000000000000000000000000000000600052604160045260246000fd5b6000806000606084860312156103ae57600080fd5b6103b78461034e565b92506103c56020850161034e565b9150604084013567ffffffffffffffff808211156103e257600080fd5b818601915086601f8301126103f657600080fd5b8135818111156104085761040861036a565b604051601f8201601f19908116603f011681019083821181831017156104305761043061036a565b8160405282815289602084870101111561044957600080fd5b8260208601602083013760006020848301015280955050505050509250925092565b6000806020838503121561047e57600080fd5b823567ffffffffffffffff8082111561049657600080fd5b818501915085601f8301126104aa57600080fd5b8135818111156104b957600080fd5b8660208285010111156104cb57600080fd5b60209290920196919550909350505050565b60005b838110156104f85781810151838201526020016104e0565b83811115610507576000848401525b50505050565b602081526000825180602084015261052c8160408501602087016104dd565b601f01601f19169190910160400192915050565b600082516105528184602087016104dd565b919091019291505056fea26469706673582212202677b82cdafc27d87c798f6be764e0821af8bc26b5da6525ecc5b4dbe8b5f80164736f6c63430008090033",
  "linkReferences": {},
  "deployedLinkReferences": {}
}